{
  "abi": [
    {
      "inputs": [
        {
          "internalType": "uint256[24]",
          "name": "_proof",
          "type": "uint256[24]"
        },
        {
          "internalType": "uint256[1]",
          "name": "_pubSignals",
          "type": "uint256[1]"
        }
      ],
      "name": "verifyProof",
      "outputs": [
        {
          "internalType": "bool",
          "name": "",
          "type": "bool"
        }
      ],
      "stateMutability": "view",
      "type": "function"
    }
  ],
  "bytecode": {
    "object": "0x608080604052346100165761133f908161001c8239f35b600080fdfe600436101561000d57600080fd5b6000803560e01c63ff7240a71461002357600080fd5b3461061d5761032036600319011261061d57366103041161061d57366103241161061d576103c060405261005961024435610681565b61006561026435610681565b61007161028435610681565b61007d6102a435610681565b6100896102c435610681565b6100956102e435610681565b6040517f1ee4d90788e879c6bddc453810887628e440a0a42a591a0761d14ee04d2be5e48152602081017f170b85839f6ed8715bf15a4474b693a016be628817303117b346165f01e869b89052604081017f20d75d9946746c331a4413f99ef3ea19da664b747cea9f63244fd8c858aa96719052606081017f0ecb977d5f5c323af0e2b9bc34b77603f145bb4ed079976399162077438490149052608081017f190fce43f4fcf9d397a03054be55fae8f03b2cc254e0eee326ae4d4fdace16e1905260a081017f109d14d7c263df5e6e9628009e72f390ba27fa7279046d97a6252b5fa8e10caf905260c081017f0e951ccd1cec5b3cbc522ffad99fb8b79b42e14d44db089fe7519602db4cdb23905260e081017f0f9930b8fe261694be796070cc0cc8d2b4b5e658ae2e090058e8421dd578929e9052816101008201528161012082015261014081017f1b5074580be0bc54a635e7c61b79d32be69c64558ab9273e2b3dd0e2c61ffe97905261016081017f06721107a6d631076a3155cfd6a1c9cf272aba9c8a4f9bf08518a1a0240b3107905261018081017f028f333244bece387f0d783fdb8fb0e6b9d5535e003efa0f79188ad6762eabb790526101a081017f15b1e28262f9289e12d15be707890cdd4d2af41fb6df830015bf62c0c4374d4790526101c081017f12e1328bf47b19b685fdaddf6a6f7888da9e25527d4bb59fe0c3e25713079d7a90526101e081017f29b6de7c5388bdc51df00af7fdbab9fb80c8cd93363cb684b6b5c791ef3688069052610304356102008201526004356102208201526024356102408201526044356102608201526064356102808201526084356102a082015260a4356102c08201526102e081206000805160206112ea83398151915290068060a052602060a0206000805160206112ea833981519152900660c05280825260c051602083015260c435604083015260e4356060830152608082206000805160206112ea8339815191529006806080526000805160206112ea8339815191528180096103405282526101043560208301526101243560408301526101443560608301526101643560808301526101843560a08301526101a43560c083015260e082206000805160206112ea83398151915290068060e0528083526102443560208401526102643560408401526102843560608401526102a43560808401526102c43560a08401526102e43560c084015260e083206000805160206112ea8339815191529006918183610140526000805160206112ea833981519152910961012052806000805160206112ea8339815191529109806000805160206112ea8339815191529109806000805160206112ea8339815191529109806000805160206112ea8339815191529109806000805160206112ea8339815191529109806000805160206112ea8339815191529109806000805160206112ea8339815191529109806000805160206112ea8339815191529109806000805160206112ea8339815191529109806000805160206112ea8339815191529109806000805160206112ea833981519152910980610100527f30644e72e131a029b85045b68181585d2833e84879b9709143e1f593f0000000016000805160206112ea83398151915290068061036052610380526000805160206112ea8339815191528180098181610160526000805160206112ea83398151915291098181610180526000805160206112ea833981519152910990816101a0526000805160206112ea83398151915291096101c0526101c43581526101e4356020820152610204356040820152610224356060820152608090206000805160206112ea83398151915290066101e0526105e66106a2565b6105ee610757565b6105f661077c565b6105fe610cb3565b610606610e65565b61060e610f45565b6106166110a2565b8152602090f35b80fd5b60006001916000805160206112ea83398151915290805b610669575060019192501161066457600081126106515790565b6000805160206112ea8339815191520190565b600080fd5b80820584810290930393929091908202900380610637565b6000805160206112ea833981519152111561069857565b6000805260206000f35b6000805160206112ea83398151915280807f30644e72e131a029b85045b68181585d2833e84879b9709143e1f593f000000060e051010661080009906103a09182526040516103805183905b836103c0831061073f575061070290610620565b91601f19918201919081015b610380831161072557505052610360518251099052565b81818680839451880996865190099585520192019161070e565b908084939452835190099060208091019201906106ee565b6000805160206112ea8339815191528080610304356103a05109600003010661020052565b610200516000805160206112ea833981519152908180610340516103a051099181808060a0518160c051918160805193816102e435938180846102843508938180808381806102c4358909610264350808946102a4359009610244350808090909098103069381030690080861022052565b604090608082516020610240938451835261026051828401528051868401520151606082015260066107cf195a01fa1561069857565b60409060808251825181526020830151602082015261028051848201526102a051606082015260066107cf195a01fa1561069857565b6040906080825182518152602083015160208201526102c051848201526102e051606082015260066107cf195a01fa1561069857565b608060409260208451918451835281850151828401528051868401520151606082015260066107cf195a01fa1561069857565b604051907f1ee4d90788e879c6bddc453810887628e440a0a42a591a0761d14ee04d2be5e482527f170b85839f6ed8715bf15a4474b693a016be628817303117b346165f01e869b86020830152604082019081526107cf196040836060816007855a01fa1561069857604092600660809261024094855190526102605160608401525a01fa1561069857565b604051907f20d75d9946746c331a4413f99ef3ea19da664b747cea9f63244fd8c858aa967182527f0ecb977d5f5c323af0e2b9bc34b77603f145bb4ed079976399162077438490146020830152604082019081526107cf196040836060816007855a01fa1561069857604092600660809261024094855190526102605160608401525a01fa1561069857565b604051907f190fce43f4fcf9d397a03054be55fae8f03b2cc254e0eee326ae4d4fdace16e182527f109d14d7c263df5e6e9628009e72f390ba27fa7279046d97a6252b5fa8e10caf6020830152604082019081526107cf196040836060816007855a01fa1561069857604092600660809261024094855190526102605160608401525a01fa1561069857565b604051907f0e951ccd1cec5b3cbc522ffad99fb8b79b42e14d44db089fe7519602db4cdb2382527f0f9930b8fe261694be796070cc0cc8d2b4b5e658ae2e090058e8421dd578929e6020830152604082019081526107cf196040836060816007855a01fa1561069857604092600660809261024094855190526102605160608401525a01fa1561069857565b604051907f028f333244bece387f0d783fdb8fb0e6b9d5535e003efa0f79188ad6762eabb782527f15b1e28262f9289e12d15be707890cdd4d2af41fb6df830015bf62c0c4374d476020830152604082019081526107cf196040836060816007855a01fa1561069857604092600660809261028094855190526102a05160608401525a01fa1561069857565b91906040519283526020830152604082019081526107cf196040836060816007855a01fa1561069857604092600660809261028094855190526102a05160608401525a01fa1561069857565b916040519182526020820152604081019283526107cf19906040816060816007865a01fa1561069857600660809260409585519052602085015160608401525a01fa1561069857565b60606040928351907f12e1328bf47b19b685fdaddf6a6f7888da9e25527d4bb59fe0c3e25713079d7a82527f29b6de7c5388bdc51df00af7fdbab9fb80c8cd93363cb684b6b5c791ef36880660208301528482015260076107cf195a01fa1561069857565b9190604093606092855192835260208301528482015260076107cf195a01fa1561069857565b60208201519151610cb1939291610c79565b565b610cb160c051610e6060405191610e6061010093848101604052610cde600061024052600061026052565b610e106000805160206112ea833981519152610d02816102643561024435096108c3565b610d0e6102443561094f565b610d1a610264356109db565b610d2661028435610a67565b610d906101205182608051918180610340516103a051098160c08a0195610d568760c4358152602060e435910152565b818d816101e05197818084818060038609610284350808938180828180600288096102643508089361024435080809090908089085610c9f565b610dd28160a05181806102e435818460805109099181604089019a8180808381806102c4358909610264350808946102a4359009610244350808090986610c14565b6080830196610dec88610104358152602061012435910152565b610dff815161016435610144358b610bcb565b5180096101a4356101843588610bcb565b61036051610e2660a08301918251885189610c79565b606082017f30644e72e131a029b85045b68181585d97816a916871ca8d3c208c16d87cfd47908181518103069052815181030690526107ee565b6107ee565b6102405161028090815261026051906102a0918252610e8c61014051602435600435610b7f565b610e9e61016051606435604435610b7f565b610eb06101805160a435608435610b7f565b6101a051916040517f1b5074580be0bc54a635e7c61b79d32be69c64558ab9273e2b3dd0e2c61ffe9781527f06721107a6d631076a3155cfd6a1c9cf272aba9c8a4f9bf08518a1a0240b31076020820152604081019384526107cf19936040826060816007895a01fa1561069857604094608093600692865190525160608401525a01fa1561069857610cb16101c051610af3565b610220516000805160206112ea833981519152036000805160206112ea83398151915290066101405161016051610180516101a051916101c051936101e05195604051966001885260208801600290526102e435906000805160206112ea8339815191529109956000805160206112ea833981519152906102c43509946000805160206112ea833981519152906102a43509936000805160206112ea833981519152906102843509926000805160206112ea833981519152906102643509916000805160206112ea8339815191529061024435096000805160206112ea8339815191529108906000805160206112ea8339815191529108906000805160206112ea8339815191529108906000805160206112ea8339815191529108906000805160206112ea8339815191529108906000805160206112ea833981519152910860408201526107cf195a01606060409260076102c093fa1561069857565b604051610240810160405260208161018061123d8183016101c0840161122461020086016110db846101c435815260206101e435910152565b61020435835261022435602084015261121e6101e0936110fd8551828b610c9f565b611107868a610890565b898901947f30644e72e131a029b85045b68181585d97816a916871ca8d3c208c16d87cfd479586815181030690527f26186a2d65ee4d2f9c9a5b91f86597d35f192cd120caf7e935d8443d1938e23d60408b01527f30441fd1b5d3370482c42152a8899027716989a6996c2535bc9f7fee8aaef79e60608b01527f1970ea81dd6992adfbc571effb03503adbbb6a857f578403c6c40e22d65b3c0260808b01527f054793348f12c0cf5622c340573cb277586319de359ab9389778f689786b1e4860a08b01526111de60e05160c08c019889610c9f565b7f027a358499c5042bb4027fd7a5355d71b8c12c177494f0cad00a58f9769a2ee26000805160206112ea833981519152809260e051905109099083610c9f565b83610890565b61122d82610824565b6102e0908151810306905261085a565b7f198e9393920d483a7260bfb731fb5d25f1aa493335a9e71297e485b7aef312c26101008301527f1800deef121f1e76426a00665e5c4479674322d4f75edadd46debd5cd992f6ed6101208301527f090689d0585ff075ec9e99ad690c3395bc4b313370b38ef355acdadcd122975b6101408301527f12c85ea5db8c6deb4aab71808dcb408fe3d1e7690c43d37b4ce6cc0166fa7daa6101608301528160086107cf195a01fa9051169056fe30644e72e131a029b85045b68181585d2833e84879b9709143e1f593f0000001a26469706673582212208bebe73b929c404e8c0b0f9ede2bed77681e7d8eca5065486ca27ab8f81728c164736f6c63430008130033",
    "linkReferences": {}
  },
  "methodIdentifiers": {
    "verifyProof(uint256[24],uint256[1])": "ff7240a7"
  },
  "id": 72
}