{
  "abi": [
    {
      "inputs": [
        {
          "internalType": "address",
          "name": "router",
          "type": "address"
        },
        {
          "internalType": "address",
          "name": "nftAddress",
          "type": "address"
        }
      ],
      "stateMutability": "nonpayable",
      "type": "constructor"
    },
    {
      "inputs": [
        {
          "internalType": "address",
          "name": "router",
          "type": "address"
        }
      ],
      "name": "InvalidRouter",
      "type": "error"
    },
    {
      "anonymous": false,
      "inputs": [],
      "name": "MintCallSuccessfull",
      "type": "event"
    },
    {
      "inputs": [
        {
          "components": [
            {
              "internalType": "bytes32",
              "name": "messageId",
              "type": "bytes32"
            },
            {
              "internalType": "uint64",
              "name": "sourceChainSelector",
              "type": "uint64"
            },
            {
              "internalType": "bytes",
              "name": "sender",
              "type": "bytes"
            },
            {
              "internalType": "bytes",
              "name": "data",
              "type": "bytes"
            },
            {
              "components": [
                {
                  "internalType": "address",
                  "name": "token",
                  "type": "address"
                },
                {
                  "internalType": "uint256",
                  "name": "amount",
                  "type": "uint256"
                }
              ],
              "internalType": "struct Client.EVMTokenAmount[]",
              "name": "destTokenAmounts",
              "type": "tuple[]"
            }
          ],
          "internalType": "struct Client.Any2EVMMessage",
          "name": "message",
          "type": "tuple"
        }
      ],
      "name": "ccipReceive",
      "outputs": [],
      "stateMutability": "nonpayable",
      "type": "function"
    },
    {
      "inputs": [],
      "name": "getRouter",
      "outputs": [
        {
          "internalType": "address",
          "name": "",
          "type": "address"
        }
      ],
      "stateMutability": "view",
      "type": "function"
    },
    {
      "inputs": [
        {
          "internalType": "bytes4",
          "name": "interfaceId",
          "type": "bytes4"
        }
      ],
      "name": "supportsInterface",
      "outputs": [
        {
          "internalType": "bool",
          "name": "",
          "type": "bool"
        }
      ],
      "stateMutability": "pure",
      "type": "function"
    }
  ],
  "bytecode": {
    "object": "0x60a0346100ad57601f6104cf38819003918201601f19168301916001600160401b038311848410176100b25780849260409485528339810103126100ad57610052602061004b836100c8565b92016100c8565b6001600160a01b039180831615610094576080521660018060a01b031960005416176000556040516103f290816100dd82396080518181816059015260ce0152f35b6040516335fdcccd60e21b815260006004820152602490fd5b600080fd5b634e487b7160e01b600052604160045260246000fd5b51906001600160a01b03821682036100ad5756fe608060408181526004918236101561001657600080fd5b600092833560e01c91826301ffc9a7146102cb5750816385572ffb1461008c575063b0f479a11461004657600080fd5b34610088578160031936011261008857517f00000000000000000000000000000000000000000000000000000000000000006001600160a01b03168152602090f35b5080fd5b839150346100885760209060031982813601126102c75781359167ffffffffffffffff918284116102c35760a09084360301126102bf576001600160a01b03957f0000000000000000000000000000000000000000000000000000000000000000871633036102a85780519160a083018381108582111761029557825284810135835260249384860135818116810361028d5787850152604486013581811161028d5761013e9083369189010161037a565b83850152606486013581811161028d5761015d9083369189010161037a565b95606085019687526084810135908282116102915701913660238401121561028d57808301359180831161027b57610199898460051b01610322565b96808a89868152019460061b86010194368611610277578101935b85851061022457508a80808c8f828e918e60808f015281541691519283519301915af13d1561021f576101ee6101e93d61035e565b610322565b505b1561021c577fa8bcb6a278444293ea5c0bce4a4734a060a5f557bb999d8a57c4f69e96f1fe888180a180f35b80fd5b6101f0565b8685360312610277578651878101818110858211176102655788528535808f168103610261578152858c01358c8201528152938601938a016101b4565b8d80fd5b634e487b7160e01b8e5260418652838efd5b8b80fd5b634e487b7160e01b8a5260418252868afd5b8880fd5b8980fd5b634e487b7160e01b885260418252602488fd5b6024925051906335fdcccd60e21b82523390820152fd5b8480fd5b8580fd5b8380fd5b84913461031e57602036600319011261031e573563ffffffff60e01b811680910361031e57602092506385572ffb60e01b811490811561030d575b5015158152f35b6301ffc9a760e01b14905083610306565b8280fd5b6040519190601f01601f1916820167ffffffffffffffff81118382101761034857604052565b634e487b7160e01b600052604160045260246000fd5b67ffffffffffffffff811161034857601f01601f191660200190565b81601f820112156103b7578035906103946101e98361035e565b92828452602083830101116103b757816000926020809301838601378301015290565b600080fdfea2646970667358221220ecb316039e681cbf0cb0d7cc2bdf98d4f75b2174396557a6c39753f8d3f4355464736f6c63430008130033",
    "linkReferences": {}
  },
  "methodIdentifiers": {
    "ccipReceive((bytes32,uint64,bytes,bytes,(address,uint256)[]))": "85572ffb",
    "getRouter()": "b0f479a1",
    "supportsInterface(bytes4)": "01ffc9a7"
  },
  "id": 103
}