{
  "abi": [
    {
      "inputs": [],
      "name": "EVM_EXTRA_ARGS_V1_TAG",
      "outputs": [
        {
          "internalType": "bytes4",
          "name": "",
          "type": "bytes4"
        }
      ],
      "stateMutability": "view",
      "type": "function"
    }
  ],
  "bytecode": {
    "object": "0x60808060405234601857607b908161001e823930815050f35b600080fdfe6080806040526004361015601257600080fd5b60003560e01c633ab8c0d014602657600080fd5b60003660031901126040576397a657c960e01b8152602090f35b600080fdfea2646970667358221220b1b1bb3692068b75447686f9cfe76a3f8df75070bfedc8a5842e47e69ac88b1564736f6c63430008130033",
    "linkReferences": {}
  },
  "methodIdentifiers": {
    "EVM_EXTRA_ARGS_V1_TAG()": "3ab8c0d0"
  },
  "id": 50
}