{
  "abi": [
    {
      "inputs": [
        {
          "internalType": "address",
          "name": "_swapRouter",
          "type": "address"
        }
      ],
      "stateMutability": "nonpayable",
      "type": "constructor"
    },
    {
      "inputs": [
        {
          "internalType": "address[]",
          "name": "_path",
          "type": "address[]"
        },
        {
          "internalType": "uint24[]",
          "name": "_fees",
          "type": "uint24[]"
        },
        {
          "internalType": "bool",
          "name": "_fixIn",
          "type": "bool"
        }
      ],
      "name": "generateDataParam",
      "outputs": [
        {
          "internalType": "bytes",
          "name": "",
          "type": "bytes"
        }
      ],
      "stateMutability": "pure",
      "type": "function"
    },
    {
      "inputs": [],
      "name": "getSpender",
      "outputs": [
        {
          "internalType": "address",
          "name": "",
          "type": "address"
        }
      ],
      "stateMutability": "view",
      "type": "function"
    },
    {
      "inputs": [
        {
          "internalType": "address",
          "name": "_sourceToken",
          "type": "address"
        },
        {
          "internalType": "address",
          "name": "_destinationToken",
          "type": "address"
        },
        {
          "internalType": "address",
          "name": "_destinationAddress",
          "type": "address"
        },
        {
          "internalType": "uint256",
          "name": "_sourceQuantity",
          "type": "uint256"
        },
        {
          "internalType": "uint256",
          "name": "_destinationQuantity",
          "type": "uint256"
        },
        {
          "internalType": "bytes",
          "name": "_data",
          "type": "bytes"
        }
      ],
      "name": "getTradeCalldata",
      "outputs": [
        {
          "internalType": "address",
          "name": "",
          "type": "address"
        },
        {
          "internalType": "uint256",
          "name": "",
          "type": "uint256"
        },
        {
          "internalType": "bytes",
          "name": "",
          "type": "bytes"
        }
      ],
      "stateMutability": "view",
      "type": "function"
    },
    {
      "inputs": [],
      "name": "swapRouter",
      "outputs": [
        {
          "internalType": "address",
          "name": "",
          "type": "address"
        }
      ],
      "stateMutability": "view",
      "type": "function"
    }
  ],
  "bytecode": {
    "object": "0x60a03461007157601f610ba038819003918201601f19168301916001600160401b038311848410176100765780849260209460405283398101031261007157516001600160a01b038116810361007157608052604051610b13908161008d8239608051818181610183015261058a0152f35b600080fd5b634e487b7160e01b600052604160045260246000fdfe6080604052600436101561001257600080fd5b6000803560e01c90816317d4d8c91461005557508063334fc28914610050578063c31c9c07146100505763e171fcab1461004b57600080fd5b6101e7565b61016d565b346100d05760603660031901126100d05767ffffffffffffffff6004358181116100d7576100879036906004016100db565b916024359081116100d3576100a09036906004016100db565b9290916044359485151586036100d0576100cc6100c08787878787610908565b60405191829182610159565b0390f35b80fd5b8380fd5b8280fd5b9181601f8401121561010c5782359167ffffffffffffffff831161010c576020808501948460051b01011161010c57565b600080fd5b60005b8381106101245750506000910152565b8181015183820152602001610114565b9060209161014d81518092818552858086019101610111565b601f01601f1916010190565b90602061016a928181520190610134565b90565b3461010c57600036600319011261010c576040517f00000000000000000000000000000000000000000000000000000000000000006001600160a01b03168152602090f35b6001600160a01b0381160361010c57565b61016a939260609260018060a01b0316825260208201528160408201520190610134565b3461010c5760c036600319011261010c57600435610204816101b2565b602435610210816101b2565b6044359061021d826101b2565b60a4359167ffffffffffffffff9182841161010c573660238501121561010c57836004013592831161010c57366024848601011161010c576100cc94602461026e9501926084359260643592610477565b604093919351938493846101c3565b1561028457565b60405162461bcd60e51b815260206004820152600c60248201526b496e76616c6964206461746160a01b6044820152606490fd5b634e487b7160e01b600052604160045260246000fd5b90601f8019910116810190811067ffffffffffffffff8211176102f057604052565b6102b8565b6040519060a0820182811067ffffffffffffffff8211176102f057604052565b92919267ffffffffffffffff82116102f0576040519161033f601f8201601f1916602001846102ce565b82948184528183011161010c578281602093846000960137010152565b634e487b7160e01b600052601160045260246000fd5b60001981019190821161038157565b61035c565b60141981019190821161038157565b1561039c57565b60405162461bcd60e51b815260206004820152601a60248201527f536f7572636520746f6b656e2070617468206d69736d617463680000000000006044820152606490fd5b156103e857565b60405162461bcd60e51b815260206004820152601f60248201527f44657374696e6174696f6e20746f6b656e2070617468206d69736d61746368006044820152606490fd5b6020815260a0608061044a845183602086015260c0850190610134565b93600180841b03602082015116604085015260408101516060850152606081015182850152015191015290565b9461051461051a9161050c610520959994610495602c87101561027d565b6104b26104a3368886610315565b6104ac88610372565b90610a5b565b998a156105f5576104cc6104c7368987610315565b61077c565b6104e96104da368a88610315565b6104e38a610386565b90610795565b6001600160a01b0392839261050391841690841614610395565b169116146103e1565b833691610315565b91610372565b906106b8565b92156105b05790610588929161054e61057a9561053b6102f5565b9485526001600160a01b03166020850152565b4260408401526060830152608082015260405192839163c04b8d5960e01b60208401526024830161042d565b03601f1981018352826102ce565b7f00000000000000000000000000000000000000000000000000000000000000009160009190565b6105f092916105c461057a9561053b6102f5565b42604084015260608301526080820152604051928391631e51809360e31b60208401526024830161042d565b610588565b61060c610603368987610315565b6104e389610386565b61061a6104c7368a88610315565b6104e9565b90601f820180921161038157565b906001820180921161038157565b1561064257565b60405162461bcd60e51b815260206004820152600e60248201526d736c6963655f6f766572666c6f7760901b6044820152606490fd5b1561067f57565b60405162461bcd60e51b8152602060048201526011602482015270736c6963655f6f75744f66426f756e647360781b6044820152606490fd5b6106cc826106c58161061f565b101561063b565b6106d98282511015610678565b816106f1575050604051600081526020810160405290565b60405191601f811691821560051b808486010193838501920101905b8084106107255750508252601f01601f191660405290565b909283518152602080910193019061070d565b1561073f57565b60405162461bcd60e51b8152602060048201526015602482015274746f416464726573735f6f75744f66426f756e647360581b6044820152606490fd5b60209061078d601482511015610738565b015160601c90565b906014810191828211610381578183106107c1576107b860209382511015610738565b01015160601c90565b60405162461bcd60e51b8152602060048201526012602482015271746f416464726573735f6f766572666c6f7760701b6044820152606490fd5b604051906020820182811067ffffffffffffffff8211176102f05760405260008252565b60001981146103815760010190565b919081101561083e5760051b0190565b634e487b7160e01b600052603260045260246000fd5b3561016a816101b2565b3562ffffff8116810361010c5790565b6020906108846017959382815194859201610111565b60609390931b6bffffffffffffffffffffffff1916920191825260e81b6001600160e81b03191660148201520190565b6020906108ca6014949382815194859201610111565b01906bffffffffffffffffffffffff199060601b1681520190565b6020906108fb6001949382815194859201610111565b0190151560f81b81520190565b949192946109146107fb565b926000935b61092284610372565b851015610975578761096961096f9261057a61095a6109558a61094e610949828d8d61082e565b610854565b968d61082e565b61085e565b6040519485936020850161086e565b9461081f565b93610919565b9350955061016a9350610949906109959261098f81610372565b9161082e565b906109a8604051928392602084016108b4565b03906109bc601f19928381018352826102ce565b6109ce604051948592602084016108e5565b039081018352826102ce565b156109e157565b60405162461bcd60e51b8152602060048201526012602482015271746f426f6f6c5f6f75744f66426f756e647360701b6044820152606490fd5b15610a2257565b60405162461bcd60e51b8152602060048201526011602482015270496e76616c696420626f6f6c206461746160781b6044820152606490fd5b60018201808311610381578211610aa65760ff9181610a8760019351610a808461062d565b11156109da565b01015116610a986001821115610a1b565b610aa157600090565b600190565b60405162461bcd60e51b815260206004820152600f60248201526e746f426f6f6c5f6f766572666c6f7760881b6044820152606490fdfea26469706673582212204493a04709c943d20ddecee533bd05d67456ab31b29f65c62cb35bfd71a7bec964736f6c63430008130033",
    "linkReferences": {}
  },
  "methodIdentifiers": {
    "generateDataParam(address[],uint24[],bool)": "17d4d8c9",
    "getSpender()": "334fc289",
    "getTradeCalldata(address,address,address,uint256,uint256,bytes)": "e171fcab",
    "swapRouter()": "c31c9c07"
  },
  "id": 75
}