{
  "abi": [
    {
      "inputs": [
        {
          "internalType": "contract IController",
          "name": "_controller",
          "type": "address"
        }
      ],
      "stateMutability": "nonpayable",
      "type": "constructor"
    },
    {
      "anonymous": false,
      "inputs": [
        {
          "indexed": true,
          "internalType": "address",
          "name": "_setToken",
          "type": "address"
        },
        {
          "indexed": false,
          "internalType": "address",
          "name": "_manager",
          "type": "address"
        },
        {
          "indexed": false,
          "internalType": "string",
          "name": "_name",
          "type": "string"
        },
        {
          "indexed": false,
          "internalType": "string",
          "name": "_symbol",
          "type": "string"
        }
      ],
      "name": "SetTokenCreated",
      "type": "event"
    },
    {
      "inputs": [],
      "name": "controller",
      "outputs": [
        {
          "internalType": "contract IController",
          "name": "",
          "type": "address"
        }
      ],
      "stateMutability": "view",
      "type": "function"
    },
    {
      "inputs": [
        {
          "internalType": "address[]",
          "name": "_components",
          "type": "address[]"
        },
        {
          "internalType": "int256[]",
          "name": "_units",
          "type": "int256[]"
        },
        {
          "internalType": "address[]",
          "name": "_modules",
          "type": "address[]"
        },
        {
          "internalType": "address",
          "name": "_manager",
          "type": "address"
        },
        {
          "internalType": "string",
          "name": "_name",
          "type": "string"
        },
        {
          "internalType": "string",
          "name": "_symbol",
          "type": "string"
        }
      ],
      "name": "create",
      "outputs": [
        {
          "internalType": "address",
          "name": "",
          "type": "address"
        }
      ],
      "stateMutability": "nonpayable",
      "type": "function"
    }
  ],
  "bytecode": {
    "object": "0x60803461007457601f61452538819003918201601f19168301916001600160401b038311848410176100795780849260209460405283398101031261007457516001600160a01b0381169081900361007457600080546001600160a01b03191691909117905560405161449590816100908239f35b600080fd5b634e487b7160e01b600052604160045260246000fdfe608060405260043610156200001357600080fd5b60003560e01c8063a949dc3e14620000655763f77c4791146200003557600080fd5b346200006057600036600319011262000060576000546040516001600160a01b039091168152602090f35b600080fd5b34620000605760c0366003190112620000605767ffffffffffffffff60043581811162000060576200009c90369060040162000722565b90602435918183116200006057366023840112156200006057826004013592620000c68462000709565b90620000d66040519283620006e6565b848252602082016024819660051b830101913683116200006057602401905b828210620006d557505050604491823584811162000060576200011d90369060040162000722565b606495863592916001600160a01b03841684036200006057608493843588811162000060576200015290369060040162000799565b9760a43581811162000060576200016e90369060040162000799565b98855115620006925785518851036200063c576200018c86620008c7565b620005ee57835115620005ab576001600160a01b03831615620005685760005b865181101562000289576001600160a01b03620001ca82896200081b565b5116156200023c576000620001e0828b6200081b565b511315620001f957620001f390620007f5565b620001ac565b60405162461bcd60e51b815260206004820152601c60248201527f556e697473206d7573742062652067726561746572207468616e203000000000818c01528c90fd5b60405162461bcd60e51b815260206004820152602260248201527f436f6d706f6e656e74206d757374206e6f74206265206e756c6c206164647265818c015261737360f01b818e01528890fd5b50929550929597909360009660018060a01b0360005416975b875181101562000391576001600160a01b03620002c0828a6200081b565b516040516342f6e38960e01b8152911660048201526020816024818d5afa908115620003855760009162000343575b501562000307576200030190620007f5565b620002a2565b60405162461bcd60e51b81526020600482015260166024820152754d75737420626520656e61626c6564206d6f64756c6560501b818c01528c90fd5b90506020813d6020116200037c575b816200036160209383620006e6565b81010312620000605751801515810362000060578d620002ef565b3d915062000352565b6040513d6000823e3d90fd5b508790878b6040519485613aaa81011089613aaa880111176200053857906020620003d58796959493613aaa620009b6893960e0613aaa8901818152019062000846565b613aaa87018082039083015291518083529101929060005b8181106200054e57505050916200041d6200044c926200046394613aaa870182036040613aaa8901015262000846565b613aaa850160608101929092526001600160a01b038a16608083015281810360a0909201919091528662000885565b613aaa8301810360c0613aaa850101528462000885565b03906000f0801562000385576000546001600160a01b0391821694911690813b1562000060576000809260246040518095819363356037b560e21b83528a60048401525af18015620003855762000520575b602085807fb7b1e89d4bb640b93b0cb96b27077ceb558d073e00531c0a712a4afc9ccf06fe878a62000515896200050660405194859460018060a01b0316855260608a860152606085019062000885565b90838203604085015262000885565b0390a2604051908152f35b819391116200053857604092909252816020620004b5565b634e487b7160e01b600052604160045260246000fd5b8251855287965060209485019490920191600101620003ed565b60405162461bcd60e51b815260206004820152601960248201527f4d616e61676572206d757374206e6f7420626520656d70747900000000000000818b01528b90fd5b60405162461bcd60e51b815260206004820152601b60248201527f4d7573742068617665206174206c656173742031206d6f64756c650000000000818b01528b90fd5b60405162461bcd60e51b8152602060048201526024808201527f436f6d706f6e656e7473206d757374206e6f7420686176652061206475706c69818b0152636361746560e01b818d01528790fd5b60405162461bcd60e51b815260206004820152602b60248201527f436f6d706f6e656e7420616e6420756e6974206c656e67746873206d75737420818b01526a6265207468652073616d6560a81b818d01528790fd5b60405162461bcd60e51b815260206004820152601e60248201527f4d7573742068617665206174206c65617374203120636f6d706f6e656e740000818b01528b90fd5b8135815260209182019101620000f5565b90601f8019910116810190811067ffffffffffffffff8211176200053857604052565b67ffffffffffffffff8111620005385760051b60200190565b81601f8201121562000060578035916200073c8362000709565b926200074c6040519485620006e6565b808452602092838086019260051b82010192831162000060578301905b82821062000778575050505090565b81356001600160a01b03811681036200006057815290830190830162000769565b81601f82011215620000605780359067ffffffffffffffff8211620005385760405192620007d2601f8401601f191660200185620006e6565b828452602083830101116200006057816000926020809301838601378301015290565b6000198114620008055760010190565b634e487b7160e01b600052601160045260246000fd5b8051821015620008305760209160051b010190565b634e487b7160e01b600052603260045260246000fd5b90815180825260208080930193019160005b82811062000867575050505090565b83516001600160a01b03168552938101939281019260010162000858565b919082519283825260005b848110620008b2575050826000602080949584010152601f8019910116010190565b60208183018101518483018201520162000890565b805115620009835760005b8151600019810190811162000805578110156200097c576001600160a01b0380620008fe83856200081b565b5116906001918284019182851162000805578392935b6200092f575b505050506200092990620007f5565b620008d2565b9091929480518610156200097557816200094a87836200081b565b511683146200096c5762000960849596620007f5565b93929190959462000914565b50505091505090565b946200091a565b5050600090565b60405162461bcd60e51b815260206004820152600a6024820152694120697320656d70747960b01b6044820152606490fdfe60406080815234620005d55762003aaa90813803806200001f81620005eb565b93843982019060e083830312620005d55782516001600160401b038111620005d557826200004f9185016200063e565b60208401519093906001600160401b038111620005d55781019280601f85011215620005d5578351936200008d620000878662000611565b620005eb565b9460208087838152019160051b83010191838311620005d557602001905b828210620005da57505050818301516001600160401b038111620005d55781620000d79184016200063e565b6060830151909290916001600160a01b0383168303620005d557620000ff6080830162000629565b60a08301519092906001600160401b038111620005d5578262000124918301620006a5565b60c08201519092906001600160401b038111620005d557620001479201620006a5565b815190916001600160401b038211620003ab5760035490600182811c92168015620005ca575b6020831014620004bb5781601f84931162000577575b50602090601f8311600114620004e857600092620004dc575b50508160011b916000199060031b1c1916176003555b8051906001600160401b038211620003ab5760045490600182811c92168015620004d1575b6020831014620004bb5781601f8493116200045c575b50602090601f8311600114620003cd57600092620003c1575b50508160011b916000199060031b1c1916176004555b600580546001600160a01b039384166001600160a01b03199182161790915560068054929093169116179055670de0b6b3a7640000600d5583516001600160401b038111620003ab57680100000000000000008111620003ab57600b5481600b558082106200036d575b5060208501600b600052602060002060005b8381106200034f575050505060005b8151811015620002ef57620002e9906001600160a01b03620002ca828562000756565b5116600052600960205283600020600160ff1982541617905562000730565b620002a7565b50509160005b8151811015620003405780620003106200033a928562000756565b516001600160a01b0362000325838662000756565b5116600052600c602052856000205562000730565b620002f5565b83516133289081620007828239f35b82516001600160a01b03168183015560209092019160010162000298565b600b600052620003a4907f0175b7a638427703f0dbe7bb9bbf987a2551717b34e79f33b5b1008d1fa01db990810190830162000717565b3862000286565b634e487b7160e01b600052604160045260246000fd5b01519050388062000206565b6004600090815293507f8a35acfbc15ff81a39ae7d344fd709f28e8600b4aa8c65c6b64bfe7fe36bd19b91905b601f198416851062000440576001945083601f1981161062000426575b505050811b016004556200021c565b015160001960f88460031b161c1916905538808062000417565b81810151835560209485019460019093019290910190620003fa565b6004600052620004a9907f8a35acfbc15ff81a39ae7d344fd709f28e8600b4aa8c65c6b64bfe7fe36bd19b601f850160051c81019160208610620004b0575b601f0160051c019062000717565b38620001ed565b90915081906200049b565b634e487b7160e01b600052602260045260246000fd5b91607f1691620001d7565b0151905038806200019c565b6003600090815293507fc2575a0e9e593c00f959f8c92f12db2869c3395a3b0502d05e2516446f71f85b91905b601f19841685106200055b576001945083601f1981161062000541575b505050811b01600355620001b2565b015160001960f88460031b161c1916905538808062000532565b8181015183556020948501946001909301929091019062000515565b6003600052620005c3907fc2575a0e9e593c00f959f8c92f12db2869c3395a3b0502d05e2516446f71f85b601f850160051c81019160208610620004b057601f0160051c019062000717565b3862000183565b91607f16916200016d565b600080fd5b8151815260209182019101620000ab565b6040519190601f01601f191682016001600160401b03811183821017620003ab57604052565b6001600160401b038111620003ab5760051b60200190565b51906001600160a01b0382168203620005d557565b9080601f83011215620005d5578151906200065d620000878362000611565b9182938184526020808095019260051b820101928311620005d5578301905b8282106200068b575050505090565b838091620006998462000629565b8152019101906200067c565b919080601f84011215620005d55782516001600160401b038111620003ab57602090620006db601f8201601f19168301620005eb565b92818452828287010111620005d55760005b8181106200070357508260009394955001015290565b8581018301518482018401528201620006ed565b81811062000723575050565b6000815560010162000717565b6000198114620007405760010190565b634e487b7160e01b600052601160045260246000fd5b80518210156200076b5760209160051b010190565b634e487b7160e01b600052603260045260246000fdfe60806040818152600480361015610021575b505050361561001f57600080fd5b005b600092833560e01c90816306fdde031461252657508063095ea7b3146124fc5780630ffe0f1e1461241257806318160ddd146123f35780631ed86f191461226957806322ebeba41461220657806323b872dd1461213c57806326898fe114611f5b5780632ba57d1714611edf578063313ce56714611ec357806335bc4e5214611e695780633950935114611e1957806340c10f1914611d4b578063481c6a7514611d225780634e35327014611c3a5780635230c39614611c1b57806353bae5f714611bd257806363a90fc114611b3f57806366cb8d2f14611af65780636f86c897146119a657806370a082311461196f5780637d9665931461193e57806380275860146115a657806381b2248a146115625780638ae458da146115075780638f6f03321461131557806395d89b411461122f57806399d50d5d146112035780639dc29fac146110d2578063a063246114610e7a578063a457c2d714610dd4578063a4e2d63414610db0578063a69df4b514610cf5578063a7bdad0314610cc3578063a9059cbb14610c92578063acf3f07714610a8d578063b2494df314610a0d578063c2de0e9d146107a5578063c5d574fe14610765578063c7564017146106b8578063d0ebdbe714610633578063d7b96d4e1461060a578063d7f1b27c146105ab578063dd62ed3e1461055d578063df5e9b2914610523578063ea0ee55914610404578063eaf993e1146102f3578063f77c4791146102c65763f83d08ba0361001157346102c257826003193601126102c25761025d612fea565b600a549160ff831661028a57600780546001600160a01b0319163317905560ff198316600117600a558380f35b906020606492519162461bcd60e51b83528201526012602482015271135d5cdd081b9bdd081899481b1bd8dad95960721b6044820152fd5b8280fd5b5050346102ef57816003193601126102ef5760055490516001600160a01b039091168152602090f35b5080fd5b509190346102ef57602092836003193601126102c2576001600160a01b0392908361031c612637565b1693848352600c928387528481205461034061033b600d548093613235565b613258565b968083528589526001958694610362610369878b8820018b5192838092612d10565b0382612866565b85985b61037a575b8b8b8b51908152f35b90919293949596979981518b10156103fe57826103978c84612daa565b5116858852848d5260028b892001906000528c526103bc61033b878c60002054613235565b908782820192831291129080158216911516176103eb576103dd909a612d9b565b97969594939291908661036c565b634e487b7160e01b875260118952602487fd5b99610371565b50346102c257816003193601126102c25761041d612637565b90610426612652565b9061042f612fea565b610437613172565b6104498261044485612d56565b6131e5565b90506104e9576001600160a01b03928316808652600c602052938520600101805491600160401b8310156104d4575061048c82849260016104ab95018155612708565b90919082549060031b9160018060a01b03809116831b921b1916179055565b16907ff71324fa78e1894b364a1fc8d0535c4208f28c7b380f752afe00c8ce386023fb8380a380f35b604190634e487b7160e01b6000525260246000fd5b606490602085519162461bcd60e51b83528201526014602482015273135bd91d5b1948185b1c9958591e48185919195960621b6044820152fd5b5050346102ef5760203660031901126102ef57602090610553610544612637565b82516104448161036281612caa565b9151911515825250f35b5050346102ef57806003193601126102ef5760209161057a612637565b82610583612652565b6001600160a01b03928316845260018652922091166000908152908352819020549051908152f35b508234610607576020366003190112610607576001600160a01b036105ce612637565b168152600960205260ff83822054169160038310156105f4576020836002865191148152f35b634e487b7160e01b825260219052602490fd5b80fd5b5050346102ef57816003193601126102ef5760075490516001600160a01b039091168152602090f35b5050346102ef5760203660031901126102ef577f43fcfef38622d6a5b118be09c27a6ed8cbdbfca21f0ea9245412ce8031c0423c90610670612637565b610678613121565b61068760ff600a541615612c24565b600680546001600160a01b039283166001600160a01b0319821681179092558351918252919091166020820152a180f35b5090346102c25760203660031901126102c2576106d3612637565b6106db613121565b6106ea60ff600a541615612c24565b60018060a01b031691828452600960205260ff8285205416906003821015610752575060016107199114612c65565b81835260096020528220805460ff191690557fd6b18042563148f38d728c1c4d339ffd515b632d0ad2e1833b822412f3f4d8778280a280f35b634e487b7160e01b855260219052602484fd5b50346102c25760203660031901126102c2573591600b54831015610607575061078f602092612696565b905491519160018060a01b039160031b1c168152f35b508290346102ef57602090816003193601126102c2578035906107c6612fea565b6107ce613172565b600b5460001990855b8181106108c95750506001600160ff1b038111610875576107fc61033b848793613235565b131561083257507fc4e78b3245dc105eefced18655b978e194ff858545a1080f2888dc3b6ae8df0a929381600d5551908152a180f35b845162461bcd60e51b8152908101839052601860248201527f4e6577206d756c7469706c69657220746f6f20736d616c6c00000000000000006044820152606490fd5b855162461bcd60e51b8152808301859052602860248201527f53616665436173743a2076616c756520646f65736e27742066697420696e2061604482015267371034b73a191a9b60c11b6064820152608490fd5b6108d281612696565b90546001600160a01b0360039290921b1c8116808952600c8089528a8a20546108fa90612f9b565b80151580610a04575b6109fc575b50818a528852600191610362610927848d8d20018d5192838092612d10565b8a845b610942575b505050505061093d90612d9b565b6107d7565b81518110156109f757610987836109598385612daa565b51168560018060a01b03809116600052600c6020526002604060002001911660005260205260406000205490565b8c81126109c95761099790612f9b565b801515806109c0575b6109b6575b506109b08591612d9b565b9061092a565b97506109b06109a5565b508881106109a0565b600160ff1b81146109e4576109df908d03612f9b565b610997565b634e487b7160e01b8d5260118a5260248dfd5b61092f565b95508b610908565b50868110610903565b828434610607578060031936011261060757508051600880548083526000918252602080840194926000805160206132d383398151915292915b828210610a6d57610a698686610a5f828b0383612866565b5191829182612720565b0390f35b83546001600160a01b031687529586019560019384019390910190610a47565b508234610607578260031936011261060757610aa7612637565b610aaf612652565b90610ab8612fea565b610ac0613172565b60018060a01b0380911690818452600c602052600186852001610aed848851610444816103628187612d10565b610b2c57875162461bcd60e51b8152602081890152601560248201527420b2323932b9b9903737ba1034b71030b93930bc9760591b6044820152606490fd5b8793949596825460001992838201918211610c7d57908181879303610c35575b5050508254908115610c20575091600193918895930190610b85610b708383612708565b81549060018060a01b039060031b1b19169055565b55848452600c602052600282852001951694856000526020526000206000815501610bb08154612764565b80610bdf575b5050807f5d0275f68d583838a7e2be68e3ef8ac2c1f9d4eeaa4b223360f4cd093a160d7591a380f35b601f8111600114610bf9575060009150555b828480610bb6565b90806000918452610c19601f60208620940160051c840160018501612bf5565b5555610bf1565b603190634e487b7160e01b6000525260246000fd5b610c7592610c46610c509388612708565b9390549288612708565b92909360031b1c169082549060031b9160018060a01b03809116831b921b1916179055565b838980610b4c565b601183634e487b7160e01b6000525260246000fd5b5050346102ef57806003193601126102ef57602090610cbc610cb2612637565b60243590336128ab565b5160018152f35b5050346102ef5760203660031901126102ef57610a6990610cea610ce5612637565b612d56565b905191829182612720565b5090346102c257826003193601126102c257610d0f612fea565b600a549160ff831615610d7d5760075491336001600160a01b03841603610d495750506001600160a01b03191660075560ff1916600a5580f35b906020606492519162461bcd60e51b8352820152600e60248201526d26bab9ba103132903637b1b5b2b960911b6044820152fd5b6020606492519162461bcd60e51b8352820152600e60248201526d135d5cdd081899481b1bd8dad95960921b6044820152fd5b5050346102ef57816003193601126102ef5760209060ff600a541690519015158152f35b508234610607578260031936011261060757610dee612637565b91836024359233815260016020522060018060a01b038416600052602052836000205490828210610e2957602085610cbc8585038733612a19565b608490602086519162461bcd60e51b8352820152602560248201527f45524332303a2064656372656173656420616c6c6f77616e63652062656c6f77604482015264207a65726f60d81b6064820152fd5b5090346102c257602090816003193601126110ce57610e97612637565b610e9f613121565b610eae60ff600a541615612c24565b6001600160a01b0381811680875260098552838720549092919060ff1660038110156110bb5760020361108157823b1561107d57835163847ef08d60e01b81528781888183885af1801561107357611045575b508287526009855283872060ff1981541690558351918286600854948581520160086000526000805160206132d383398151915260005b8987821061102f575050509061044481610f5494930382612866565b610f9357845162461bcd60e51b8152808801879052601560248201527420b2323932b9b9903737ba1034b71030b93930bc9760591b6044820152606490fd5b8794509086916000199384810190811161101a57808203610ff4575b505050600854908115610c20575001610fca610b70826126e3565b6008557f0a1ee69f55c33d8467c69ca59ce2007a737a88603d75392972520bf67cb513b88280a280f35b6110129261100461048c926126e3565b90549060031b1c16916126e3565b848080610faf565b601184634e487b7160e01b6000525260246000fd5b8254871684529092019160019182019101610f38565b67ffffffffffffffff81989298116110605784529538610f01565b634e487b7160e01b825260418752602482fd5b85513d8a823e3d90fd5b8680fd5b835162461bcd60e51b81528087018690526014602482015273135bd91d5b19481b5d5cdd08189948185919195960621b6044820152606490fd5b634e487b7160e01b885260218752602488fd5b8380fd5b508290346102ef57826003193601126102ef576110ed612637565b602435906110f9612fea565b611101613172565b6001600160a01b03169182156111b65782845283602052848420549082821061116857508184957fddf252ad1be2c89b69c2b068fc378daa952ba7f163c4a11628f55a4df523b3ef936020938688528785520381872055816002540360025551908152a380f35b608490602087519162461bcd60e51b8352820152602260248201527f45524332303a206275726e20616d6f756e7420657863656564732062616c616e604482015261636560f01b6064820152fd5b608490602086519162461bcd60e51b8352820152602160248201527f45524332303a206275726e2066726f6d20746865207a65726f206164647265736044820152607360f81b6064820152fd5b5050346102ef57816003193601126102ef578051610a6991610a5f8261122881612caa565b0383612866565b5090346102c257826003193601126102c2578051918381549061125182612764565b808652926001928084169081156112ea575060011461128e575b610a69868661127c828b0383612866565b519182916020835260208301906125f7565b815294507f8a35acfbc15ff81a39ae7d344fd709f28e8600b4aa8c65c6b64bfe7fe36bd19b5b8286106112d25750505061127c826020610a6995820101943861126b565b805460208787018101919091529095019481016112b4565b9050610a6997508693506020925061127c94915060ff191682840152151560051b820101943861126b565b50346102c25760603660031901126102c25761132f612637565b916024356044359367ffffffffffffffff9485811161107d576113559036908601612668565b959096611360612fea565b611368613172565b61137187612b1b565b9561137e86519788612866565b87875260209687810191368a8c01116110ce57898b843783898b840101528751946060860190868210908211176114f4578852602985527f416464726573733a206c6f772d6c6576656c2063616c6c20776974682076616c89860152681d594819985a5b195960ba1b888601528647106114a25750928280610a69999a9b94611456947f2a936dbabeaea30adc1ddad138b1958497988474bef8b09a29411f0105ab8ab29751908a8a5af13d15611499573d61143981612b1b565b906114468b519283612866565b815280928c3d92013e5b86612b58565b9761148761146e875193849389855289850191612b37565b8281038a8401526001600160a01b03909516948a6125f7565b0390a3519282849384528301906125f7565b60609150611450565b875162461bcd60e51b8152908101899052602660248201527f416464726573733a20696e73756666696369656e742062616c616e636520666f6044820152651c8818d85b1b60d21b6064820152608490fd5b634e487b7160e01b855260418252602485fd5b5050346102ef57806003193601126102ef578061127c600161122893610a699561152f612637565b611537612652565b90848060a01b038091168352600c60205260028484200191168252602052200182519384809261279e565b50346102c25760203660031901126102c257356008548110156102c25760086020935260018060a01b03906000805160206132d38339815191520154169051908152f35b508290346102ef57816003193601126102ef57819082600b54905b8181106118ba57506115d283612d83565b926115df86519485612866565b8084526115ee601f1991612d83565b01845b8181106118875750509083908490600d54915b8481106116a557878787825191602080840190808552835180925285850181878460051b880101950193965b83881061163d5786860387f35b90919293948380611694600193603f198b82030187528951858060a01b038082511683528482015116848301528681015187830152606060ff8183015116908301526080809101519160a0809282015201906125f7565b970193019701969093929193611630565b87876116b083612696565b9060018060a01b03918291549060031b1c1690818352600c90602090828252858520548581136117f9575b508385528282526116fe8c600197876117058a83819b2001835195868092612d10565b0385612866565b80995b611725575b5050505050505050505061172090612d9b565b611604565b898495969798999a9e945111156117f157926117db818f948f9b6116fe8c8f9e978f98849f9e9d9c9b6117e19a8f8f928f916117e79f9461176a6117ab968995612daa565b5116958a835288825261178f61033b60029283878720018a8752855286862054613235565b988b84528252838320019086835252200183519586809261279e565b8151946117b786612834565b85528d8501528301528d606083015260808201526117d58383612daa565b52612daa565b50612d9b565b9b612d9b565b968f8f8f92611708565b839d5061170d565b61180f9294965061033b919a9395508990613235565b8c519061181b82612834565b8582528c848301528d8201528b60608201528c5183810181811067ffffffffffffffff82111761187457926117db8f9795938f97958f909161186d9585938c528a815260808201526117d58383612daa565b988e6116db565b634e487b7160e01b8e526041895260248efd5b602090875161189581612834565b878152828881830152888a8301526060898184015260808301528288010152016115f1565b6118c381612696565b60018060a01b0391549060031b1c16808652600c9060209082825287898120541361192e575b875252610362611903600188882001885192838092612d10565b5180611919575b5061191490612d9b565b6115c1565b611927906119149295612888565b939061190a565b9561193890612d9b565b956118e9565b5050346102ef57806003193601126102ef5760209061055361195e612637565b610444611969612652565b91612d56565b5050346102ef5760203660031901126102ef5760209181906001600160a01b03611997612637565b16815280845220549051908152f35b508234610607576020366003190112610607576119c1612637565b6119c9612fea565b6119d1613172565b6119e48185516104448161036281612caa565b611a2357845162461bcd60e51b8152602081860152601560248201527420b2323932b9b9903737ba1034b71030b93930bc9760591b6044820152606490fd5b83600b5460001992838201918211611ae357818103611a9d575b5050600b54908115611a8a575001611a57610b7082612696565b600b556001600160a01b03167fc605d0bf97f9b921340106a2e59f9428d5eb9039b16866159e0cdd2bf8e963df8280a280f35b634e487b7160e01b855260319052602484fd5b611ab5611aac611adc93612696565b91905492612696565b81546001600160a01b03600392831b81811b199092169490921b9490941c1690921b179055565b8480611a3d565b634e487b7160e01b865260118352602486fd5b5050346102ef5760203660031901126102ef57602091611b389061033b9083906001600160a01b03611b26612637565b168152600c86522054600d5490613235565b9051908152f35b5050346102ef5760603660031901126102ef57611b5a612637565b7f81a422e27f503e1b92cdb616a6e653aac10a8e0c3fa6832a58dc616c080fd7bd6020611b85612652565b9360443590611b92612fea565b611b9a613172565b611ba382612dbe565b6001600160a01b03958616808952600c855282892097909616808952600290970184528188205551908152a380f35b508234610607576020366003190112610607576001600160a01b03611bf5612637565b168152600960205260ff83822054169160038310156105f4576020836001865191148152f35b5050346102ef57816003193601126102ef57602090600d549051908152f35b50346102c25760203660031901126102c257611c54612637565b91611c5d612fea565b611c65613172565b611c788382516104448161036281612caa565b9050611ce75750600b5490600160401b821015611cd457508161048c826001611ca49401600b55612696565b6001600160a01b03167f76da6cf8b40dd2b2c223a5956831e0ff4e75522538a86782108a0bbe1577e2988280a280f35b634e487b7160e01b845260419052602483fd5b906020606492519162461bcd60e51b83528201526015602482015274135d5cdd081b9bdd0818994818dbdb5c1bdb995b9d605a1b6044820152fd5b5050346102ef57816003193601126102ef5760065490516001600160a01b039091168152602090f35b5090346102c257806003193601126102c257611d65612637565b9060243591611d72612fea565b611d7a613172565b6001600160a01b0316928315611dd757506020827fddf252ad1be2c89b69c2b068fc378daa952ba7f163c4a11628f55a4df523b3ef92611dbd8795600254612888565b60025585855284835280852082815401905551908152a380f35b6020606492519162461bcd60e51b8352820152601f60248201527f45524332303a206d696e7420746f20746865207a65726f2061646472657373006044820152fd5b5050346102ef57806003193601126102ef57610cbc602092611e62611e3c612637565b338352600186528483206001600160a01b03821684528652918490205460243590612888565b9033612a19565b509190346102ef5760203660031901126102ef576001600160a01b03611e8d612637565b168252600960205260ff81832054169051916003821015611eb057602083838152f35b634e487b7160e01b815260218452602490fd5b5050346102ef57816003193601126102ef576020905160128152f35b5050346102ef57806003193601126102ef577f8133e2bf34edab764b55c59d1d41f9df637e7c22828bb6b0a9d55b429d008a976020611f1c612637565b9260243590611f29612fea565b611f31613172565b611f3a82612dbe565b6001600160a01b03909516808752600c84528187209590955551908152a280f35b50346102c25760603660031901126102c257611f75612637565b91611f7e612652565b9267ffffffffffffffff60443581811161107d57611f9f9036908601612668565b939091611faa612fea565b611fb2613172565b60018060a01b0380941695868952602094600c86526002848b2001981697888a52855260019081848b20019287116121295750611fef8254612764565b601f81116120f0575b5088601f871160011461206a5791868061205995937fb373eedb8e9038a2dcba31f06b2735887c1a904125e5c9f0021ba41ed972318e999897958d9361205f575b501b906000198860031b1c19161790555b51938385948552840191612b37565b0390a380f35b860135925038612039565b828a52858a2090601f1988168b5b8181106120db575091612059959391897fb373eedb8e9038a2dcba31f06b2735887c1a904125e5c9f0021ba41ed972318e9a99989694106120c1575b505086811b01905561204a565b85013560001960038a901b60f8161c1916905538806120b4565b87830135845592840192918801918801612078565b61211990838b52868b20601f890160051c810191888a1061211f575b601f0160051c0190612bf5565b38611ff8565b909150819061210c565b634e487b7160e01b8a5260419052602489fd5b508290346102ef5760603660031901126102ef57612158612637565b612160612652565b91846044359460018060a01b03841681526001602052818120338252602052205490600019820361219a575b602086610cbc8787876128ab565b8482106121c357509183916121b860209695610cbc95033383612a19565b91939481935061218c565b606490602087519162461bcd60e51b8352820152601d60248201527f45524332303a20696e73756666696369656e7420616c6c6f77616e63650000006044820152fd5b5050346102ef57806003193601126102ef57602090611b3861033b61226061222c612637565b612234612652565b9060018060a01b03809116600052600c6020526002604060002001911660005260205260406000205490565b600d5490613235565b5090346102c2576020806003193601126110ce57612285612637565b9261228e613121565b6001600160a01b03938416808652600983528386205490949060ff1660038110156123e05761239e5782602491600554168551928380926342f6e38960e01b825289878301525afa908115612394578691612367575b50156123265750828452600990528220805460ff191660011790557fead6a006345da1073a106d5f32372d2d2204f46cb0b4bca8f5ebafcbbed12b8a8280a280f35b915162461bcd60e51b815291820152601d60248201527f4d75737420626520656e61626c6564206f6e20436f6e74726f6c6c65720000006044820152606490fd5b6123879150833d851161238d575b61237f8183612866565b810190612c0c565b386122e4565b503d612375565b84513d88823e3d90fd5b50915162461bcd60e51b815291820152601860248201527f4d6f64756c65206d757374206e6f7420626520616464656400000000000000006044820152606490fd5b634e487b7160e01b875260218352602487fd5b5050346102ef57816003193601126102ef576020906002549051908152f35b5090346102c257826003193601126102c25761243360ff600a541615612c24565b338352600960205260ff818420541660038110156124e95760016124579114612c65565b33835260096020528220805460ff1916600217905560085490600160401b8210156124d657506124908160016124ae93016008556126e3565b81546001600160a01b0360039290921b91821b19163390911b179055565b337f27b541a16df0902e262f34789782092ab25125513b8ed73608e802951771b9288280a280f35b634e487b7160e01b835260419052602482fd5b634e487b7160e01b845260218352602484fd5b5050346102ef57806003193601126102ef57602090610cbc61251c612637565b6024359033612a19565b849084346102c257826003193601126102c2578260035461254681612764565b808552916001918083169081156125cf5750600114612572575b50505061127c82610a69940383612866565b9450600385527fc2575a0e9e593c00f959f8c92f12db2869c3395a3b0502d05e2516446f71f85b5b8286106125b75750505061127c826020610a699582010194612560565b8054602087870181019190915290950194810161259a565b610a6997508693506020925061127c94915060ff191682840152151560051b82010194612560565b919082519283825260005b848110612623575050826000602080949584010152601f8019910116010190565b602081830181015184830182015201612602565b600435906001600160a01b038216820361264d57565b600080fd5b602435906001600160a01b038216820361264d57565b9181601f8401121561264d5782359167ffffffffffffffff831161264d576020838186019501011161264d57565b600b548110156126cd57600b6000527f0175b7a638427703f0dbe7bb9bbf987a2551717b34e79f33b5b1008d1fa01db90190600090565b634e487b7160e01b600052603260045260246000fd5b6008548110156126cd5760086000526000805160206132d38339815191520190600090565b80548210156126cd5760005260206000200190600090565b6020908160408183019282815285518094520193019160005b828110612747575050505090565b83516001600160a01b031685529381019392810192600101612739565b90600182811c92168015612794575b602083101461277e57565b634e487b7160e01b600052602260045260246000fd5b91607f1691612773565b90600092918054916127af83612764565b91828252600193848116908160001461281157506001146127d1575b50505050565b90919394506000526020928360002092846000945b8386106127fd5750505050010190388080806127cb565b8054858701830152940193859082016127e6565b9294505050602093945060ff191683830152151560051b010190388080806127cb565b60a0810190811067ffffffffffffffff82111761285057604052565b634e487b7160e01b600052604160045260246000fd5b90601f8019910116810190811067ffffffffffffffff82111761285057604052565b9190820180921161289557565b634e487b7160e01b600052601160045260246000fd5b6001600160a01b039081169182156129c657169182156129755760008281528060205260408120549180831061292157604082827fddf252ad1be2c89b69c2b068fc378daa952ba7f163c4a11628f55a4df523b3ef958760209652828652038282205586815220818154019055604051908152a3565b60405162461bcd60e51b815260206004820152602660248201527f45524332303a207472616e7366657220616d6f756e7420657863656564732062604482015265616c616e636560d01b6064820152608490fd5b60405162461bcd60e51b815260206004820152602360248201527f45524332303a207472616e7366657220746f20746865207a65726f206164647260448201526265737360e81b6064820152608490fd5b60405162461bcd60e51b815260206004820152602560248201527f45524332303a207472616e736665722066726f6d20746865207a65726f206164604482015264647265737360d81b6064820152608490fd5b6001600160a01b03908116918215612aca5716918215612a7a5760207f8c5be1e5ebec7d5bd14f71427d1e84f3dd0314c0f7b2291e5b200ac8c7c3b925918360005260018252604060002085600052825280604060002055604051908152a3565b60405162461bcd60e51b815260206004820152602260248201527f45524332303a20617070726f766520746f20746865207a65726f206164647265604482015261737360f01b6064820152608490fd5b60405162461bcd60e51b8152602060048201526024808201527f45524332303a20617070726f76652066726f6d20746865207a65726f206164646044820152637265737360e01b6064820152608490fd5b67ffffffffffffffff811161285057601f01601f191660200190565b908060209392818452848401376000828201840152601f01601f1916010190565b91929015612bba5750815115612b6c575090565b3b15612b755790565b60405162461bcd60e51b815260206004820152601d60248201527f416464726573733a2063616c6c20746f206e6f6e2d636f6e74726163740000006044820152606490fd5b825190915015612bcd5750805190602001fd5b60405162461bcd60e51b815260206004820152908190612bf19060248301906125f7565b0390fd5b818110612c00575050565b60008155600101612bf5565b9081602091031261264d5751801515810361264d5790565b15612c2b57565b60405162461bcd60e51b815260206004820152601260248201527113db9b1e481dda195b881d5b9b1bd8dad95960721b6044820152606490fd5b15612c6c57565b60405162461bcd60e51b81526020600482015260166024820152754d6f64756c65206d7573742062652070656e64696e6760501b6044820152606490fd5b600b5490818152602080910191600b6000527f0175b7a638427703f0dbe7bb9bbf987a2551717b34e79f33b5b1008d1fa01db9916000905b828210612cf0575050505090565b83546001600160a01b031685529384019360019384019390910190612ce2565b90815480825260208092019260005281600020916000905b828210612d36575050505090565b83546001600160a01b031685529384019360019384019390910190612d28565b60018060a01b0316600052600c602052610362612d80600160406000200160405192838092612d10565b90565b67ffffffffffffffff81116128505760051b60200190565b60001981146128955760010190565b80518210156126cd5760209160051b010190565b600d54670de0b6b3a764000091828102928184051481151715612895578115612f6357600160ff1b8314801581612f57575b15612f225760001990838214166128955782840593836000818318129182612f16575b5050612f00575b50600012908180612ef8575b612ea35781612e8d575b50612e385790565b60405162461bcd60e51b815260206004820152602760248201527f5669727475616c20746f205265616c20756e697420636f6e76657273696f6e206044820152661a5b9d985b1a5960ca1b6064820152608490fd5b612e9c915061033b9083613235565b1538612e30565b60405162461bcd60e51b815260206004820152602760248201527f5265616c20746f205669727475616c20756e697420636f6e76657273696f6e206044820152661a5b9d985b1a5960ca1b6064820152608490fd5b508215612e26565b8391930190811360011661289557916000612e1a565b07151590508338612e13565b60405162461bcd60e51b815260206004820152600d60248201526c125b9d985b1a59081a5b9c1d5d609a1b6044820152606490fd5b50600019831415612df0565b60405162461bcd60e51b815260206004820152601060248201526f043616e742064697669646520627920360841b6044820152606490fd5b60008112612fa65790565b606460405162461bcd60e51b815260206004820152602060248201527f53616665436173743a2076616c7565206d75737420626520706f7369746976656044820152fd5b60003381526020906009825260ff604082205416600381101561310d576002036130c8576005546040516342f6e38960e01b8152336004820152908390829060249082906001600160a01b03165afa9182156130bc579161309f575b501561304f5750565b6084906040519062461bcd60e51b825260048201526024808201527f4d6f64756c65206d75737420626520656e61626c6564206f6e20636f6e74726f604482015263363632b960e11b6064820152fd5b6130b69150823d841161238d5761237f8183612866565b38613046565b604051903d90823e3d90fd5b60405162461bcd60e51b815260048101839052601860248201527f4f6e6c7920746865206d6f64756c652063616e2063616c6c00000000000000006044820152606490fd5b634e487b7160e01b82526021600452602482fd5b6006546001600160a01b0316330361313557565b60405162461bcd60e51b815260206004820152601560248201527413db9b1e481b585b9859d95c8818d85b8818d85b1b605a1b6044820152606490fd5b60ff600a541661317e57565b6007546001600160a01b0316330361319257565b60405162461bcd60e51b815260206004820152602560248201527f5768656e206c6f636b65642c206f6e6c7920746865206c6f636b65722063616e6044820152640818d85b1b60da1b6064820152608490fd5b9081519160005b838110613200575050505060001990600090565b6001600160a01b03806132138385612daa565b51169084161461322b5761322690612d9b565b6131ec565b9250505090600190565b818102929160008212600160ff1b82141661289557818405149015171561289557565b6000600160ff1b82148015906132ca575b15612f2257670de0b6b3a76400008083059260008282181291826132b9575b5050613292575090565b60001982019182136001166132a5575090565b634e487b7160e01b81526011600452602490fd5b915091506000910715153880613288565b50600161326956fef3f7a9fe364faab93b216da50a3214154f22a0a2b415b23a84c8169e8b636ee3a2646970667358221220880170f4587c2e2a5fae7436efc1cba0a1e85dbb28bc3c5cb8e8f909724123e264736f6c63430008130033a2646970667358221220c8009401a0d44c7116f5aaa16507b64157d466676bc5ee9662929f14dea3c47164736f6c63430008130033",
    "linkReferences": {}
  },
  "methodIdentifiers": {
    "controller()": "f77c4791",
    "create(address[],int256[],address[],address,string,string)": "a949dc3e"
  },
  "id": 41
}