{
  "abi": [
    {
      "inputs": [],
      "stateMutability": "nonpayable",
      "type": "constructor"
    },
    {
      "anonymous": false,
      "inputs": [
        {
          "indexed": true,
          "internalType": "address",
          "name": "owner",
          "type": "address"
        },
        {
          "indexed": true,
          "internalType": "address",
          "name": "approved",
          "type": "address"
        },
        {
          "indexed": true,
          "internalType": "uint256",
          "name": "tokenId",
          "type": "uint256"
        }
      ],
      "name": "Approval",
      "type": "event"
    },
    {
      "anonymous": false,
      "inputs": [
        {
          "indexed": true,
          "internalType": "address",
          "name": "owner",
          "type": "address"
        },
        {
          "indexed": true,
          "internalType": "address",
          "name": "operator",
          "type": "address"
        },
        {
          "indexed": false,
          "internalType": "bool",
          "name": "approved",
          "type": "bool"
        }
      ],
      "name": "ApprovalForAll",
      "type": "event"
    },
    {
      "anonymous": false,
      "inputs": [
        {
          "indexed": false,
          "internalType": "uint256",
          "name": "_fromTokenId",
          "type": "uint256"
        },
        {
          "indexed": false,
          "internalType": "uint256",
          "name": "_toTokenId",
          "type": "uint256"
        }
      ],
      "name": "BatchMetadataUpdate",
      "type": "event"
    },
    {
      "anonymous": false,
      "inputs": [
        {
          "indexed": false,
          "internalType": "uint256",
          "name": "_tokenId",
          "type": "uint256"
        }
      ],
      "name": "MetadataUpdate",
      "type": "event"
    },
    {
      "anonymous": false,
      "inputs": [
        {
          "indexed": true,
          "internalType": "address",
          "name": "previousOwner",
          "type": "address"
        },
        {
          "indexed": true,
          "internalType": "address",
          "name": "newOwner",
          "type": "address"
        }
      ],
      "name": "OwnershipTransferred",
      "type": "event"
    },
    {
      "anonymous": false,
      "inputs": [
        {
          "indexed": true,
          "internalType": "address",
          "name": "from",
          "type": "address"
        },
        {
          "indexed": true,
          "internalType": "address",
          "name": "to",
          "type": "address"
        },
        {
          "indexed": true,
          "internalType": "uint256",
          "name": "tokenId",
          "type": "uint256"
        }
      ],
      "name": "Transfer",
      "type": "event"
    },
    {
      "inputs": [
        {
          "internalType": "address",
          "name": "to",
          "type": "address"
        },
        {
          "internalType": "uint256",
          "name": "tokenId",
          "type": "uint256"
        }
      ],
      "name": "approve",
      "outputs": [],
      "stateMutability": "nonpayable",
      "type": "function"
    },
    {
      "inputs": [
        {
          "internalType": "address",
          "name": "owner",
          "type": "address"
        }
      ],
      "name": "balanceOf",
      "outputs": [
        {
          "internalType": "uint256",
          "name": "",
          "type": "uint256"
        }
      ],
      "stateMutability": "view",
      "type": "function"
    },
    {
      "inputs": [
        {
          "internalType": "uint256",
          "name": "tokenId",
          "type": "uint256"
        }
      ],
      "name": "getApproved",
      "outputs": [
        {
          "internalType": "address",
          "name": "",
          "type": "address"
        }
      ],
      "stateMutability": "view",
      "type": "function"
    },
    {
      "inputs": [
        {
          "internalType": "address",
          "name": "owner",
          "type": "address"
        },
        {
          "internalType": "address",
          "name": "operator",
          "type": "address"
        }
      ],
      "name": "isApprovedForAll",
      "outputs": [
        {
          "internalType": "bool",
          "name": "",
          "type": "bool"
        }
      ],
      "stateMutability": "view",
      "type": "function"
    },
    {
      "inputs": [
        {
          "internalType": "address",
          "name": "to",
          "type": "address"
        }
      ],
      "name": "mint",
      "outputs": [],
      "stateMutability": "nonpayable",
      "type": "function"
    },
    {
      "inputs": [],
      "name": "name",
      "outputs": [
        {
          "internalType": "string",
          "name": "",
          "type": "string"
        }
      ],
      "stateMutability": "view",
      "type": "function"
    },
    {
      "inputs": [],
      "name": "owner",
      "outputs": [
        {
          "internalType": "address",
          "name": "",
          "type": "address"
        }
      ],
      "stateMutability": "view",
      "type": "function"
    },
    {
      "inputs": [
        {
          "internalType": "uint256",
          "name": "tokenId",
          "type": "uint256"
        }
      ],
      "name": "ownerOf",
      "outputs": [
        {
          "internalType": "address",
          "name": "",
          "type": "address"
        }
      ],
      "stateMutability": "view",
      "type": "function"
    },
    {
      "inputs": [],
      "name": "renounceOwnership",
      "outputs": [],
      "stateMutability": "nonpayable",
      "type": "function"
    },
    {
      "inputs": [
        {
          "internalType": "address",
          "name": "from",
          "type": "address"
        },
        {
          "internalType": "address",
          "name": "to",
          "type": "address"
        },
        {
          "internalType": "uint256",
          "name": "tokenId",
          "type": "uint256"
        }
      ],
      "name": "safeTransferFrom",
      "outputs": [],
      "stateMutability": "nonpayable",
      "type": "function"
    },
    {
      "inputs": [
        {
          "internalType": "address",
          "name": "from",
          "type": "address"
        },
        {
          "internalType": "address",
          "name": "to",
          "type": "address"
        },
        {
          "internalType": "uint256",
          "name": "tokenId",
          "type": "uint256"
        },
        {
          "internalType": "bytes",
          "name": "data",
          "type": "bytes"
        }
      ],
      "name": "safeTransferFrom",
      "outputs": [],
      "stateMutability": "nonpayable",
      "type": "function"
    },
    {
      "inputs": [
        {
          "internalType": "address",
          "name": "operator",
          "type": "address"
        },
        {
          "internalType": "bool",
          "name": "approved",
          "type": "bool"
        }
      ],
      "name": "setApprovalForAll",
      "outputs": [],
      "stateMutability": "nonpayable",
      "type": "function"
    },
    {
      "inputs": [
        {
          "internalType": "bytes4",
          "name": "interfaceId",
          "type": "bytes4"
        }
      ],
      "name": "supportsInterface",
      "outputs": [
        {
          "internalType": "bool",
          "name": "",
          "type": "bool"
        }
      ],
      "stateMutability": "view",
      "type": "function"
    },
    {
      "inputs": [],
      "name": "symbol",
      "outputs": [
        {
          "internalType": "string",
          "name": "",
          "type": "string"
        }
      ],
      "stateMutability": "view",
      "type": "function"
    },
    {
      "inputs": [
        {
          "internalType": "uint256",
          "name": "tokenId",
          "type": "uint256"
        }
      ],
      "name": "tokenURI",
      "outputs": [
        {
          "internalType": "string",
          "name": "",
          "type": "string"
        }
      ],
      "stateMutability": "view",
      "type": "function"
    },
    {
      "inputs": [
        {
          "internalType": "address",
          "name": "from",
          "type": "address"
        },
        {
          "internalType": "address",
          "name": "to",
          "type": "address"
        },
        {
          "internalType": "uint256",
          "name": "tokenId",
          "type": "uint256"
        }
      ],
      "name": "transferFrom",
      "outputs": [],
      "stateMutability": "nonpayable",
      "type": "function"
    },
    {
      "inputs": [
        {
          "internalType": "address",
          "name": "newOwner",
          "type": "address"
        }
      ],
      "name": "transferOwnership",
      "outputs": [],
      "stateMutability": "nonpayable",
      "type": "function"
    }
  ],
  "bytecode": {
    "object": "0x60803462000353576001600160401b03906040818101838111838210176200033d5781526005825260209164135e53919560da1b83820152815193828501858110828211176200033d57835260048552631353919560e21b8486015281518181116200033d576000948554916001948584811c9416801562000332575b838510146200031e578190601f94858111620002cb575b508390858311600114620002675789926200025b575b5050600019600383901b1c191690851b1786555b8651928311620002475783548481811c911680156200023c575b828210146200022857828111620001e0575b5080918311600114620001795750849582939495926200016d575b5050600019600383901b1c191690821b1790555b60078054336001600160a01b03198216811790925591519290916001600160a01b0316907f8be0079c531659141344cd1fd0a4f28419497f9722a3daafe3b4186f6b6457e09080a36114bc9081620003598239f35b01519050388062000104565b90601f198316968487528287209287905b898210620001c8575050838596979810620001ae575b505050811b01905562000118565b015160001960f88460031b161c19169055388080620001a0565b8087859682949686015181550195019301906200018a565b8487528187208380860160051c8201928487106200021e575b0160051c019085905b82811062000212575050620000e9565b88815501859062000202565b92508192620001f9565b634e487b7160e01b87526022600452602487fd5b90607f1690620000d7565b634e487b7160e01b86526041600452602486fd5b015190503880620000a9565b898052848a208894509190601f1984168b5b87828210620002b457505084116200029a575b505050811b018655620000bd565b015160001960f88460031b161c191690553880806200028c565b8385015186558b9790950194938401930162000279565b9091508880528389208580850160051c82019286861062000314575b918991869594930160051c01915b8281106200030557505062000093565b8b8155859450899101620002f5565b92508192620002e7565b634e487b7160e01b88526022600452602488fd5b93607f16936200007c565b634e487b7160e01b600052604160045260246000fd5b600080fdfe6080604081815260048036101561001557600080fd5b600092833560e01c90816301ffc9a714610d035750806306fdde0314610c5b578063081812fc14610c3b578063095ea7b314610ace57806323b872dd14610aa957806342842e0e14610a755780636352211e14610a445780636a6278421461068b57806370a08231146105f5578063715018a6146105985780638da5cb5b1461056f57806395d89b411461048c578063a22cb465146103bd578063b88d4fde14610307578063c87b56dd146101f9578063e985e9c5146101a75763f2fde38b146100de57600080fd5b346101a35760203660031901126101a3576100f7610dc9565b90610100610e9f565b6001600160a01b03918216928315610151575050600754826001600160601b0360a01b821617600755167f8be0079c531659141344cd1fd0a4f28419497f9722a3daafe3b4186f6b6457e08380a380f35b906020608492519162461bcd60e51b8352820152602660248201527f4f776e61626c653a206e6577206f776e657220697320746865207a65726f206160448201526564647265737360d01b6064820152fd5b8280fd5b5050346101f557806003193601126101f55760ff816020936101c7610dc9565b6101cf610de4565b6001600160a01b0391821683526005875283832091168252855220549151911615158152f35b5080fd5b5090346101a357602091826003193601126103035735600081815260026020526040902054610232906001600160a01b03161515610ef7565b83526006825280832092815180948290805461024d81610f69565b918285526001918883821691826000146102dc57505060011461029e575b50505061029a93929161027f910386610e61565b815161028a81610e2f565b5251928284938452830190610d89565b0390f35b8552868520879350859291905b8284106102c4575050508201018161027f61029a61026b565b8054848b0186015289955088949093019281016102ab565b60ff19168782015293151560051b8601909301935084925061027f915061029a905061026b565b8380fd5b5090346101a35760803660031901126101a357610322610dc9565b9061032b610de4565b604435906064359467ffffffffffffffff86116103b957366023870112156103b9578501359361036661035d86610e83565b94519485610e61565b8484528636602487890101116103b6576020866103ae9760246103b39a01838901378601015261039e61039984336110ba565b610fe1565b6103a9838383611182565b6113af565b611096565b80f35b80fd5b8680fd5b5090346101a357806003193601126101a3576103d7610dc9565b9060243591821515809303610488576001600160a01b0316923384146104465750338452600560205280842083855260205280842060ff1981541660ff8416179055519081527f17307eab39ab6107e8899845ad3d59bd9653f200f220920489ca2b5937696c3160203392a380f35b6020606492519162461bcd60e51b8352820152601960248201527f4552433732313a20617070726f766520746f2063616c6c6572000000000000006044820152fd5b8480fd5b5050346101f557816003193601126101f5578051908260018054916104b083610f69565b8086529282811690811561054757506001146104eb575b5050506104d98261029a940383610e61565b51918291602083526020830190610d89565b94508085527fb10e2d527612073b26eecdfd717e6a320cf44b4afac2b0732d9fcbe2b7fa0cf65b82861061052f575050506104d982602061029a95820101946104c7565b80546020878701810191909152909501948101610512565b61029a9750869350602092506104d994915060ff191682840152151560051b820101946104c7565b5050346101f557816003193601126101f55760075490516001600160a01b039091168152602090f35b83346103b657806003193601126103b6576105b1610e9f565b600780546001600160a01b0319811690915581906001600160a01b03167f8be0079c531659141344cd1fd0a4f28419497f9722a3daafe3b4186f6b6457e08280a380f35b508290346101f55760203660031901126101f5576001600160a01b03610619610dc9565b169081156106365760208480858581526003845220549051908152f35b608490602085519162461bcd60e51b8352820152602960248201527f4552433732313a2061646472657373207a65726f206973206e6f7420612076616044820152683634b21037bbb732b960b91b6064820152fd5b509190346101f5576020806003193601126101a3576106a8610dc9565b916106b1610e9f565b6008548151906106c082610e2f565b8582526001600160a01b038516948515610a03579181610783936107056106ff6103ae95600052600260205260018060a01b0360406000205416151590565b1561143a565b600082815260026020526040902054610728906001600160a01b031615156106ff565b8789526003875281868a20986001998a8154019055818b5260028952878b20816001600160601b0360a01b8254161790558a7fddf252ad1be2c89b69c2b068fc378daa952ba7f163c4a11628f55a4df523b3ef8180a4611293565b600854908051956080870167ffffffffffffffff90888110828211176109f0578352605488527f68747470733a2f2f697066732e696f2f697066732f516d59754b593435417138858901527f374c654c315235646862316871484c70365a46624a614350386a78714b4d314d88840152732c1b3c97b130b132afb93aba342f98973539b7b760611b60608901526000848152600260205260409020546001600160a01b0316156109975783875260068552828720918851918211610984575061084c8254610f69565b601f811161093e575b5084601f82116001146108bd57819088997ff8e1a15aba9398e019f0b49df1a4fde98ee17ae345cb5f6b5e2c27f5033e8ce79899926108b2575b5050600019600383901b1c191690871b1790555b51908152a16008540160085580f35b01519050388061088f565b82885285882098601f198316895b81811061092957509188999a91847ff8e1a15aba9398e019f0b49df1a4fde98ee17ae345cb5f6b5e2c27f5033e8ce79a959410610910575b505050811b0190556108a3565b015160001960f88460031b161c19169055388080610903565b828401518c559a89019a9288019288016108cb565b828852858820601f830160051c81019187841061097a575b601f0160051c019087905b82811061096f575050610855565b898155018790610961565b9091508190610956565b634e487b7160e01b885260419052602487fd5b5083608492519162461bcd60e51b8352820152602e60248201527f45524337323155524953746f726167653a2055524920736574206f66206e6f6e60448201526d32bc34b9ba32b73a103a37b5b2b760911b6064820152fd5b634e487b7160e01b885260418352602488fd5b606488868087519262461bcd60e51b845283015260248201527f4552433732313a206d696e7420746f20746865207a65726f20616464726573736044820152fd5b5091346103b65760203660031901126103b65750610a6460209235610f43565b90516001600160a01b039091168152f35b5050346101f5576103ae6103b391610a8c36610dfa565b91925192610a9984610e2f565b86845261039e61039984336110ba565b83346103b6576103b3610abb36610dfa565b91610ac961039984336110ba565b611182565b50346101a357816003193601126101a357610ae7610dc9565b6024359290916001600160a01b0391908280610b0287610f43565b16941693808514610bee57803314908115610bcf575b5015610b6757848652602052842080546001600160a01b03191683179055610b3f83610f43565b167f8c5be1e5ebec7d5bd14f71427d1e84f3dd0314c0f7b2291e5b200ac8c7c3b9258480a480f35b6020608492519162461bcd60e51b8352820152603d60248201527f4552433732313a20617070726f76652063616c6c6572206973206e6f7420746f60448201527f6b656e206f776e6572206f7220617070726f76656420666f7220616c6c0000006064820152fd5b90508652600560205281862033875260205260ff828720541638610b18565b506020608492519162461bcd60e51b8352820152602160248201527f4552433732313a20617070726f76616c20746f2063757272656e74206f776e656044820152603960f91b6064820152fd5b5091346103b65760203660031901126103b65750610a6460209235610fa3565b5050346101f557816003193601126101f557805190828054610c7c81610f69565b808552916001918083169081156105475750600114610ca7575050506104d98261029a940383610e61565b80809650527f290decd9548b62a8d60345a988386fc84ba6bc95484008f6362f93160ef3e5635b828610610ceb575050506104d982602061029a95820101946104c7565b80546020878701810191909152909501948101610cce565b925050346101a35760203660031901126101a3573563ffffffff60e01b81168091036101a35760209250632483248360e11b8114908115610d46575b5015158152f35b6380ac58cd60e01b811491508115610d78575b8115610d67575b5038610d3f565b6301ffc9a760e01b14905038610d60565b635b5e139f60e01b81149150610d59565b919082519283825260005b848110610db5575050826000602080949584010152601f8019910116010190565b602081830181015184830182015201610d94565b600435906001600160a01b0382168203610ddf57565b600080fd5b602435906001600160a01b0382168203610ddf57565b6060906003190112610ddf576001600160a01b03906004358281168103610ddf57916024359081168103610ddf579060443590565b6020810190811067ffffffffffffffff821117610e4b57604052565b634e487b7160e01b600052604160045260246000fd5b90601f8019910116810190811067ffffffffffffffff821117610e4b57604052565b67ffffffffffffffff8111610e4b57601f01601f191660200190565b6007546001600160a01b03163303610eb357565b606460405162461bcd60e51b815260206004820152602060248201527f4f776e61626c653a2063616c6c6572206973206e6f7420746865206f776e65726044820152fd5b15610efe57565b60405162461bcd60e51b815260206004820152601860248201527f4552433732313a20696e76616c696420746f6b656e20494400000000000000006044820152606490fd5b6000908152600260205260409020546001600160a01b0316610f66811515610ef7565b90565b90600182811c92168015610f99575b6020831014610f8357565b634e487b7160e01b600052602260045260246000fd5b91607f1691610f78565b600081815260026020526040902054610fc6906001600160a01b03161515610ef7565b6000908152600460205260409020546001600160a01b031690565b15610fe857565b60405162461bcd60e51b815260206004820152602d60248201527f4552433732313a2063616c6c6572206973206e6f7420746f6b656e206f776e6560448201526c1c881bdc88185c1c1c9bdd9959609a1b6064820152608490fd5b60809060208152603260208201527f4552433732313a207472616e7366657220746f206e6f6e20455243373231526560408201527131b2b4bb32b91034b6b83632b6b2b73a32b960711b60608201520190565b1561109d57565b60405162461bcd60e51b8152806110b660048201611043565b0390fd5b906001600160a01b0380806110ce84610f43565b16931691838314938415611101575b5083156110eb575b50505090565b6110f791929350610fa3565b16143880806110e5565b909350600052600560205260406000208260005260205260ff6040600020541692386110dd565b1561112f57565b60405162461bcd60e51b815260206004820152602560248201527f4552433732313a207472616e736665722066726f6d20696e636f72726563742060448201526437bbb732b960d91b6064820152608490fd5b906111aa9161119084610f43565b6001600160a01b0393918416928492909183168414611128565b1691821561124257816111c7916111c086610f43565b1614611128565b7fddf252ad1be2c89b69c2b068fc378daa952ba7f163c4a11628f55a4df523b3ef60008481526004602052604081206001600160601b0360a01b9081815416905583825260036020526040822060001981540190558482526040822060018154019055858252600260205284604083209182541617905580a4565b60405162461bcd60e51b8152602060048201526024808201527f4552433732313a207472616e7366657220746f20746865207a65726f206164646044820152637265737360e01b6064820152608490fd5b9192600092909190803b156113a5576112e1946040518092630a85bd0160e11b9485835233600484015287602484015260448301526080606483015281878160209a8b966084830190610d89565b03926001600160a01b03165af1849181611365575b50611354575050503d60001461134c573d61131081610e83565b9061131e6040519283610e61565b81528091833d92013e5b805191826113495760405162461bcd60e51b8152806110b660048201611043565b01fd5b506060611328565b6001600160e01b0319161492509050565b9091508581813d831161139e575b61137d8183610e61565b8101031261048857516001600160e01b0319811681036104885790386112f6565b503d611373565b5050915050600190565b9293600093909291803b1561142f579484916114099660405180948193630a85bd0160e11b9788845233600485015260018060a01b0380921660248501526044840152608060648401528260209b8c976084830190610d89565b0393165af18491816113655750611354575050503d60001461134c573d61131081610e83565b505050915050600190565b1561144157565b60405162461bcd60e51b815260206004820152601c60248201527f4552433732313a20746f6b656e20616c7265616479206d696e746564000000006044820152606490fdfea26469706673582212208d1c38247e497080e6adf3575b8994574c4920fa30a202627d463d232666f00864736f6c63430008130033",
    "linkReferences": {}
  },
  "methodIdentifiers": {
    "approve(address,uint256)": "095ea7b3",
    "balanceOf(address)": "70a08231",
    "getApproved(uint256)": "081812fc",
    "isApprovedForAll(address,address)": "e985e9c5",
    "mint(address)": "6a627842",
    "name()": "06fdde03",
    "owner()": "8da5cb5b",
    "ownerOf(uint256)": "6352211e",
    "renounceOwnership()": "715018a6",
    "safeTransferFrom(address,address,uint256)": "42842e0e",
    "safeTransferFrom(address,address,uint256,bytes)": "b88d4fde",
    "setApprovalForAll(address,bool)": "a22cb465",
    "supportsInterface(bytes4)": "01ffc9a7",
    "symbol()": "95d89b41",
    "tokenURI(uint256)": "c87b56dd",
    "transferFrom(address,address,uint256)": "23b872dd",
    "transferOwnership(address)": "f2fde38b"
  },
  "id": 104
}