{
  "abi": [
    {
      "inputs": [
        {
          "internalType": "address",
          "name": "owner",
          "type": "address"
        },
        {
          "internalType": "address",
          "name": "target",
          "type": "address"
        },
        {
          "internalType": "uint256",
          "name": "value",
          "type": "uint256"
        }
      ],
      "name": "FailedToWithdrawEth",
      "type": "error"
    },
    {
      "anonymous": false,
      "inputs": [
        {
          "indexed": true,
          "internalType": "address",
          "name": "from",
          "type": "address"
        },
        {
          "indexed": true,
          "internalType": "address",
          "name": "to",
          "type": "address"
        }
      ],
      "name": "OwnershipTransferRequested",
      "type": "event"
    },
    {
      "anonymous": false,
      "inputs": [
        {
          "indexed": true,
          "internalType": "address",
          "name": "from",
          "type": "address"
        },
        {
          "indexed": true,
          "internalType": "address",
          "name": "to",
          "type": "address"
        }
      ],
      "name": "OwnershipTransferred",
      "type": "event"
    },
    {
      "inputs": [],
      "name": "acceptOwnership",
      "outputs": [],
      "stateMutability": "nonpayable",
      "type": "function"
    },
    {
      "inputs": [],
      "name": "owner",
      "outputs": [
        {
          "internalType": "address",
          "name": "",
          "type": "address"
        }
      ],
      "stateMutability": "view",
      "type": "function"
    },
    {
      "inputs": [
        {
          "internalType": "address",
          "name": "to",
          "type": "address"
        }
      ],
      "name": "transferOwnership",
      "outputs": [],
      "stateMutability": "nonpayable",
      "type": "function"
    },
    {
      "inputs": [
        {
          "internalType": "address",
          "name": "beneficiary",
          "type": "address"
        }
      ],
      "name": "withdraw",
      "outputs": [],
      "stateMutability": "nonpayable",
      "type": "function"
    },
    {
      "inputs": [
        {
          "internalType": "address",
          "name": "beneficiary",
          "type": "address"
        },
        {
          "internalType": "address",
          "name": "token",
          "type": "address"
        }
      ],
      "name": "withdrawToken",
      "outputs": [],
      "stateMutability": "nonpayable",
      "type": "function"
    }
  ],
  "bytecode": {
    "object": "0x6080806040523461007357331561003157600080546001600160a01b0319163317905560405161049190816100798239f35b62461bcd60e51b815260206004820152601860248201527f43616e6e6f7420736574206f776e657220746f207a65726f00000000000000006044820152606490fd5b600080fdfe6040608081526004908136101561001557600080fd5b600091823560e01c80633aeac4e11461029657806351cff8d9146101e557806379ba50971461013e5780638da5cb5b146101125763f2fde38b1461005857600080fd5b3461010e57602036600319011261010e576100716103b6565b9061007a6103d1565b6001600160a01b03918216923384146100cb575050600180546001600160a01b031916831790558254167fed8889f560326eb138920d842192f0eb3dd22b4f139c87a2c57538e05bae12788380a380f35b906020606492519162461bcd60e51b8352820152601760248201527f43616e6e6f74207472616e7366657220746f2073656c660000000000000000006044820152fd5b8280fd5b50503461013a578160031936011261013a57905490516001600160a01b039091168152602090f35b5080fd5b50903461010e578260031936011261010e57600154916001600160a01b039182841633036101a957505082546001600160a01b03198082163390811786559316600155167f8be0079c531659141344cd1fd0a4f28419497f9722a3daafe3b4186f6b6457e08380a380f35b906020606492519162461bcd60e51b8352820152601660248201527526bab9ba10313290383937b837b9b2b21037bbb732b960511b6044820152fd5b50903461010e57602036600319011261010e576102006103b6565b6102086103d1565b47918480808086865af13d15610291573d67ffffffffffffffff811161027e5782519061023f601f8201601f191660200183610423565b81528660203d92013e5b15610252578480f35b51639d11f56360e01b815233938101939093526001600160a01b03166024830152604482015260649150fd5b634e487b7160e01b875260418652602487fd5b610249565b50903461010e578060031936011261010e576102b06103b6565b906024356001600160a01b03818116918290036103b2576102cf6103d1565b82516370a0823160e01b815230868201526020949087908681602481885afa9081156103a8579082918895949391610374575b509460449394958751998a96879563a9059cbb60e01b8752169085015260248401525af190811561036b5750610336578280f35b81813d8311610364575b61034a8183610423565b8101031261013a5751801515036103615738808280f35b80fd5b503d610340565b513d85823e3d90fd5b8581959692503d83116103a1575b61038c8183610423565b81010312610361579151869392906044610302565b503d610382565b86513d84823e3d90fd5b8580fd5b600435906001600160a01b03821682036103cc57565b600080fd5b6000546001600160a01b031633036103e557565b60405162461bcd60e51b815260206004820152601660248201527527b7363c9031b0b63630b1363290313c9037bbb732b960511b6044820152606490fd5b90601f8019910116810190811067ffffffffffffffff82111761044557604052565b634e487b7160e01b600052604160045260246000fdfea26469706673582212203b3be2827a2e97f03ec3190b8ab9019c30ac526672f964470d71e1811edf199864736f6c63430008130033",
    "linkReferences": {}
  },
  "methodIdentifiers": {
    "acceptOwnership()": "79ba5097",
    "owner()": "8da5cb5b",
    "transferOwnership(address)": "f2fde38b",
    "withdraw(address)": "51cff8d9",
    "withdrawToken(address,address)": "3aeac4e1"
  },
  "id": 100
}