{
  "abi": [
    {
      "inputs": [
        {
          "internalType": "address",
          "name": "router",
          "type": "address"
        },
        {
          "internalType": "address",
          "name": "link",
          "type": "address"
        }
      ],
      "stateMutability": "nonpayable",
      "type": "constructor"
    },
    {
      "inputs": [
        {
          "internalType": "address",
          "name": "owner",
          "type": "address"
        },
        {
          "internalType": "address",
          "name": "target",
          "type": "address"
        },
        {
          "internalType": "uint256",
          "name": "value",
          "type": "uint256"
        }
      ],
      "name": "FailedToWithdrawEth",
      "type": "error"
    },
    {
      "anonymous": false,
      "inputs": [
        {
          "indexed": false,
          "internalType": "bytes32",
          "name": "messageId",
          "type": "bytes32"
        }
      ],
      "name": "MessageSent",
      "type": "event"
    },
    {
      "anonymous": false,
      "inputs": [
        {
          "indexed": true,
          "internalType": "address",
          "name": "from",
          "type": "address"
        },
        {
          "indexed": true,
          "internalType": "address",
          "name": "to",
          "type": "address"
        }
      ],
      "name": "OwnershipTransferRequested",
      "type": "event"
    },
    {
      "anonymous": false,
      "inputs": [
        {
          "indexed": true,
          "internalType": "address",
          "name": "from",
          "type": "address"
        },
        {
          "indexed": true,
          "internalType": "address",
          "name": "to",
          "type": "address"
        }
      ],
      "name": "OwnershipTransferred",
      "type": "event"
    },
    {
      "inputs": [],
      "name": "acceptOwnership",
      "outputs": [],
      "stateMutability": "nonpayable",
      "type": "function"
    },
    {
      "inputs": [
        {
          "internalType": "uint64",
          "name": "chainSelector",
          "type": "uint64"
        }
      ],
      "name": "getSupportedTokens",
      "outputs": [
        {
          "internalType": "address[]",
          "name": "tokens",
          "type": "address[]"
        }
      ],
      "stateMutability": "view",
      "type": "function"
    },
    {
      "inputs": [],
      "name": "owner",
      "outputs": [
        {
          "internalType": "address",
          "name": "",
          "type": "address"
        }
      ],
      "stateMutability": "view",
      "type": "function"
    },
    {
      "inputs": [
        {
          "internalType": "uint64",
          "name": "destinationChainSelector",
          "type": "uint64"
        },
        {
          "internalType": "address",
          "name": "receiver",
          "type": "address"
        },
        {
          "components": [
            {
              "internalType": "address",
              "name": "token",
              "type": "address"
            },
            {
              "internalType": "uint256",
              "name": "amount",
              "type": "uint256"
            }
          ],
          "internalType": "struct Client.EVMTokenAmount[]",
          "name": "tokensToSendDetails",
          "type": "tuple[]"
        },
        {
          "internalType": "enum BasicTokenSender.PayFeesIn",
          "name": "payFeesIn",
          "type": "uint8"
        }
      ],
      "name": "send",
      "outputs": [],
      "stateMutability": "nonpayable",
      "type": "function"
    },
    {
      "inputs": [
        {
          "internalType": "address",
          "name": "to",
          "type": "address"
        }
      ],
      "name": "transferOwnership",
      "outputs": [],
      "stateMutability": "nonpayable",
      "type": "function"
    },
    {
      "inputs": [
        {
          "internalType": "address",
          "name": "beneficiary",
          "type": "address"
        }
      ],
      "name": "withdraw",
      "outputs": [],
      "stateMutability": "nonpayable",
      "type": "function"
    },
    {
      "inputs": [
        {
          "internalType": "address",
          "name": "beneficiary",
          "type": "address"
        },
        {
          "internalType": "address",
          "name": "token",
          "type": "address"
        }
      ],
      "name": "withdrawToken",
      "outputs": [],
      "stateMutability": "nonpayable",
      "type": "function"
    },
    {
      "stateMutability": "payable",
      "type": "receive"
    }
  ],
  "bytecode": {
    "object": "0x60e0604090808252346200017657818162000f0d80380380916200002482856200017b565b83398101031262000176576200003a81620001b5565b906200004a6020809201620001b5565b9133156200013257600080546001600160a01b03191633178155608082905260a0849052600560c052845163095ea7b360e01b81526001600160a01b039283166004820152600019602482015290939092918291849160449183918891165af180156200012857620000e7575b8351610d429081620001cb823960805181818160c70152610366015260a051816103c3015260c0518161033e0152f35b81813d831162000120575b620000fe81836200017b565b810103126200011c57518015150362000119578080620000b7565b80fd5b5080fd5b503d620000f2565b84513d85823e3d90fd5b835162461bcd60e51b815260048101839052601860248201527f43616e6e6f7420736574206f776e657220746f207a65726f00000000000000006044820152606490fd5b600080fd5b601f909101601f19168101906001600160401b038211908210176200019f57604052565b634e487b7160e01b600052604160045260246000fd5b51906001600160a01b0382168203620001765756fe60406080815260049081361015610020575b5050361561001e57600080fd5b005b600090813560e01c80633aeac4e11461098757806351cff8d9146108d157806379ba5097146108295780638da5cb5b14610802578063b6d2440c1461029f578063f2fde38b146101e75763fbca3b741461007a5750610011565b346101e357602090816003193601126101df57610095610ac8565b8151633ef28edd60e21b815267ffffffffffffffff918216958101959095526001600160a01b039490929084816024817f00000000000000000000000000000000000000000000000000000000000000008a165afa9384156101d5578594610135575b505092908051938080860192818752855180945286019401925b82811061011f5785850386f35b8351871685529381019392810192600101610112565b909193503d8086843e6101488184610b11565b82019184818403126101d15780519182116101d157019080601f830112156101cd57815161017581610b33565b9261018285519485610b11565b818452858085019260051b8201019283116101c9578501905b8282106101ad575050509138806100f8565b815188811681036101c557815290850190850161019b565b8780fd5b8680fd5b8480fd5b8580fd5b83513d87823e3d90fd5b8280fd5b5080fd5b5082346101df5760203660031901126101df57610202610a97565b9061020b610b4b565b6001600160a01b039182169233841461025c575050600180546001600160a01b031916831790558254167fed8889f560326eb138920d842192f0eb3dd22b4f139c87a2c57538e05bae12788380a380f35b906020606492519162461bcd60e51b8352820152601760248201527f43616e6e6f74207472616e7366657220746f2073656c660000000000000000006044820152fd5b508290346101df5760803660031901126101df576102bb610ac8565b906102c4610ab2565b926044359267ffffffffffffffff918285116101c957366023860112156101c95784810135956102f387610b33565b9661030086519889610b11565b8088526020968789016024809360061b830101913683116107fe578301905b8282106107a05750505060643597600289101561079c5780519161ffff7f0000000000000000000000000000000000000000000000000000000000000000168311610735577f0000000000000000000000000000000000000000000000000000000000000000928b5b8181106105f157505087516001600160a01b039485168a8201528981528089019a909290888c11848d10176105df576001149788156105d8577f0000000000000000000000000000000000000000000000000000000000000000925b60e085019182118d8310176105c757509185949392918d9796928b52838d528a5161040e81610adf565b888152606085015260808401521660a082015260c088519161042f83610adf565b868352015286516320487ded60e01b81529116948782806104538c89888401610c1f565b0381895afa9182156105bd57849261058e575b5015610506575084516396f4e9f960e01b815296869488949093859390928492610491928401610c1f565b03925af180156104fc5784906104bd575b600080516020610ced8339815191529350905b51908152a180f35b508183813d83116104f5575b6104d38183610b11565b810103126104f157600080516020610ced83398151915292516104a2565b8380fd5b503d6104c9565b81513d86823e3d90fd5b85516396f4e9f960e01b815297879589959094508593849261052b9290918401610c1f565b03925af180156104fc578490610553575b600080516020610ced8339815191529350906104b5565b508183813d8311610587575b6105698183610b11565b810103126104f157600080516020610ced833981519152925161053c565b503d61055f565b9091508781813d83116105b6575b6105a68183610b11565b810103126104f15751908a610466565b503d61059c565b87513d86823e3d90fd5b634e487b7160e01b8e52604188528dfd5b8c926103e4565b634e487b7160e01b8d5260418752828dfd5b8c6001600160a01b0361064f8d8d888c868461061b8a896106128288610b9d565b51511695610b9d565b51015193516323b872dd60e01b81523392810192835230602084015260408301949094529294859384929091839160600190565b03925af1801561072b5792888f938f936106ba9661070e575b50610673878b610b9d565b515116918c85610683898d610b9d565b510151945163095ea7b360e01b81526001600160a01b03909316908301908152602081019490945290948593849291839160400190565b03925af180156107025790600192916106d5575b5001610388565b6106f4908d803d106106fb575b6106ec8183610b11565b810190610bc7565b508e6106ce565b503d6106e2565b8e8c51903d90823e3d90fd5b61072490863d88116106fb576106ec8183610b11565b5038610668565b8d513d85823e3d90fd5b8460376084928b8b519362461bcd60e51b85528401528201527f4d6178696d756d203520646966666572656e7420746f6b656e732063616e206260448201527f652073656e74207065722043434950204d6573736167650000000000000000006064820152fd5b8980fd5b88823603126107fe578851908982018281108a8211176107ec578a528235906001600160a01b03821682036107e857828c928c9452828501358382015281520191019061031f565b8d80fd5b634e487b7160e01b8e5260418852858efd5b8b80fd5b50346101e357816003193601126101e357905490516001600160a01b039091168152602090f35b508290346101df57826003193601126101df57600154916001600160a01b0391828416330361089557505082546001600160a01b03198082163390811786559316600155167f8be0079c531659141344cd1fd0a4f28419497f9722a3daafe3b4186f6b6457e08380a380f35b906020606492519162461bcd60e51b8352820152601660248201527526bab9ba10313290383937b837b9b2b21037bbb732b960511b6044820152fd5b5082346101df5760203660031901126101df576108ec610a97565b916108f5610b4b565b47908480808085885af13d15610982573d67ffffffffffffffff811161096f5782519061092c601f8201601f191660200183610b11565b81528660203d92013e5b1561093f578480f35b51639d11f56360e01b8152339281019283526001600160a01b039093166020830152604082015281906060010390fd5b634e487b7160e01b875260418552602487fd5b610936565b50818391346101e357806003193601126101e3576109a3610a97565b6109ab610ab2565b6109b3610b4b565b60018060a01b03168251916370a0823160e01b835230868401526020958684602481865afa938415610a8d579087949392918794610a58575b50855163a9059cbb60e01b81526001600160a01b03909216908201908152602081019390935294859283919082906040015b03925af1908115610a4f5750610a32578280f35b81610a4892903d106106fb576106ec8183610b11565b5081808280f35b513d85823e3d90fd5b8581969295503d8311610a86575b610a708183610b11565b810103126101d157925186939092610a1e6109ec565b503d610a66565b85513d88823e3d90fd5b600435906001600160a01b0382168203610aad57565b600080fd5b602435906001600160a01b0382168203610aad57565b6004359067ffffffffffffffff82168203610aad57565b6020810190811067ffffffffffffffff821117610afb57604052565b634e487b7160e01b600052604160045260246000fd5b90601f8019910116810190811067ffffffffffffffff821117610afb57604052565b67ffffffffffffffff8111610afb5760051b60200190565b6000546001600160a01b03163303610b5f57565b60405162461bcd60e51b815260206004820152601660248201527527b7363c9031b0b63630b1363290313c9037bbb732b960511b6044820152606490fd5b8051821015610bb15760209160051b010190565b634e487b7160e01b600052603260045260246000fd5b90816020910312610aad57518015158103610aad5790565b919082519283825260005b848110610c0b575050826000602080949584010152601f8019910116010190565b602081830181015184830182015201610bea565b9067ffffffffffffffff9093929316815260406020918183820152610c4f855160a08484015260e0830190610bdf565b91610c6b8487015193603f199485858303016060860152610bdf565b8187015194848483030160808501528080875193848152019601926000905b838210610cc357505050505060c06080610cc0959660018060a01b0360608201511660a085015201519282850301910152610bdf565b90565b845180516001600160a01b03168952830151888401529687019693820193600190910190610c8a56fe54791b38f3859327992a1ca0590ad3c0f08feba98d1a4f56ab0dca74d203392aa2646970667358221220fb076d5f4c1f1ebb2aa7bf2d0038df262c906f5db3b70af25028988a27137afb64736f6c63430008130033",
    "linkReferences": {}
  },
  "methodIdentifiers": {
    "acceptOwnership()": "79ba5097",
    "getSupportedTokens(uint64)": "fbca3b74",
    "owner()": "8da5cb5b",
    "send(uint64,address,(address,uint256)[],uint8)": "b6d2440c",
    "transferOwnership(address)": "f2fde38b",
    "withdraw(address)": "51cff8d9",
    "withdrawToken(address,address)": "3aeac4e1"
  },
  "id": 64
}