{
  "abi": [
    {
      "inputs": [
        {
          "internalType": "address",
          "name": "router",
          "type": "address"
        },
        {
          "internalType": "address",
          "name": "link",
          "type": "address"
        }
      ],
      "stateMutability": "nonpayable",
      "type": "constructor"
    },
    {
      "inputs": [
        {
          "internalType": "address",
          "name": "owner",
          "type": "address"
        },
        {
          "internalType": "address",
          "name": "target",
          "type": "address"
        },
        {
          "internalType": "uint256",
          "name": "value",
          "type": "uint256"
        }
      ],
      "name": "FailedToWithdrawEth",
      "type": "error"
    },
    {
      "anonymous": false,
      "inputs": [
        {
          "indexed": false,
          "internalType": "bytes32",
          "name": "messageId",
          "type": "bytes32"
        }
      ],
      "name": "MessageSent",
      "type": "event"
    },
    {
      "anonymous": false,
      "inputs": [
        {
          "indexed": true,
          "internalType": "address",
          "name": "from",
          "type": "address"
        },
        {
          "indexed": true,
          "internalType": "address",
          "name": "to",
          "type": "address"
        }
      ],
      "name": "OwnershipTransferRequested",
      "type": "event"
    },
    {
      "anonymous": false,
      "inputs": [
        {
          "indexed": true,
          "internalType": "address",
          "name": "from",
          "type": "address"
        },
        {
          "indexed": true,
          "internalType": "address",
          "name": "to",
          "type": "address"
        }
      ],
      "name": "OwnershipTransferred",
      "type": "event"
    },
    {
      "inputs": [],
      "name": "acceptOwnership",
      "outputs": [],
      "stateMutability": "nonpayable",
      "type": "function"
    },
    {
      "inputs": [
        {
          "internalType": "uint64",
          "name": "destinationChainSelector",
          "type": "uint64"
        },
        {
          "internalType": "address",
          "name": "receiver",
          "type": "address"
        },
        {
          "internalType": "enum SourceMinter.PayFeesIn",
          "name": "payFeesIn",
          "type": "uint8"
        }
      ],
      "name": "mint",
      "outputs": [],
      "stateMutability": "nonpayable",
      "type": "function"
    },
    {
      "inputs": [],
      "name": "owner",
      "outputs": [
        {
          "internalType": "address",
          "name": "",
          "type": "address"
        }
      ],
      "stateMutability": "view",
      "type": "function"
    },
    {
      "inputs": [
        {
          "internalType": "address",
          "name": "to",
          "type": "address"
        }
      ],
      "name": "transferOwnership",
      "outputs": [],
      "stateMutability": "nonpayable",
      "type": "function"
    },
    {
      "inputs": [
        {
          "internalType": "address",
          "name": "beneficiary",
          "type": "address"
        }
      ],
      "name": "withdraw",
      "outputs": [],
      "stateMutability": "nonpayable",
      "type": "function"
    },
    {
      "inputs": [
        {
          "internalType": "address",
          "name": "beneficiary",
          "type": "address"
        },
        {
          "internalType": "address",
          "name": "token",
          "type": "address"
        }
      ],
      "name": "withdrawToken",
      "outputs": [],
      "stateMutability": "nonpayable",
      "type": "function"
    },
    {
      "stateMutability": "payable",
      "type": "receive"
    }
  ],
  "bytecode": {
    "object": "0x60c0346100de57601f610ac538819003918201601f19168301916001600160401b038311848410176100e35780849260409485528339810103126100de57610052602061004b836100f9565b92016100f9565b90331561009957600080546001600160a01b0319163317905560805260a0526040516109b7908161010e82396080518161023d015260a0518181816101d201526102c20152f35b60405162461bcd60e51b815260206004820152601860248201527f43616e6e6f7420736574206f776e657220746f207a65726f00000000000000006044820152606490fd5b600080fd5b634e487b7160e01b600052604160045260246000fd5b51906001600160a01b03821682036100de5756fe60406080815260049081361015610020575b5050361561001e57600080fd5b005b600091823560e01c8381633aeac4e1146106565750806351cff8d9146105a557806379ba5097146104fe5780638da5cb5b146104d2578063ec99afa21461012b5763f2fde38b146100715750610011565b346101275760203660031901126101275761008a610765565b90610093610796565b6001600160a01b03918216923384146100e4575050600180546001600160a01b031916831790558254167fed8889f560326eb138920d842192f0eb3dd22b4f139c87a2c57538e05bae12788380a380f35b906020606492519162461bcd60e51b8352820152601760248201527f43616e6e6f74207472616e7366657220746f2073656c660000000000000000006044820152fd5b8280fd5b50346101275760603660031901126101275780359067ffffffffffffffff9081831683036104ce5761015b610780565b926044359160028310156104ca5785519260018060a01b039384602097168782015286815287810191818310878411176104b7576335313c2160e11b60608301523360648301526024835260a0820190878211848310176104a457600190828b526101c5836107e8565b8b83521492831561049d577f0000000000000000000000000000000000000000000000000000000000000000925b8a519860a08a019081118a82101761048a578b528852888801528689015284166060860152865188929190610227816107e8565b838152608087015287516320487ded60e01b81527f00000000000000000000000000000000000000000000000000000000000000008681169691928984806102728c8b8a840161087c565b03818b5afa93841561048057869461044d575b50156103c257895163095ea7b360e01b81526001600160a01b039091168482019081526020810193909352918891839182908790829060400103927f0000000000000000000000000000000000000000000000000000000000000000165af180156103b85791879593916103169997959361038b575b5086516396f4e9f960e01b815298899586948593840161087c565b03925af18015610381578490610342575b6000805160206109628339815191529350905b51908152a180f35b508183813d831161037a575b610358818361081a565b81010312610376576000805160206109628339815191529251610327565b8380fd5b503d61034e565b81513d86823e3d90fd5b6103aa90873d89116103b1575b6103a2818361081a565b810190610949565b50386102fb565b503d610398565b88513d85823e3d90fd5b505087516396f4e9f960e01b8152979587958995909450859384926103ea929091840161087c565b03925af18015610381578490610412575b60008051602061096283398151915293509061033a565b508183813d8311610446575b610428818361081a565b810103126103765760008051602061096283398151915292516103fb565b503d61041e565b9093508981813d8311610479575b610465818361081a565b8101031261047557519238610285565b8580fd5b503d61045b565b8b513d88823e3d90fd5b634e487b7160e01b8d526041875260248dfd5b8a926101f3565b634e487b7160e01b8b526041855260248bfd5b634e487b7160e01b8a526041845260248afd5b8680fd5b8480fd5b5050346104fa57816003193601126104fa57905490516001600160a01b039091168152602090f35b5080fd5b509034610127578260031936011261012757600154916001600160a01b0391828416330361056957505082546001600160a01b03198082163390811786559316600155167f8be0079c531659141344cd1fd0a4f28419497f9722a3daafe3b4186f6b6457e08380a380f35b906020606492519162461bcd60e51b8352820152601660248201527526bab9ba10313290383937b837b9b2b21037bbb732b960511b6044820152fd5b509034610127576020366003190112610127576105c0610765565b6105c8610796565b47918480808086865af13d15610651573d67ffffffffffffffff811161063e578251906105ff601f8201601f19166020018361081a565b81528660203d92013e5b15610612578480f35b51639d11f56360e01b815233938101939093526001600160a01b03166024830152604482015260649150fd5b634e487b7160e01b875260418652602487fd5b610609565b828185346104fa57806003193601126104fa57610671610765565b610679610780565b610681610796565b60018060a01b03168251916370a0823160e01b835230868401526020958684602481865afa93841561075b579087949392918794610726575b50855163a9059cbb60e01b81526001600160a01b03909216908201908152602081019390935294859283919082906040015b03925af190811561071d5750610700578280f35b8161071692903d106103b1576103a2818361081a565b5081808280f35b513d85823e3d90fd5b8581969295503d8311610754575b61073e818361081a565b81010312610475579251869390926106ec6106ba565b503d610734565b85513d88823e3d90fd5b600435906001600160a01b038216820361077b57565b600080fd5b602435906001600160a01b038216820361077b57565b6000546001600160a01b031633036107aa57565b60405162461bcd60e51b815260206004820152601660248201527527b7363c9031b0b63630b1363290313c9037bbb732b960511b6044820152606490fd5b6020810190811067ffffffffffffffff82111761080457604052565b634e487b7160e01b600052604160045260246000fd5b90601f8019910116810190811067ffffffffffffffff82111761080457604052565b919082519283825260005b848110610868575050826000602080949584010152601f8019910116010190565b602081830181015184830182015201610847565b9067ffffffffffffffff90939293168152604060209181838201526108ac855160a08484015260e083019061083c565b916108c88487015193603f19948585830301606086015261083c565b8187015194848483030160808501528080875193848152019601926000905b83821061092057505050505060c0608061091d959660018060a01b0360608201511660a08501520151928285030191015261083c565b90565b845180516001600160a01b031689528301518884015296870196938201936001909101906108e7565b9081602091031261077b5751801515810361077b579056fe54791b38f3859327992a1ca0590ad3c0f08feba98d1a4f56ab0dca74d203392aa264697066735822122088526ff0f5ed4d393a0d031ca40bc8dc2dd4bbf3fd644b91fcfc00dcf1a1836e64736f6c63430008130033",
    "linkReferences": {}
  },
  "methodIdentifiers": {
    "acceptOwnership()": "79ba5097",
    "mint(uint64,address,uint8)": "ec99afa2",
    "owner()": "8da5cb5b",
    "transferOwnership(address)": "f2fde38b",
    "withdraw(address)": "51cff8d9",
    "withdrawToken(address,address)": "3aeac4e1"
  },
  "id": 105
}