{
  "abi": [
    {
      "inputs": [
        {
          "internalType": "address",
          "name": "router",
          "type": "address"
        },
        {
          "internalType": "address",
          "name": "link",
          "type": "address"
        }
      ],
      "stateMutability": "nonpayable",
      "type": "constructor"
    },
    {
      "inputs": [
        {
          "internalType": "address",
          "name": "owner",
          "type": "address"
        },
        {
          "internalType": "address",
          "name": "target",
          "type": "address"
        },
        {
          "internalType": "uint256",
          "name": "value",
          "type": "uint256"
        }
      ],
      "name": "FailedToWithdrawEth",
      "type": "error"
    },
    {
      "anonymous": false,
      "inputs": [
        {
          "indexed": false,
          "internalType": "string",
          "name": "str",
          "type": "string"
        }
      ],
      "name": "Debug",
      "type": "event"
    },
    {
      "anonymous": false,
      "inputs": [
        {
          "indexed": false,
          "internalType": "bytes32",
          "name": "messageId",
          "type": "bytes32"
        }
      ],
      "name": "MessageSent",
      "type": "event"
    },
    {
      "anonymous": false,
      "inputs": [
        {
          "indexed": true,
          "internalType": "address",
          "name": "from",
          "type": "address"
        },
        {
          "indexed": true,
          "internalType": "address",
          "name": "to",
          "type": "address"
        }
      ],
      "name": "OwnershipTransferRequested",
      "type": "event"
    },
    {
      "anonymous": false,
      "inputs": [
        {
          "indexed": true,
          "internalType": "address",
          "name": "from",
          "type": "address"
        },
        {
          "indexed": true,
          "internalType": "address",
          "name": "to",
          "type": "address"
        }
      ],
      "name": "OwnershipTransferred",
      "type": "event"
    },
    {
      "inputs": [],
      "name": "acceptOwnership",
      "outputs": [],
      "stateMutability": "nonpayable",
      "type": "function"
    },
    {
      "inputs": [],
      "name": "owner",
      "outputs": [
        {
          "internalType": "address",
          "name": "",
          "type": "address"
        }
      ],
      "stateMutability": "view",
      "type": "function"
    },
    {
      "inputs": [
        {
          "internalType": "uint64",
          "name": "destinationChainSelector",
          "type": "uint64"
        },
        {
          "internalType": "address",
          "name": "receiver",
          "type": "address"
        },
        {
          "internalType": "string",
          "name": "messageText",
          "type": "string"
        },
        {
          "internalType": "bool",
          "name": "useLink",
          "type": "bool"
        }
      ],
      "name": "send",
      "outputs": [
        {
          "internalType": "bytes32",
          "name": "messageId",
          "type": "bytes32"
        }
      ],
      "stateMutability": "nonpayable",
      "type": "function"
    },
    {
      "inputs": [
        {
          "internalType": "address",
          "name": "to",
          "type": "address"
        }
      ],
      "name": "transferOwnership",
      "outputs": [],
      "stateMutability": "nonpayable",
      "type": "function"
    },
    {
      "inputs": [
        {
          "internalType": "address",
          "name": "beneficiary",
          "type": "address"
        }
      ],
      "name": "withdraw",
      "outputs": [],
      "stateMutability": "nonpayable",
      "type": "function"
    },
    {
      "inputs": [
        {
          "internalType": "address",
          "name": "beneficiary",
          "type": "address"
        },
        {
          "internalType": "address",
          "name": "token",
          "type": "address"
        }
      ],
      "name": "withdrawToken",
      "outputs": [],
      "stateMutability": "nonpayable",
      "type": "function"
    },
    {
      "stateMutability": "payable",
      "type": "receive"
    }
  ],
  "bytecode": {
    "object": "0x60c06040908082523461014e578181610adf80380380916100208285610153565b83398101031261014e576100338161018c565b90610041602080920161018c565b91331561010a57600080546001600160a01b03191633178155608082905260a0849052845163095ea7b360e01b81526001600160a01b039283166004820152600019602482015290939092918291849160449183918891165af18015610100576100c6575b835161093e90816101a1823960805181610293015260a051816102380152f35b81813d83116100f9575b6100da8183610153565b810103126100f55751801515036100f25780806100a6565b80fd5b5080fd5b503d6100d0565b84513d85823e3d90fd5b835162461bcd60e51b815260048101839052601860248201527f43616e6e6f7420736574206f776e657220746f207a65726f00000000000000006044820152606490fd5b600080fd5b601f909101601f19168101906001600160401b0382119082101761017657604052565b634e487b7160e01b600052604160045260246000fd5b51906001600160a01b038216820361014e5756fe60406080815260049081361015610020575b5050361561001e57600080fd5b005b600091823560e01c80633aeac4e1146105f157806351cff8d91461056357806379ba5097146104bc5780638da5cb5b1461049057806395f58fb2146101295763f2fde38b1461006f5750610011565b3461012557602036600319011261012557610088610708565b906100916107a9565b6001600160a01b03918216923384146100e2575050600180546001600160a01b031916831790558254167fed8889f560326eb138920d842192f0eb3dd22b4f139c87a2c57538e05bae12788380a380f35b906020606492519162461bcd60e51b8352820152601760248201527f43616e6e6f74207472616e7366657220746f2073656c660000000000000000006044820152fd5b8280fd5b50913461037e57608036600319011261037e5782359267ffffffffffffffff808516850361012557610159610723565b6044359582871161048c573660238801121561048c57868401359161017d8361078d565b9261018a8851948561076b565b808452366024828b0101116104315760249881889260209b8c93018388013785010152606435801515810361043157156104865760015b87516001600160a01b039283168a8201528981528089019490919086861183871017610473578261020261021492888d528d606084015260808301906107fb565b03605f1981018752603f19018661076b565b88519061022082610739565b888252600281101561046057600114948515610459577f0000000000000000000000000000000000000000000000000000000000000000925b8a519760a0890190811189821017610446578b5287528a8701528589015281166060850152865161028981610739565b86815260808501527f000000000000000000000000000000000000000000000000000000000000000016918651906320487ded60e01b82528882806102d188878b840161083b565b0381875afa91821561043c579187918a9695949383926103fe575b50156103935750610311958851968795869485936396f4e9f960e01b8552840161083b565b03925af1918215610388578092610355575b5050905b7f54791b38f3859327992a1ca0590ad3c0f08feba98d1a4f56ab0dca74d203392a838251848152a151908152f35b9091508382813d8311610381575b61036d818361076b565b8101031261037e5750513880610323565b80fd5b503d610363565b8351903d90823e3d90fd5b88516396f4e9f960e01b8152968795869492935084926103b492840161083b565b03925af19182156103885780926103ce575b505090610327565b9091508382813d83116103f7575b6103e6818361076b565b8101031261037e57505138806103c6565b503d6103dc565b925092939495905081813d8311610435575b61041a818361076b565b8101031261043157889493929187915190386102ec565b8680fd5b503d610410565b88513d89823e3d90fd5b634e487b7160e01b8b5260418a5260248bfd5b8892610259565b634e487b7160e01b895260218852602489fd5b634e487b7160e01b895260418852602489fd5b856101c1565b8480fd5b5050346104b857816003193601126104b857905490516001600160a01b039091168152602090f35b5080fd5b509034610125578260031936011261012557600154916001600160a01b0391828416330361052757505082546001600160a01b03198082163390811786559316600155167f8be0079c531659141344cd1fd0a4f28419497f9722a3daafe3b4186f6b6457e08380a380f35b906020606492519162461bcd60e51b8352820152601660248201527526bab9ba10313290383937b837b9b2b21037bbb732b960511b6044820152fd5b5090346101255760203660031901126101255761057e610708565b6105866107a9565b47918480808086865af13d156105ec573d6105a08161078d565b906105ad8451928361076b565b81528660203d92013e5b156105c0578480f35b51639d11f56360e01b815233938101939093526001600160a01b03166024830152604482015260649150fd5b6105b7565b50903461012557806003193601126101255761060b610708565b90610614610723565b61061c6107a9565b81516370a0823160e01b815230858201526020936001600160a01b03928316929187908681602481885afa9081156106fe5790829188959493916106ca575b509460449394958751998a96879563a9059cbb60e01b8752169085015260248401525af19081156106c1575061068f578280f35b81813d83116106ba575b6106a3818361076b565b810103126104b857518015150361037e5738808280f35b503d610699565b513d85823e3d90fd5b8581959692503d83116106f7575b6106e2818361076b565b8101031261037e57915186939290604461065b565b503d6106d8565b86513d84823e3d90fd5b600435906001600160a01b038216820361071e57565b600080fd5b602435906001600160a01b038216820361071e57565b6020810190811067ffffffffffffffff82111761075557604052565b634e487b7160e01b600052604160045260246000fd5b90601f8019910116810190811067ffffffffffffffff82111761075557604052565b67ffffffffffffffff811161075557601f01601f191660200190565b6000546001600160a01b031633036107bd57565b60405162461bcd60e51b815260206004820152601660248201527527b7363c9031b0b63630b1363290313c9037bbb732b960511b6044820152606490fd5b919082519283825260005b848110610827575050826000602080949584010152601f8019910116010190565b602081830181015184830182015201610806565b9067ffffffffffffffff909392931681526040602091818382015261086b855160a08484015260e08301906107fb565b916108878487015193603f1994858583030160608601526107fb565b8187015194848483030160808501528080875193848152019601926000905b8382106108df57505050505060c060806108dc959660018060a01b0360608201511660a0850152015192828503019101526107fb565b90565b845180516001600160a01b031689528301518884015296870196938201936001909101906108a656fea2646970667358221220781ea90d8c7b9a3bf90c2defde7e3c903c1a381b7c0c347850f534ff13c9526064736f6c63430008130033",
    "linkReferences": {}
  },
  "methodIdentifiers": {
    "acceptOwnership()": "79ba5097",
    "owner()": "8da5cb5b",
    "send(uint64,address,string,bool)": "95f58fb2",
    "transferOwnership(address)": "f2fde38b",
    "withdraw(address)": "51cff8d9",
    "withdrawToken(address,address)": "3aeac4e1"
  },
  "id": 63
}