{
  "abi": [
    {
      "inputs": [
        {
          "internalType": "contract IController",
          "name": "_controller",
          "type": "address"
        }
      ],
      "stateMutability": "nonpayable",
      "type": "constructor"
    },
    {
      "anonymous": false,
      "inputs": [
        {
          "indexed": true,
          "internalType": "address",
          "name": "_setToken",
          "type": "address"
        },
        {
          "indexed": true,
          "internalType": "address",
          "name": "_issuer",
          "type": "address"
        },
        {
          "indexed": true,
          "internalType": "address",
          "name": "_to",
          "type": "address"
        },
        {
          "indexed": false,
          "internalType": "address",
          "name": "_hookContract",
          "type": "address"
        },
        {
          "indexed": false,
          "internalType": "uint256",
          "name": "_quantity",
          "type": "uint256"
        }
      ],
      "name": "SetTokenIssued",
      "type": "event"
    },
    {
      "anonymous": false,
      "inputs": [
        {
          "indexed": true,
          "internalType": "address",
          "name": "_setToken",
          "type": "address"
        },
        {
          "indexed": true,
          "internalType": "address",
          "name": "_redeemer",
          "type": "address"
        },
        {
          "indexed": true,
          "internalType": "address",
          "name": "_to",
          "type": "address"
        },
        {
          "indexed": false,
          "internalType": "uint256",
          "name": "_quantity",
          "type": "uint256"
        }
      ],
      "name": "SetTokenRedeemed",
      "type": "event"
    },
    {
      "inputs": [],
      "name": "controller",
      "outputs": [
        {
          "internalType": "contract IController",
          "name": "",
          "type": "address"
        }
      ],
      "stateMutability": "view",
      "type": "function"
    },
    {
      "inputs": [
        {
          "internalType": "contract ISetToken",
          "name": "_setToken",
          "type": "address"
        },
        {
          "internalType": "uint256",
          "name": "_quantity",
          "type": "uint256"
        }
      ],
      "name": "getRequiredComponentUnitsForIssue",
      "outputs": [
        {
          "internalType": "address[]",
          "name": "",
          "type": "address[]"
        },
        {
          "internalType": "uint256[]",
          "name": "",
          "type": "uint256[]"
        }
      ],
      "stateMutability": "view",
      "type": "function"
    },
    {
      "inputs": [
        {
          "internalType": "contract ISetToken",
          "name": "_setToken",
          "type": "address"
        },
        {
          "internalType": "contract IManagerIssuanceHook",
          "name": "_preIssueHook",
          "type": "address"
        }
      ],
      "name": "initialize",
      "outputs": [],
      "stateMutability": "nonpayable",
      "type": "function"
    },
    {
      "inputs": [
        {
          "internalType": "contract ISetToken",
          "name": "_setToken",
          "type": "address"
        },
        {
          "internalType": "uint256",
          "name": "_quantity",
          "type": "uint256"
        },
        {
          "internalType": "address",
          "name": "_to",
          "type": "address"
        }
      ],
      "name": "issue",
      "outputs": [],
      "stateMutability": "nonpayable",
      "type": "function"
    },
    {
      "inputs": [
        {
          "internalType": "contract ISetToken",
          "name": "",
          "type": "address"
        }
      ],
      "name": "managerIssuanceHook",
      "outputs": [
        {
          "internalType": "contract IManagerIssuanceHook",
          "name": "",
          "type": "address"
        }
      ],
      "stateMutability": "view",
      "type": "function"
    },
    {
      "inputs": [
        {
          "internalType": "contract ISetToken",
          "name": "_setToken",
          "type": "address"
        },
        {
          "internalType": "uint256",
          "name": "_quantity",
          "type": "uint256"
        },
        {
          "internalType": "address",
          "name": "_to",
          "type": "address"
        }
      ],
      "name": "redeem",
      "outputs": [],
      "stateMutability": "nonpayable",
      "type": "function"
    },
    {
      "inputs": [],
      "name": "removeModule",
      "outputs": [],
      "stateMutability": "nonpayable",
      "type": "function"
    },
    {
      "inputs": [
        {
          "internalType": "address",
          "name": "_token",
          "type": "address"
        },
        {
          "internalType": "address",
          "name": "_from",
          "type": "address"
        },
        {
          "internalType": "address",
          "name": "_to",
          "type": "address"
        },
        {
          "internalType": "uint256",
          "name": "_quantity",
          "type": "uint256"
        }
      ],
      "name": "transferFromRaw",
      "outputs": [],
      "stateMutability": "nonpayable",
      "type": "function"
    }
  ],
  "bytecode": {
    "object": "0x60803461007857601f6115e638819003918201601f19168301916001600160401b0383118484101761007d5780849260209460405283398101031261007857516001600160a01b0381169081900361007857600080546001600160a01b0319169190911790556001805560405161155290816100948239f35b600080fd5b634e487b7160e01b600052604160045260246000fdfe608080604052600436101561001357600080fd5b600090813560e01c908163485cc95514610867575080635c833bfd146103d55780636d78f47a1461024a5780637a4ffd031461019f578063847ef08d14610130578063db56a529146100de578063dfe75335146100a25763f77c47911461007957600080fd5b3461009f578060031936011261009f57546040516001600160a01b039091168152602090f35b80fd5b503461009f57602036600319011261009f576020906001600160a01b0390604090826100cc610aee565b16815260028452205416604051908152f35b503461009f57608036600319011261009f576100f8610aee565b6001600160a01b0390602435828116810361012b5760443590838216820361012b576101289360643593166110d4565b80f35b600080fd5b503461009f578060031936011261009f5760405162461bcd60e51b815260206004820152603060248201527f54686520426173696349737375616e63654d6f64756c65206d6f64756c65206360448201526f185b9b9bdd081899481c995b5bdd995960821b6064820152608490fd5b503461009f57604036600319011261009f576101c56101bc610aee565b60243590610e91565b60405192839260408401906040855280518092526060850191602080920190845b81811061022a57505050848203818601528080855193848152019401925b82811061021357505050500390f35b835185528695509381019392810192600101610204565b82516001600160a01b0316855288975093830193918301916001016101e6565b503461009f5761025936610b04565b9192610263610bbd565b61026c84611401565b81156103905761027e8333848761104e565b906102898386610e91565b939092825b84518110156102d3576102ce906102c96001600160a01b03806102b1848a610b47565b51166102bd848b610b47565b51918c169033906110d4565b610b38565b61028e565b506001600160a01b03808816908790823b15610381576040516340c10f1960e01b81526001600160a01b0383166004820152602481018690528690818160448183895af180156103855761036d575b5050604080516001600160a01b039590951685526020850195909552169233927fc07f1e2fe31c4d90eae81f76d263d7995aac043a99d6ee6de9c0506047f541c29190a46001805580f35b61037690610b71565b610381578587610322565b8580fd5b6040513d84823e3d90fd5b60405162461bcd60e51b815260206004820152601a60248201527f4973737565207175616e74697479206d757374206265203e20300000000000006044820152606490fd5b503461009f576103e436610b04565b6103f093919293610bbd565b6103f984611401565b8215610822576001600160a01b0384163b1561081e57604051632770a7eb60e21b8152336004820152602481018490528281604481836001600160a01b038a165af180156107ff5790839161080a575b50506040516399d50d5d60e01b81529282846004816001600160a01b0389165afa9384156107ff5783946107db575b50825b8451811015610795576001600160a01b036104968287610b47565b5116906104ac6104a68389610e18565b15610cc1565b6040516366cb8d2f60e01b8152600481018390526020816024816001600160a01b038c165afa90811561078a578691610756575b506104fc6104f6670de0b6b3a764000092610d19565b85610e7e565b0480610513575b5061050e9150610b38565b61047b565b6040516370a0823160e01b81526001600160a01b038916600482015292602084602481845afa9384156105ee578794610722575b50816105f9575b6040516370a0823160e01b81526001600160a01b038a1660048201529190602090839060249082905afa9182156105ee5787926105ba575b5083039283116105a45761050e9261059e9114610d68565b38610503565b634e487b7160e01b600052601160045260246000fd5b9091506020813d6020116105e6575b816105d660209383610b9b565b8101031261012b57519038610586565b3d91506105c9565b6040513d89823e3d90fd5b60405163a9059cbb60e01b60208201526001600160a01b03871660248201526044808201849052815287908190610667908c90610637606482610b9b565b6040519485809481936347b7819960e11b8352896004840152836024840152606060448401526064830190610df3565b03926001600160a01b03165af1801561071757610685575b5061054e565b3d8089833e6106948183610b9b565b81019060208183031261071357805167ffffffffffffffff811161070f5782601f82840101121561070f5780820151926106cd84610db4565b906106db6040519283610b9b565b84825260208584860101011161070b5792602495949260206107039381809701920101610dd0565b91925061067f565b8a80fd5b8980fd5b8880fd5b6040513d8a823e3d90fd5b9093506020813d60201161074e575b8161073e60209383610b9b565b8101031261012b57519238610547565b3d9150610731565b90506020813d602011610782575b8161077160209383610b9b565b8101031261012b57516104fc6104e0565b3d9150610764565b6040513d88823e3d90fd5b506040519081526001600160a01b03918216913391908616907f05f8aaada00823525432114f0e904c6f7c0198a5b8f113ee635ff81aaf9566ad90602090a46001805580f35b6107f89194503d8085833e6107f08183610b9b565b810190610c3f565b9238610478565b6040513d85823e3d90fd5b61081390610b71565b61081e578138610449565b5080fd5b60405162461bcd60e51b815260206004820152601b60248201527f52656465656d207175616e74697479206d757374206265203e203000000000006044820152606490fd5b823461009f57604036600319011261009f57610881610aee565b6024926001600160a01b03918435838116929190839003610aea5763481c6a7560e01b82528316926020918281600481885afa90811561078a578691610ab5575b508133911603610a715781869186541660405192838092631d3af8fb60e21b82528860048301525afa9081156109fa578591610a54575b5015610a05576040516353bae5f760e01b815230600482015281818781875afa9081156109fa5785916109cd575b501561098a578394506002908385525260408320906bffffffffffffffffffffffff60a01b825416179055803b156109875781906004604051809481936307ff078f60e11b83525af180156103855761097e575080f35b61012890610b71565b50fd5b606490601e866040519262461bcd60e51b845260048401528201527f4d7573742062652070656e64696e6720696e697469616c697a6174696f6e00006044820152fd5b6109ed9150823d84116109f3575b6109e58183610b9b565b81019061134c565b86610927565b503d6109db565b6040513d87823e3d90fd5b6084906023866040519262461bcd60e51b845260048401528201527f4d75737420626520636f6e74726f6c6c65722d656e61626c656420536574546f60448201526235b2b760e91b6064820152fd5b610a6b9150823d84116109f3576109e58183610b9b565b866108f9565b60405162461bcd60e51b815260048101839052601c818801527f4d7573742062652074686520536574546f6b656e206d616e61676572000000006044820152606490fd5b90508281813d8311610ae3575b610acc8183610b9b565b8101031261038157610add90610c2b565b876108c2565b503d610ac2565b8480fd5b600435906001600160a01b038216820361012b57565b606090600319011261012b576001600160a01b03600435818116810361012b579160243591604435908116810361012b5790565b60001981146105a45760010190565b8051821015610b5b5760209160051b010190565b634e487b7160e01b600052603260045260246000fd5b67ffffffffffffffff8111610b8557604052565b634e487b7160e01b600052604160045260246000fd5b90601f8019910116810190811067ffffffffffffffff821117610b8557604052565b600260015414610bce576002600155565b60405162461bcd60e51b815260206004820152601f60248201527f5265656e7472616e637947756172643a207265656e7472616e742063616c6c006044820152606490fd5b67ffffffffffffffff8111610b855760051b60200190565b51906001600160a01b038216820361012b57565b602090818184031261012b5780519067ffffffffffffffff821161012b57019180601f8401121561012b578251610c7581610c13565b93610c836040519586610b9b565b818552838086019260051b82010192831161012b578301905b828210610caa575050505090565b838091610cb684610c2b565b815201910190610c9c565b15610cc857565b60405162461bcd60e51b8152602060048201526024808201527f4f6e6c792064656661756c7420706f736974696f6e732061726520737570706f6044820152631c9d195960e21b6064820152608490fd5b60008112610d245790565b606460405162461bcd60e51b815260206004820152602060248201527f53616665436173743a2076616c7565206d75737420626520706f7369746976656044820152fd5b15610d6f57565b60405162461bcd60e51b815260206004820152601d60248201527f496e76616c696420706f7374207472616e736665722062616c616e63650000006044820152606490fd5b67ffffffffffffffff8111610b8557601f01601f191660200190565b60005b838110610de35750506000910152565b8181015183820152602001610dd3565b90602091610e0c81518092818552858086019101610dd0565b601f01601f1916010190565b60405163a7bdad0360e01b81526001600160a01b0392831660048201529160009183916024918391165afa908115610e7257600091610e59575b5051151590565b610e6c913d8091833e6107f08183610b9b565b38610e52565b6040513d6000823e3d90fd5b818102929181159184041417156105a457565b919091610e9d81611401565b604080516399d50d5d60e01b8152916001600160a01b038181169160009160049083878381885afa968715610ff9578497610fdd575b50865196610ee088610c13565b97610eed8851998a610b9b565b808952610efc601f1991610c13565b019360209436868b0137855b8251811015610fce57610f2a6104a685610f228487610b47565b511684610e18565b83610f358285610b47565b518a516366cb8d2f60e01b815291168682015286816024818c5afa908115610fc457908d918991610f8d575b50610f889291610f73610f7892610d19565b611003565b610f82828d610b47565b52610b38565b610f08565b809250888092503d8311610fbd575b610fa68183610b9b565b81010312610fb957518c90610f88610f61565b8780fd5b503d610f9c565b8a513d8a823e3d90fd5b50509698505050505050509190565b610ff29197503d8086833e6107f08183610b9b565b9538610ed3565b86513d86823e3d90fd5b9081158015611046575b61103f5761101a91610e7e565b60001981019081116105a457670de0b6b3a76400009004600181018091116105a45790565b5050600090565b50801561100d565b6001600160a01b039081166000818152600260205260408120548316959094919390919086611081575050505050905090565b863b156103815760405163a045808360e01b81526004810195909552602485015282166044840152166064820152818160848183875af18015610385576110c757505090565b6110d090610b71565b5090565b9193929093816110e6575b5050509050565b60018060a01b0380931691604092835194806370a0823160e01b9485885216600494818689015260209260249a848a8d81895afa998a156113415760009a611312575b50885191858301916323b872dd60e01b8352168c8301528360448301528660648301526064825260a082019167ffffffffffffffff818410818511176112fe5760e08201908111848210176112fe578a528583527f5361666545524332303a206c6f772d6c6576656c2063616c6c206661696c656460c0820152516111e092916000918291828a5af13d156112f6573d906111c382610db4565b916111d08c519384610b9b565b82523d60008884013e5b87611364565b8051908482159283156112de575b505050156112895790898392885195869384928352898301525afa94851561127f575060009461124e575b5050830180931161123a575061123192935014610d68565b803880806110df565b60118591634e487b7160e01b600052526000fd5b8181959293953d8311611278575b6112668183610b9b565b8101031261009f575051913880611219565b503d61125c565b513d6000823e3d90fd5b865162461bcd60e51b8152808701849052602a818c01527f5361666545524332303a204552433230206f7065726174696f6e20646964206e6044820152691bdd081cdd58d8d9595960b21b6064820152608490fd5b6112ee935082018101910161134c565b3884816111ee565b6060906111da565b8d60418b634e487b7160e01b600052526000fd5b90998582813d831161133a575b6113298183610b9b565b8101031261009f5750519838611129565b503d61131f565b89513d6000823e3d90fd5b9081602091031261012b5751801515810361012b5790565b919290156113c65750815115611378575090565b3b156113815790565b60405162461bcd60e51b815260206004820152601d60248201527f416464726573733a2063616c6c20746f206e6f6e2d636f6e74726163740000006044820152606490fd5b8251909150156113d95750805190602001fd5b60405162461bcd60e51b8152602060048201529081906113fd906024830190610df3565b0390fd5b600054604051631d3af8fb60e21b81526001600160a01b03928316600482018190526020939092849183916024918391165afa918215610e725783916000936114fd575b50826114ab575b5050156114565750565b6084906040519062461bcd60e51b82526004820152602860248201527f4d75737420626520612076616c696420616e6420696e697469616c697a65642060448201526729b2ba2a37b5b2b760c11b6064820152fd5b6040516335fc6c9f60e21b81523060048201529250829060249082905afa908115610e72576000916114e0575b50813861144c565b6114f79150823d84116109f3576109e58183610b9b565b386114d8565b611515919350823d84116109f3576109e58183610b9b565b913861144556fea26469706673582212208aa01c1cbefce3c884603a2f6fd67ba21d42fb6611e493c2e32a6b5c8109c58b64736f6c63430008130033",
    "linkReferences": {}
  },
  "methodIdentifiers": {
    "controller()": "f77c4791",
    "getRequiredComponentUnitsForIssue(address,uint256)": "7a4ffd03",
    "initialize(address,address)": "485cc955",
    "issue(address,uint256,address)": "6d78f47a",
    "managerIssuanceHook(address)": "dfe75335",
    "redeem(address,uint256,address)": "5c833bfd",
    "removeModule()": "847ef08d",
    "transferFromRaw(address,address,address,uint256)": "db56a529"
  },
  "id": 66
}