{
  "abi": [
    {
      "inputs": [
        {
          "internalType": "contract IController",
          "name": "_controller",
          "type": "address"
        }
      ],
      "stateMutability": "nonpayable",
      "type": "constructor"
    },
    {
      "anonymous": false,
      "inputs": [
        {
          "indexed": true,
          "internalType": "contract ISetToken",
          "name": "_setToken",
          "type": "address"
        },
        {
          "indexed": true,
          "internalType": "address",
          "name": "_sendToken",
          "type": "address"
        },
        {
          "indexed": true,
          "internalType": "address",
          "name": "_receiveToken",
          "type": "address"
        },
        {
          "indexed": false,
          "internalType": "contract IExchangeAdapter",
          "name": "_exchangeAdapter",
          "type": "address"
        },
        {
          "indexed": false,
          "internalType": "uint256",
          "name": "_totalSendAmount",
          "type": "uint256"
        },
        {
          "indexed": false,
          "internalType": "uint256",
          "name": "_totalReceiveAmount",
          "type": "uint256"
        },
        {
          "indexed": false,
          "internalType": "uint256",
          "name": "_protocolFee",
          "type": "uint256"
        }
      ],
      "name": "ComponentExchanged",
      "type": "event"
    },
    {
      "inputs": [],
      "name": "controller",
      "outputs": [
        {
          "internalType": "contract IController",
          "name": "",
          "type": "address"
        }
      ],
      "stateMutability": "view",
      "type": "function"
    },
    {
      "inputs": [
        {
          "internalType": "contract ISetToken",
          "name": "_setToken",
          "type": "address"
        }
      ],
      "name": "initialize",
      "outputs": [],
      "stateMutability": "nonpayable",
      "type": "function"
    },
    {
      "inputs": [],
      "name": "removeModule",
      "outputs": [],
      "stateMutability": "nonpayable",
      "type": "function"
    },
    {
      "inputs": [
        {
          "internalType": "contract ISetToken",
          "name": "_setToken",
          "type": "address"
        },
        {
          "internalType": "string",
          "name": "_exchangeName",
          "type": "string"
        },
        {
          "internalType": "address",
          "name": "_sendToken",
          "type": "address"
        },
        {
          "internalType": "uint256",
          "name": "_sendQuantity",
          "type": "uint256"
        },
        {
          "internalType": "address",
          "name": "_receiveToken",
          "type": "address"
        },
        {
          "internalType": "uint256",
          "name": "_minReceiveQuantity",
          "type": "uint256"
        },
        {
          "internalType": "bytes",
          "name": "_data",
          "type": "bytes"
        }
      ],
      "name": "trade",
      "outputs": [],
      "stateMutability": "nonpayable",
      "type": "function"
    },
    {
      "inputs": [
        {
          "internalType": "address",
          "name": "_token",
          "type": "address"
        },
        {
          "internalType": "address",
          "name": "_from",
          "type": "address"
        },
        {
          "internalType": "address",
          "name": "_to",
          "type": "address"
        },
        {
          "internalType": "uint256",
          "name": "_quantity",
          "type": "uint256"
        }
      ],
      "name": "transferFromRaw",
      "outputs": [],
      "stateMutability": "nonpayable",
      "type": "function"
    }
  ],
  "bytecode": {
    "object": "0x60803461007857601f611c1238819003918201601f19168301916001600160401b0383118484101761007d5780849260209460405283398101031261007857516001600160a01b0381169081900361007857600080546001600160a01b03191691909117905560018055604051611b7e90816100948239f35b600080fd5b634e487b7160e01b600052604160045260246000fdfe6080604052600436101561001257600080fd5b6000803560e01c80630a5cb52914610509578063847ef08d146104f5578063c4d66de814610322578063db56a5291461007d5763f77c47911461005457600080fd5b3461007a578060031936011261007a57546040516001600160a01b039091168152602090f35b80fd5b503461007a57608036600319011261007a57610097611294565b602491906001600160a01b039083358281169190829003610245576100ba611349565b83606435921690826100ca578580f35b604051946370a0823160e01b91828752169081600487015260209485878a81875afa9687156103175788976102e8575b50604051868101916323b872dd60e01b83528a8201528360448201528560648201526064815260a081019067ffffffffffffffff818310818411176102d35760e08201908111838210176102d3576040528782527f5361666545524332303a206c6f772d6c6576656c2063616c6c206661696c656460c0820152516101af928a91829182895af13d156102cb573d90610192826112f6565b916101a060405193846112d4565b82523d8b8a84013e5b866113c3565b8051908682159283156102b3575b5050501561025c57908785926040519485938492835260048301525afa92831561025157859361021c575b50508201809211610209576101ff9293501461135f565b8038808080808580f35b5050634e487b7160e01b81526011600452fd5b9080929350813d831161024a575b61023481836112d4565b8101031261024557519038806101e8565b600080fd5b503d61022a565b6040513d87823e3d90fd5b60405162461bcd60e51b815260048101869052602a818a01527f5361666545524332303a204552433230206f7065726174696f6e20646964206e6044820152691bdd081cdd58d8d9595960b21b6064820152608490fd5b6102c393508201810191016113ab565b3886816101bd565b6060906101a9565b8b634e487b7160e01b60005260416004526000fd5b9096508581813d8311610310575b61030081836112d4565b81010312610245575195386100fa565b503d6102f6565b6040513d8a823e3d90fd5b503461007a576020908160031936011261007a5761033e611294565b8154604051631d3af8fb60e21b81526001600160a01b0380841660048301819052939592839183916024918391165afa90811561047d5784916104d8575b5015610488576040516353bae5f760e01b81523060048201528181602481865afa90811561047d578491610450575b501561040c57506103c66103c183943390611508565b6114a8565b803b156104095781906004604051809481936307ff078f60e11b83525af180156103fe576103f2575080f35b6103fb906112aa565b80f35b6040513d84823e3d90fd5b50fd5b6064906040519062461bcd60e51b82526004820152601e60248201527f4d7573742062652070656e64696e6720696e697469616c697a6174696f6e00006044820152fd5b6104709150823d8411610476575b61046881836112d4565b8101906113ab565b386103ab565b503d61045e565b6040513d86823e3d90fd5b6084906040519062461bcd60e51b82526004820152602360248201527f4d75737420626520636f6e74726f6c6c65722d656e61626c656420536574546f60448201526235b2b760e91b6064820152fd5b6104ef9150823d84116104765761046881836112d4565b3861037c565b503461007a578060031936011261007a5780f35b503461007a5760e036600319011261007a57610523611294565b60243567ffffffffffffffff8111610f525736602382011215610f5257610554903690602481600401359101611312565b9061055d611349565b916084356001600160a01b0381168103610ee35760c43567ffffffffffffffff8111610e575736602382011215610e57576105a2903690602481600401359101611312565b60026001541461124f5760026001556105be6103c13386611508565b8554604051631d3af8fb60e21b81526001600160a01b03868116600483015290911690602081602481855afa908115610317578891611230575b50806111d7575b156111815760249061060f61158d565b50602061061a61158d565b9560018060a01b038816875281815191012091604051938480926373b2e76b60e11b82528c60048301525afa918215610317578892611143575b5060405163e6d642c560e01b8152306004820152602481019190915290602090829060449082906001600160a01b03165afa908115610f12578791611109575b506001600160a01b031680156110cc576020848101919091526001600160a01b038681166040808701919091528482166060870152516318160ddd60e01b815291908290600490829089165afa908115610f12578791611098575b5061070c81670de0b6b3a7640000926080870152606435906115e4565b0460a0840152670de0b6b3a764000061072b60a43560808601516115e4565b0460c08401526040516370a0823160e01b81526001600160a01b038581166004830152602090829060249082908a165afa908115610f12578791611066575b5060e08401526040516370a0823160e01b81526001600160a01b0385811660048301526020908290602490829087165afa908115610f12578791611034575b5061010084015260a083015115610fef57825160408085015190516366cb8d2f60e01b81526001600160a01b0391821660048201529160209183916024918391165afa908115610f12578791610fb9575b5061080660643561160d565b13610f69578251604080850151602080870151925163334fc28960e01b8152938a936001600160a01b0393841693918216929186916004918391165afa918215610f5e578392610f1d575b60a088015160405163095ea7b360e01b60208201526001600160a01b0394909416602485015260448085019190915283526108c294506108926064846112d4565b836040518096819582946347b7819960e11b84526004840152836024840152606060448401526064830190611483565b03925af18015610f1257610ef8575b5060208301516040808501516060860151865160a088015160c0808a0151955163e171fcab60e01b81526001600160a01b039586166004820152938516602485015291841660448401526064830152608482019390935260a481019290925290928892839285929116908290819061094d9060c4830190611483565b03915afa8015610eeb5781828392610e88575b86516040516347b7819960e11b81526001600160a01b03938416600482015260248101929092526060604483015290945084929116908290849082906109aa906064830190611483565b03925af18015610e6357610e6e575b50606082015182516040516370a0823160e01b81526001600160a01b0391821660048201529160209183916024918391165afa8015610e63578690610e2b575b610a0a9150610100840151906116df565b60c08301518110610de657855460405163792aa04f60e01b8152306004820152602481018890526001600160a01b039091169190602081604481865afa908115610317578891610dac575b50610a6990670de0b6b3a7640000926115e4565b049060018060a01b0384511660018060a01b036060860151169183610b68575b50508351604085015160808681015160e08801517ff26ad8d17d1f980b62e857e137d0a000ce14bcf3b2aa54e1a0c7d57cf907e1a49792969295509193610adc936001600160a01b0390811691166116ec565b50508551606087015185880151610100890151939893610b2b93610b1e93610b1193916001600160a01b0391821691166116ec565b50509760e08401516116df565b96610100830151906116df565b602091820151604080516001600160a01b039283168152938401989098529682015260608101919091529084169584169490931692a46001805580f35b60206004916040519283809263011a412160e61b82525afa908115610da1578991610d63575b508315610a89576040516370a0823160e01b81526004810183905291602083602481875afa928315610d20578a93610d2b575b50898580610c78575b5050602091506024604051809581936370a0823160e01b835260048301525afa918215610317578892610c3a575b5091610c327ff26ad8d17d1f980b62e857e137d0a000ce14bcf3b2aa54e1a0c7d57cf907e1a49492610c2c836080966116df565b1461135f565b918193610a89565b939150916020843d602011610c70575b81610c57602093836112d4565b81010312610c6c579251909291610c32610bf8565b8780fd5b3d9150610c4a565b60405163a9059cbb60e01b60208201526001600160a01b039490941660248501526044808501919091528352610ce192610cb36064826112d4565b604051809481926347b7819960e11b8352886004840152846024840152606060448401526064830190611483565b038183855af1918215610d2057602092610cfe575b508985610bca565b610d19903d808d833e610d1181836112d4565b8101906116b9565b5038610cf6565b6040513d8c823e3d90fd5b9092506020813d602011610d5b575b81610d47602093836112d4565b81010312610d5757519138610bc1565b8980fd5b3d9150610d3a565b90506020813d602011610d99575b81610d7e602093836112d4565b81010312610d9557610d8f906114f4565b38610b8e565b8880fd5b3d9150610d71565b6040513d8b823e3d90fd5b90506020813d602011610dde575b81610dc7602093836112d4565b81010312610c6c5751670de0b6b3a7640000610a55565b3d9150610dba565b60405162461bcd60e51b815260206004820152601d60248201527f536c6970706167652067726561746572207468616e20616c6c6f7765640000006044820152606490fd5b506020813d602011610e5b575b81610e45602093836112d4565b81010312610e5757610a0a90516109f9565b8580fd5b3d9150610e38565b6040513d88823e3d90fd5b610e81903d8088833e610d1181836112d4565b50386109b9565b5050503d8082843e610e9a81846112d4565b6060838281010312610ee757610eaf836114f4565b9060208401519060408501519467ffffffffffffffff8611610ee3576109aa95610edc9282019101611674565b9190610960565b8480fd5b5080fd5b50604051903d90823e3d90fd5b610f0b903d8089833e610d1181836112d4565b50386108d1565b6040513d89823e3d90fd5b91506020843d602011610f56575b81610f38602093836112d4565b81010312610f5257610f4c6108c2946114f4565b91610851565b8280fd5b3d9150610f2b565b6040513d85823e3d90fd5b60405162461bcd60e51b815260206004820152602260248201527f556e69742063616e742062652067726561746572207468616e206578697374696044820152616e6760f01b6064820152608490fd5b90506020813d602011610fe7575b81610fd4602093836112d4565b81010312610fe35751386107fa565b8680fd5b3d9150610fc7565b60405162461bcd60e51b815260206004820152601d60248201527f546f6b656e20746f2073656c6c206d757374206265206e6f6e7a65726f0000006044820152606490fd5b90506020813d60201161105e575b8161104f602093836112d4565b81010312610fe35751386107a9565b3d9150611042565b90506020813d602011611090575b81611081602093836112d4565b81010312610fe357513861076a565b3d9150611074565b90506020813d6020116110c4575b816110b3602093836112d4565b81010312610fe3575161070c6106ef565b3d91506110a6565b60405162461bcd60e51b815260206004820152601560248201527426bab9ba103132903b30b634b21030b230b83a32b960591b6044820152606490fd5b90506020813d60201161113b575b81611124602093836112d4565b81010312610fe357611135906114f4565b38610694565b3d9150611117565b9091506020813d602011611179575b8161115f602093836112d4565b81010312610c6c576111726020916114f4565b9190610654565b3d9150611152565b60405162461bcd60e51b815260206004820152602860248201527f4d75737420626520612076616c696420616e6420696e697469616c697a65642060448201526729b2ba2a37b5b2b760c11b6064820152608490fd5b506040516335fc6c9f60e21b81523060048201526020816024816001600160a01b038a165afa908115610317578891611211575b506105ff565b61122a915060203d6020116104765761046881836112d4565b3861120b565b611249915060203d6020116104765761046881836112d4565b386105f8565b60405162461bcd60e51b815260206004820152601f60248201527f5265656e7472616e637947756172643a207265656e7472616e742063616c6c006044820152606490fd5b600435906001600160a01b038216820361024557565b67ffffffffffffffff81116112be57604052565b634e487b7160e01b600052604160045260246000fd5b90601f8019910116810190811067ffffffffffffffff8211176112be57604052565b67ffffffffffffffff81116112be57601f01601f191660200190565b92919261131e826112f6565b9161132c60405193846112d4565b829481845281830111610245578281602093846000960137010152565b604435906001600160a01b038216820361024557565b1561136657565b60405162461bcd60e51b815260206004820152601d60248201527f496e76616c696420706f7374207472616e736665722062616c616e63650000006044820152606490fd5b90816020910312610245575180151581036102455790565b9192901561142557508151156113d7575090565b3b156113e05790565b60405162461bcd60e51b815260206004820152601d60248201527f416464726573733a2063616c6c20746f206e6f6e2d636f6e74726163740000006044820152606490fd5b8251909150156114385750805190602001fd5b60405162461bcd60e51b81526020600482015290819061145c906024830190611483565b0390fd5b60005b8381106114735750506000910152565b8181015183820152602001611463565b9060209161149c81518092818552858086019101611460565b601f01601f1916010190565b156114af57565b60405162461bcd60e51b815260206004820152601c60248201527f4d7573742062652074686520536574546f6b656e206d616e61676572000000006044820152606490fd5b51906001600160a01b038216820361024557565b60405163481c6a7560e01b8152916001600160a01b03916020908490600490829086165afa92831561158157600093611545575b50811691161490565b90926020823d8211611579575b8161155f602093836112d4565b8101031261007a575061157282916114f4565b929061153c565b3d9150611552565b6040513d6000823e3d90fd5b60405190610120820182811067ffffffffffffffff8211176112be57604052816101006000918281528260208201528260408201528260608201528260808201528260a08201528260c08201528260e08201520152565b818102929181159184041417156115f757565b634e487b7160e01b600052601160045260246000fd5b6001600160ff1b03811161161e5790565b60405162461bcd60e51b815260206004820152602860248201527f53616665436173743a2076616c756520646f65736e27742066697420696e2061604482015267371034b73a191a9b60c11b6064820152608490fd5b81601f8201121561024557805161168a816112f6565b9261169860405194856112d4565b81845260208284010111610245576116b69160208085019101611460565b90565b9060208282031261024557815167ffffffffffffffff8111610245576116b69201611674565b919082039182116115f757565b604080516370a0823160e01b81526001600160a01b0380841660048084018290529698969295600095602495949382169392916020808a8981895afa998a15611a3e57899a611a0f575b5086519c8d9c826366cb8d2f60e01b9e8f815289898201528b81895afa9e8f15611a05578b9f6119d3575b508a8f12611993578e908c156119895761179561179b91849361178e670de0b6b3a76400009586926115e4565b04906116df565b8d6116df565b81810291818304149015171561197757811561196557049b5b8751908152868682015281818a81885afa91821561195b57908a9291839261192a575b505013801580611921575b156118ad57506117f191611a48565b15611859575b6118008961160d565b813b15610fe357918660449281959487519889968795632ba57d1760e01b87528601528401525af1908115611850575061183c575b5050929190565b61184682916112aa565b61007a5780611835565b513d84823e3d90fd5b803b15610e575783516304e3532760e41b81528281018490528681878183865af180156118a35790879161188f575b50506117f7565b611898906112aa565b610e57578538611888565b85513d89823e3d90fd5b80611919575b6118be5750506117f7565b6118c791611a48565b156118d4575b3880611888565b803b15610e57578351636f86c89760e01b81528281018490528681878183865af180156118a357611906575b506118cd565b611912909691966112aa565b9438611900565b508a156118b3565b508b15156117e2565b8193508092503d8311611954575b61194281836112d4565b81010312610d955788905138806117d7565b503d611938565b88513d8c823e3d90fd5b634e487b7160e01b8b5260128752898bfd5b634e487b7160e01b8b5260118752898bfd5b505050889b6117b4565b606487848c818d519362461bcd60e51b85528401528201527f53616665436173743a2076616c7565206d75737420626520706f7369746976656044820152fd5b8b9f508381813d83116119fe575b6119eb81836112d4565b810103126119fa57519e611761565b8b80fd5b503d6119e1565b89513d8d823e3d90fd5b90809a5081813d8311611a37575b611a2781836112d4565b81010312610d9557519838611736565b503d611a1d565b87513d8b823e3d90fd5b60405163a7bdad0360e01b81526001600160a01b0392831660048201526000929091839183916024918391165afa918215611b3c578092611a8c575b505051151590565b9091503d8082843e611a9e81846112d4565b8201602091828483031261007a57835167ffffffffffffffff94858211610f52570182601f82011215610ee7578051948511611b28578460051b9160405195611ae9868501886112d4565b8652848087019383010193841161007a57508301905b828210611b1157505050503880611a84565b838091611b1d846114f4565b815201910190611aff565b634e487b7160e01b82526041600452602482fd5b604051903d90823e3d90fdfea2646970667358221220f28976ac3b7ddcd705325caf8af15513e9acf277882f1f48649a02e441f66a9f64736f6c63430008130033",
    "linkReferences": {}
  },
  "methodIdentifiers": {
    "controller()": "f77c4791",
    "initialize(address)": "c4d66de8",
    "removeModule()": "847ef08d",
    "trade(address,string,address,uint256,address,uint256,bytes)": "0a5cb529",
    "transferFromRaw(address,address,address,uint256)": "db56a529"
  },
  "id": 69
}