{
  "abi": [
    {
      "inputs": [
        {
          "internalType": "address",
          "name": "_feeRecipient",
          "type": "address"
        }
      ],
      "stateMutability": "nonpayable",
      "type": "constructor"
    },
    {
      "anonymous": false,
      "inputs": [
        {
          "indexed": true,
          "internalType": "address",
          "name": "_factory",
          "type": "address"
        }
      ],
      "name": "FactoryAdded",
      "type": "event"
    },
    {
      "anonymous": false,
      "inputs": [
        {
          "indexed": true,
          "internalType": "address",
          "name": "_factory",
          "type": "address"
        }
      ],
      "name": "FactoryRemoved",
      "type": "event"
    },
    {
      "anonymous": false,
      "inputs": [
        {
          "indexed": true,
          "internalType": "address",
          "name": "_module",
          "type": "address"
        },
        {
          "indexed": true,
          "internalType": "uint256",
          "name": "_feeType",
          "type": "uint256"
        },
        {
          "indexed": false,
          "internalType": "uint256",
          "name": "_feePercentage",
          "type": "uint256"
        }
      ],
      "name": "FeeEdited",
      "type": "event"
    },
    {
      "anonymous": false,
      "inputs": [
        {
          "indexed": false,
          "internalType": "address",
          "name": "_newFeeRecipient",
          "type": "address"
        }
      ],
      "name": "FeeRecipientChanged",
      "type": "event"
    },
    {
      "anonymous": false,
      "inputs": [
        {
          "indexed": true,
          "internalType": "address",
          "name": "_module",
          "type": "address"
        }
      ],
      "name": "ModuleAdded",
      "type": "event"
    },
    {
      "anonymous": false,
      "inputs": [
        {
          "indexed": true,
          "internalType": "address",
          "name": "_module",
          "type": "address"
        }
      ],
      "name": "ModuleRemoved",
      "type": "event"
    },
    {
      "anonymous": false,
      "inputs": [
        {
          "indexed": true,
          "internalType": "address",
          "name": "previousOwner",
          "type": "address"
        },
        {
          "indexed": true,
          "internalType": "address",
          "name": "newOwner",
          "type": "address"
        }
      ],
      "name": "OwnershipTransferred",
      "type": "event"
    },
    {
      "anonymous": false,
      "inputs": [
        {
          "indexed": true,
          "internalType": "address",
          "name": "_resource",
          "type": "address"
        },
        {
          "indexed": false,
          "internalType": "uint256",
          "name": "_id",
          "type": "uint256"
        }
      ],
      "name": "ResourceAdded",
      "type": "event"
    },
    {
      "anonymous": false,
      "inputs": [
        {
          "indexed": true,
          "internalType": "address",
          "name": "_resource",
          "type": "address"
        },
        {
          "indexed": false,
          "internalType": "uint256",
          "name": "_id",
          "type": "uint256"
        }
      ],
      "name": "ResourceRemoved",
      "type": "event"
    },
    {
      "anonymous": false,
      "inputs": [
        {
          "indexed": true,
          "internalType": "address",
          "name": "_setToken",
          "type": "address"
        },
        {
          "indexed": true,
          "internalType": "address",
          "name": "_factory",
          "type": "address"
        }
      ],
      "name": "SetAdded",
      "type": "event"
    },
    {
      "anonymous": false,
      "inputs": [
        {
          "indexed": true,
          "internalType": "address",
          "name": "_setToken",
          "type": "address"
        }
      ],
      "name": "SetRemoved",
      "type": "event"
    },
    {
      "inputs": [
        {
          "internalType": "address",
          "name": "_factory",
          "type": "address"
        }
      ],
      "name": "addFactory",
      "outputs": [],
      "stateMutability": "nonpayable",
      "type": "function"
    },
    {
      "inputs": [
        {
          "internalType": "address",
          "name": "_module",
          "type": "address"
        },
        {
          "internalType": "uint256",
          "name": "_feeType",
          "type": "uint256"
        },
        {
          "internalType": "uint256",
          "name": "_newFeePercentage",
          "type": "uint256"
        }
      ],
      "name": "addFee",
      "outputs": [],
      "stateMutability": "nonpayable",
      "type": "function"
    },
    {
      "inputs": [
        {
          "internalType": "address",
          "name": "_module",
          "type": "address"
        }
      ],
      "name": "addModule",
      "outputs": [],
      "stateMutability": "nonpayable",
      "type": "function"
    },
    {
      "inputs": [
        {
          "internalType": "address",
          "name": "_resource",
          "type": "address"
        },
        {
          "internalType": "uint256",
          "name": "_id",
          "type": "uint256"
        }
      ],
      "name": "addResource",
      "outputs": [],
      "stateMutability": "nonpayable",
      "type": "function"
    },
    {
      "inputs": [
        {
          "internalType": "address",
          "name": "_setToken",
          "type": "address"
        }
      ],
      "name": "addSet",
      "outputs": [],
      "stateMutability": "nonpayable",
      "type": "function"
    },
    {
      "inputs": [
        {
          "internalType": "address",
          "name": "_module",
          "type": "address"
        },
        {
          "internalType": "uint256",
          "name": "_feeType",
          "type": "uint256"
        },
        {
          "internalType": "uint256",
          "name": "_newFeePercentage",
          "type": "uint256"
        }
      ],
      "name": "editFee",
      "outputs": [],
      "stateMutability": "nonpayable",
      "type": "function"
    },
    {
      "inputs": [
        {
          "internalType": "address",
          "name": "_newFeeRecipient",
          "type": "address"
        }
      ],
      "name": "editFeeRecipient",
      "outputs": [],
      "stateMutability": "nonpayable",
      "type": "function"
    },
    {
      "inputs": [
        {
          "internalType": "uint256",
          "name": "",
          "type": "uint256"
        }
      ],
      "name": "factories",
      "outputs": [
        {
          "internalType": "address",
          "name": "",
          "type": "address"
        }
      ],
      "stateMutability": "view",
      "type": "function"
    },
    {
      "inputs": [],
      "name": "feeRecipient",
      "outputs": [
        {
          "internalType": "address",
          "name": "",
          "type": "address"
        }
      ],
      "stateMutability": "view",
      "type": "function"
    },
    {
      "inputs": [
        {
          "internalType": "address",
          "name": "",
          "type": "address"
        },
        {
          "internalType": "uint256",
          "name": "",
          "type": "uint256"
        }
      ],
      "name": "fees",
      "outputs": [
        {
          "internalType": "uint256",
          "name": "",
          "type": "uint256"
        }
      ],
      "stateMutability": "view",
      "type": "function"
    },
    {
      "inputs": [],
      "name": "getFactories",
      "outputs": [
        {
          "internalType": "address[]",
          "name": "",
          "type": "address[]"
        }
      ],
      "stateMutability": "view",
      "type": "function"
    },
    {
      "inputs": [
        {
          "internalType": "address",
          "name": "_moduleAddress",
          "type": "address"
        },
        {
          "internalType": "uint256",
          "name": "_feeType",
          "type": "uint256"
        }
      ],
      "name": "getModuleFee",
      "outputs": [
        {
          "internalType": "uint256",
          "name": "",
          "type": "uint256"
        }
      ],
      "stateMutability": "view",
      "type": "function"
    },
    {
      "inputs": [],
      "name": "getModules",
      "outputs": [
        {
          "internalType": "address[]",
          "name": "",
          "type": "address[]"
        }
      ],
      "stateMutability": "view",
      "type": "function"
    },
    {
      "inputs": [],
      "name": "getResources",
      "outputs": [
        {
          "internalType": "address[]",
          "name": "",
          "type": "address[]"
        }
      ],
      "stateMutability": "view",
      "type": "function"
    },
    {
      "inputs": [],
      "name": "getSets",
      "outputs": [
        {
          "internalType": "address[]",
          "name": "",
          "type": "address[]"
        }
      ],
      "stateMutability": "view",
      "type": "function"
    },
    {
      "inputs": [
        {
          "internalType": "address[]",
          "name": "_factories",
          "type": "address[]"
        },
        {
          "internalType": "address[]",
          "name": "_modules",
          "type": "address[]"
        },
        {
          "internalType": "address[]",
          "name": "_resources",
          "type": "address[]"
        },
        {
          "internalType": "uint256[]",
          "name": "_resourceIds",
          "type": "uint256[]"
        }
      ],
      "name": "initialize",
      "outputs": [],
      "stateMutability": "nonpayable",
      "type": "function"
    },
    {
      "inputs": [
        {
          "internalType": "address",
          "name": "",
          "type": "address"
        }
      ],
      "name": "isFactory",
      "outputs": [
        {
          "internalType": "bool",
          "name": "",
          "type": "bool"
        }
      ],
      "stateMutability": "view",
      "type": "function"
    },
    {
      "inputs": [],
      "name": "isInitialized",
      "outputs": [
        {
          "internalType": "bool",
          "name": "",
          "type": "bool"
        }
      ],
      "stateMutability": "view",
      "type": "function"
    },
    {
      "inputs": [
        {
          "internalType": "address",
          "name": "",
          "type": "address"
        }
      ],
      "name": "isModule",
      "outputs": [
        {
          "internalType": "bool",
          "name": "",
          "type": "bool"
        }
      ],
      "stateMutability": "view",
      "type": "function"
    },
    {
      "inputs": [
        {
          "internalType": "address",
          "name": "",
          "type": "address"
        }
      ],
      "name": "isResource",
      "outputs": [
        {
          "internalType": "bool",
          "name": "",
          "type": "bool"
        }
      ],
      "stateMutability": "view",
      "type": "function"
    },
    {
      "inputs": [
        {
          "internalType": "address",
          "name": "",
          "type": "address"
        }
      ],
      "name": "isSet",
      "outputs": [
        {
          "internalType": "bool",
          "name": "",
          "type": "bool"
        }
      ],
      "stateMutability": "view",
      "type": "function"
    },
    {
      "inputs": [
        {
          "internalType": "address",
          "name": "_contractAddress",
          "type": "address"
        }
      ],
      "name": "isSystemContract",
      "outputs": [
        {
          "internalType": "bool",
          "name": "",
          "type": "bool"
        }
      ],
      "stateMutability": "view",
      "type": "function"
    },
    {
      "inputs": [
        {
          "internalType": "uint256",
          "name": "",
          "type": "uint256"
        }
      ],
      "name": "modules",
      "outputs": [
        {
          "internalType": "address",
          "name": "",
          "type": "address"
        }
      ],
      "stateMutability": "view",
      "type": "function"
    },
    {
      "inputs": [],
      "name": "owner",
      "outputs": [
        {
          "internalType": "address",
          "name": "",
          "type": "address"
        }
      ],
      "stateMutability": "view",
      "type": "function"
    },
    {
      "inputs": [
        {
          "internalType": "address",
          "name": "_factory",
          "type": "address"
        }
      ],
      "name": "removeFactory",
      "outputs": [],
      "stateMutability": "nonpayable",
      "type": "function"
    },
    {
      "inputs": [
        {
          "internalType": "address",
          "name": "_module",
          "type": "address"
        }
      ],
      "name": "removeModule",
      "outputs": [],
      "stateMutability": "nonpayable",
      "type": "function"
    },
    {
      "inputs": [
        {
          "internalType": "uint256",
          "name": "_id",
          "type": "uint256"
        }
      ],
      "name": "removeResource",
      "outputs": [],
      "stateMutability": "nonpayable",
      "type": "function"
    },
    {
      "inputs": [
        {
          "internalType": "address",
          "name": "_setToken",
          "type": "address"
        }
      ],
      "name": "removeSet",
      "outputs": [],
      "stateMutability": "nonpayable",
      "type": "function"
    },
    {
      "inputs": [],
      "name": "renounceOwnership",
      "outputs": [],
      "stateMutability": "nonpayable",
      "type": "function"
    },
    {
      "inputs": [
        {
          "internalType": "uint256",
          "name": "",
          "type": "uint256"
        }
      ],
      "name": "resourceId",
      "outputs": [
        {
          "internalType": "address",
          "name": "",
          "type": "address"
        }
      ],
      "stateMutability": "view",
      "type": "function"
    },
    {
      "inputs": [
        {
          "internalType": "uint256",
          "name": "",
          "type": "uint256"
        }
      ],
      "name": "resources",
      "outputs": [
        {
          "internalType": "address",
          "name": "",
          "type": "address"
        }
      ],
      "stateMutability": "view",
      "type": "function"
    },
    {
      "inputs": [
        {
          "internalType": "uint256",
          "name": "",
          "type": "uint256"
        }
      ],
      "name": "sets",
      "outputs": [
        {
          "internalType": "address",
          "name": "",
          "type": "address"
        }
      ],
      "stateMutability": "view",
      "type": "function"
    },
    {
      "inputs": [
        {
          "internalType": "address",
          "name": "newOwner",
          "type": "address"
        }
      ],
      "name": "transferOwnership",
      "outputs": [],
      "stateMutability": "nonpayable",
      "type": "function"
    }
  ],
  "bytecode": {
    "object": "0x6080346100a757601f6120bd38819003918201601f19168301916001600160401b038311848410176100ac578084926020946040528339810103126100a757516001600160a01b0390818116908190036100a75760005460018060a01b0319903382821617600055604051933391167f8be0079c531659141344cd1fd0a4f28419497f9722a3daafe3b4186f6b6457e0600080a3600b541617600b55611ffa90816100c38239f35b600080fd5b634e487b7160e01b600052604160045260246000fdfe60406080815260048036101561001457600080fd5b600091823560e01c806301b98339146117515780630f04ba671461171357806313bc6d4b1461167757806319e2c349146115115780631ed86f1914611407578063207a9485146113c9578063244d6daa14611385578063263a536214610e0b57806329ce1ec51461127a5780632cf7c5311461125c578063392e53cd1461123557806342f6e389146111f757806346904840146111ce5780634b37c73f146110625780635b227f9b1461101d578063672383c414610fd8578063715018a614610f7b57806374ebe3ec14610f3d57806376a5bcf614610e4c578063792aa04f14610e0b5780637e6cbb6a14610ded57806381b2248a14610da85780638da5cb5b14610d80578063a063246114610c35578063a3c5661514610769578063b2494df31461074b578063c1cc57b01461071e578063c5bb387b14610661578063d580ded4146104e3578063e0b7531714610374578063e765ced614610341578063f2fde38b1461027e5763f36b9a9a1461018b57600080fd5b3461027a5761019936611944565b9093916101ad60ff600b5460a01c16611b6b565b6101b5611a2c565b60018060a01b031692838652602092600784526101d760ff8389205416611d4a565b8487526009845281872086885284528187205461022f5750907f84d9943a841552627b79770783a3cfd4da8303efc30bd75b65d863bd909926e39291848752600983528087208688528352818188205551908152a380f35b83608492519162461bcd60e51b8352820152602160248201527f466565207479706520616c726561647920657869737473206f6e206d6f64756c6044820152606560f81b6064820152fd5b8280fd5b50903461027a57602036600319011261027a576102996118e5565b906102a2611a2c565b6001600160a01b039182169283156102ef57505082546001600160a01b0319811683178455167f8be0079c531659141344cd1fd0a4f28419497f9722a3daafe3b4186f6b6457e08380a380f35b906020608492519162461bcd60e51b8352820152602660248201527f4f776e61626c653a206e6577206f776e657220697320746865207a65726f206160448201526564647265737360d01b6064820152fd5b50903461027a57602036600319011261027a57358252600a6020908152918190205490516001600160a01b039091168152f35b508290346104df57806003193601126104df5761038f6118e5565b6024356103a360ff600b5460a01c16611b6b565b6103ab611a2c565b60018060a01b03809216928385526020926008845260ff828720541661049c576103e190838752600a8552828720541615611b1f565b83855260088352808520805460ff19166001179055818552600a835280852080546001600160a01b031990811686179091558654600160401b811015610489576001810180895581101561047657947f5674036e091d8b4ee7f8e06cc71d41ee33f3fc331821fc0e017c1a091e8c861e958798829852600080516020611fa5833981519152019182541617905551908152a280f35b634e487b7160e01b875260328852602487fd5b634e487b7160e01b875260418852602487fd5b815162461bcd60e51b8152808801859052601760248201527f5265736f7572636520616c7265616479206578697374730000000000000000006044820152606490fd5b5080fd5b50903461027a576020918260031936011261065d576105006118e5565b61051160ff600b5460a01c16611b6b565b3385526006845260ff82862054161561061b576001600160a01b0316808552600584528185205490939060ff166105e557600590848652528320600160ff1982541617905560015490600160401b8210156105d25760018201806001558210156105bf5750600080516020611f858339815191520180546001600160a01b0319168217905533907fdb18a8959c84999e8bddb4624081f905f78eb9d63ec80b48d3daf2d38ae660a28380a380f35b634e487b7160e01b845260329052602483fd5b634e487b7160e01b845260419052602483fd5b905162461bcd60e51b815291820152601260248201527153657420616c72656164792065786973747360701b6044820152606490fd5b5091606492519162461bcd60e51b8352820152601d60248201527f4f6e6c792076616c696420666163746f726965732063616e2063616c6c0000006044820152fd5b8380fd5b503461027a57602036600319011261027a5761067b6118e5565b600b549061068e60ff8360a01c16611b6b565b610696611a2c565b6001600160a01b03169283156106e357506001600160a01b0319168217600b55519081527f167cccccc6e9b2892a740ec13fc1e51d3de8ea384f25bd87fee7412d588637e290602090a180f35b606490602084519162461bcd60e51b83528201526015602482015274041646472657373206d757374206e6f74206265203605c1b6044820152fd5b8382346104df57816003193601126104df576107479061073c611bb7565b905191829182611900565b0390f35b8382346104df57816003193601126104df576107479061073c611ce6565b508290346104df5760803660031901126104df5767ffffffffffffffff9183358381116104df5761079d90369086016119be565b602494853585811161065d576107b690369083016119be565b604435868111610c31576107cd90369084016119be565b9560643592818411610c2d5736602385011215610c2d5783810135986107f28a6119a6565b946107ff8951968761196e565b8a865260209a828c88019160051b83010191368311610c295790838d9201905b838210610c1a5750505050610832611a2c565b60ff600b5460a01c16610bce578851855103610b8c578551838111610ab857600160401b90818111610b225760025481600255808210610b5e575b508b880160028a528c8a5b838110610b3457505050508451848111610b2257818111610b225760035481600355808210610af4575b508b860160038a528c8a5b838110610aca57505050508951938411610ab8578311610aa757508054828255808310610a79575b508552868801855b828110610a5057505050835b835181101561093f5761093a906001600160a01b036109158161090c8489611aa9565b51161515611ad3565b61091f8287611aa9565b5116865260068952868620805460ff19166001179055611a84565b6108e9565b50915093825b82518110156109925761098d906001600160a01b036109688161090c8488611aa9565b6109728286611aa9565b5116855260078852858520805460ff19166001179055611a84565b610945565b8682878787805b8451811015610a3957610a34906001600160a01b036109bc8161090c848a611aa9565b6109c68287611aa9565b518452600a908189526109de81878720541615611b1f565b806109e9848a611aa9565b5116855260088952858520805460ff19166001179055610a098389611aa9565b511690610a168388611aa9565b518552885284842080546001600160a01b0319169091179055611a84565b610999565b50600b805460ff60a01b1916600160a01b17905580f35b81516001600160a01b0316600080516020611fa5833981519152820155908901906001016108dd565b82600080516020611fa583398151915291820191015b818110610a9c57506108d5565b878155600101610a8f565b634e487b7160e01b87526041825286fd5b50634e487b7160e01b87526041825286fd5b82516001600160a01b0316600080516020611f658339815191528201559101908d906001016108ad565b81600080516020611f6583398151915291820191015b818110610b1757506108a2565b8a8155600101610b0a565b634e487b7160e01b8952604184528289fd5b82516001600160a01b0316600080516020611f458339815191528201559101908d90600101610878565b81600080516020611f4583398151915291820191015b818110610b81575061086d565b8a8155600101610b74565b875162461bcd60e51b81529182018a9052601b908201527f4172726179206c656e6774687320646f206e6f74206d617463682e00000000006044820152606490fd5b875162461bcd60e51b81529182018a90526021908201527f436f6e74726f6c6c657220697320616c726561647920696e697469616c697a656044820152601960fa1b6064820152608490fd5b8135815290820190820161081f565b8980fd5b8580fd5b8480fd5b503461027a5760208060031936011261065d57610c506118e5565b92610c6260ff600b5460a01c16611b6b565b610c6a611a2c565b6001600160a01b0384811680875260078452848720549095610c9f91610c929060ff16611d4a565b610c9a611ce6565b611d8e565b80519267ffffffffffffffff8411610d6d57600160401b8411610d6d5750839060035484600355808510610d3c575b50019060038752865b838110610d1a5750505083855250600790528220805460ff191690557f0a1ee69f55c33d8467c69ca59ce2007a737a88603d75392972520bf67cb513b88280a280f35b82518216600080516020611f6583398151915282015591840191600101610cd7565b84600080516020611f6583398151915291820191015b818110610d5f5750610cce565b898155869350600101610d52565b634e487b7160e01b885260419052602487fd5b8382346104df57816003193601126104df57905490516001600160a01b039091168152602090f35b50903461027a57602036600319011261027a573560035481101561027a5760036020935260018060a01b0390600080516020611f658339815191520154169051908152f35b8382346104df57816003193601126104df576107479061073c611c82565b8382346104df57806003193601126104df5760209181906001600160a01b03610e326118e5565b168152600984528181206024358252845220549051908152f35b503461027a57610e5b36611944565b909391610e6f60ff600b5460a01c16611b6b565b610e77611a2c565b60018060a01b03169283865260209260078452610e9960ff8389205416611d4a565b8487526009845281872086885284528187205415610ef25750907f84d9943a841552627b79770783a3cfd4da8303efc30bd75b65d863bd909926e39291848752600983528087208688528352818188205551908152a380f35b83608492519162461bcd60e51b8352820152602160248201527f466565207479706520646f6573206e6f74206578697374206f6e206d6f64756c6044820152606560f81b6064820152fd5b8382346104df5760203660031901126104df5760209160ff9082906001600160a01b03610f686118e5565b1681526005855220541690519015158152f35b8334610fd55780600319360112610fd557610f94611a2c565b80546001600160a01b03198116825581906001600160a01b03167f8be0079c531659141344cd1fd0a4f28419497f9722a3daafe3b4186f6b6457e08280a380f35b80fd5b50903461027a57602036600319011261027a573560025481101561027a5760026020935260018060a01b0390600080516020611f458339815191520154169051908152f35b50903461027a57602036600319011261027a573560015481101561027a5760016020935260018060a01b0390600080516020611f858339815191520154169051908152f35b503461027a5760208060031936011261065d5761107d6118e5565b9261108f60ff600b5460a01c16611b6b565b611097611a2c565b6001600160a01b03848116808752600684528487205490959060ff1615611192576110c490610c9a611c82565b80519267ffffffffffffffff8411610d6d57600160401b8411610d6d5750839060025484600255808510611161575b50019060028752865b83811061113f5750505083855250600690528220805460ff191690557fafa2737b2090fa39c66b7348625f0c03726240f724defbc6216d679506f944418280a280f35b82518216600080516020611f45833981519152820155918401916001016110fc565b84600080516020611f4583398151915291820191015b81811061118457506110f3565b898155869350600101611177565b845162461bcd60e51b81528084018590526016602482015275119858dd1bdc9e48191bd95cc81b9bdd08195e1a5cdd60521b6044820152606490fd5b8382346104df57816003193601126104df57600b5490516001600160a01b039091168152602090f35b8382346104df5760203660031901126104df5760209160ff9082906001600160a01b036112226118e5565b1681526007855220541690519015158152f35b8382346104df57816003193601126104df5760209060ff600b5460a01c1690519015158152f35b8382346104df57816003193601126104df576107479061073c611c1d565b50903461027a57602036600319011261027a576112956118e5565b6112a660ff600b5460a01c16611b6b565b6112ae611a2c565b6001600160a01b031680845260066020528284205490929060ff166113495782845260066020528320805460ff1916600117905560025490600160401b8210156105d25760018201806002558210156105bf5750600080516020611f458339815191520180546001600160a01b031916821790557f6fdc0147105e43e21da80a75b42d0fd464060d5e1a34b0cefbf0b4ccfc2e36a18280a280f35b906020606492519162461bcd60e51b83528201526016602482015275466163746f727920616c72656164792065786973747360501b6044820152fd5b50903461027a57602036600319011261027a57803590805482101561065d576020935260018060a01b0390600080516020611fa58339815191520154169051908152f35b8382346104df5760203660031901126104df5760209160ff9082906001600160a01b036113f46118e5565b1681526008855220541690519015158152f35b50903461027a57602036600319011261027a576114226118e5565b61143360ff600b5460a01c16611b6b565b61143b611a2c565b6001600160a01b031680845260076020528284205490929060ff166114d65782845260076020528320805460ff1916600117905560035490600160401b8210156105d25760018201806003558210156105bf5750600080516020611f658339815191520180546001600160a01b031916821790557fead6a006345da1073a106d5f32372d2d2204f46cb0b4bca8f5ebafcbbed12b8a8280a280f35b906020606492519162461bcd60e51b835282015260156024820152744d6f64756c6520616c72656164792065786973747360581b6044820152fd5b503461027a5760208060031936011261065d5761152c6118e5565b9261153e60ff600b5460a01c16611b6b565b611546611a2c565b60018060a01b0390818516948587526005845260ff85882054161561163f5761157190610c9a611c1d565b9182519167ffffffffffffffff8311610d6d57600160401b8311610d6d575083600193845484865580851061160c575b500190838852875b8381106115eb5787895260058652868920805460ff1916905588887f8e0c505159e335da41fb50766da0ed86ceb6c429d0e6b431e8542cc6c3271b538280a280f35b82518216600080516020611f858339815191528201559185019184016115a9565b8585600080516020611f8583398151915292830192015b8281106116315750506115a1565b8b8155889450879101611623565b845162461bcd60e51b8152808301859052601260248201527114d95d08191bd95cc81b9bdd08195e1a5cdd60721b6044820152606490fd5b508234610fd557602091826003193601126104df576001600160a01b0361169c6118e5565b168083526005845260ff8284205416928315611701575b83156116ef575b83156116dc575b5082156116d2575b50519015158152f35b30149150836116c9565b600685528290205460ff169250846116c1565b600885528281205460ff1693506116ba565b600785528281205460ff1693506116b3565b8382346104df5760203660031901126104df5760209160ff9082906001600160a01b0361173e6118e5565b1681526006855220541690519015158152f35b509190346104df5760208060031936011261027a57813561177960ff600b5460a01c16611b6b565b611781611a2c565b808452600a8252848420546001600160a01b03959086169384156118a4576117ab85610c9a611bb7565b9081519167ffffffffffffffff831161189157600160401b83116118915785908254848455808510611860575b5001908752865b82811061183e57505050818552600a835280852080546001600160a01b031916905583855260088352808520805460ff19169055519081527fbc7961276d9fc2a4fe4fc4d817e48d15615364e5df46fa0d8fb45637582ae4f89190a280f35b81518916600080516020611fa5833981519152820155908501906001016117df565b84600080516020611fa583398151915291820191015b81811061188357506117d8565b8a8155889350600101611876565b634e487b7160e01b885260418252602488fd5b83606492519162461bcd60e51b8352820152601760248201527f5265736f7572636520646f6573206e6f742065786973740000000000000000006044820152fd5b600435906001600160a01b03821682036118fb57565b600080fd5b6020908160408183019282815285518094520193019160005b828110611927575050505090565b83516001600160a01b031685529381019392810192600101611919565b60609060031901126118fb576004356001600160a01b03811681036118fb57906024359060443590565b90601f8019910116810190811067ffffffffffffffff82111761199057604052565b634e487b7160e01b600052604160045260246000fd5b67ffffffffffffffff81116119905760051b60200190565b81601f820112156118fb578035916119d5836119a6565b926119e3604051948561196e565b808452602092838086019260051b8201019283116118fb578301905b828210611a0d575050505090565b81356001600160a01b03811681036118fb5781529083019083016119ff565b6000546001600160a01b03163303611a4057565b606460405162461bcd60e51b815260206004820152602060248201527f4f776e61626c653a2063616c6c6572206973206e6f7420746865206f776e65726044820152fd5b6000198114611a935760010190565b634e487b7160e01b600052601160045260246000fd5b8051821015611abd5760209160051b010190565b634e487b7160e01b600052603260045260246000fd5b15611ada57565b60405162461bcd60e51b815260206004820152601760248201527f5a65726f2061646472657373207375626d69747465642e0000000000000000006044820152606490fd5b15611b2657565b60405162461bcd60e51b815260206004820152601a60248201527f5265736f7572636520494420616c7265616479206578697374730000000000006044820152606490fd5b15611b7257565b60405162461bcd60e51b815260206004820152601d60248201527f436f6e7472616374206d75737420626520696e697469616c697a65642e0000006044820152606490fd5b6040519060045480835282602091828201906004600052600080516020611fa5833981519152936000905b828210611bfa57505050611bf89250038361196e565b565b85546001600160a01b031684526001958601958895509381019390910190611be2565b604051908160018054908183526020908184019281600052600080516020611f85833981519152926000905b828210611c6157505050505090611bf891038361196e565b84546001600160a01b03168652889650948501949383019390830190611c49565b6040519060025480835282602091828201906002600052600080516020611f45833981519152936000905b828210611cc357505050611bf89250038361196e565b85546001600160a01b031684526001958601958895509381019390910190611cad565b6040519060035480835282602091828201906003600052600080516020611f65833981519152936000905b828210611d2757505050611bf89250038361196e565b85546001600160a01b031684526001958601958895509381019390910190611d11565b15611d5157565b60405162461bcd60e51b8152602060048201526015602482015274135bd91d5b1948191bd95cc81b9bdd08195e1a5cdd605a1b6044820152606490fd5b90611d999082611ef4565b611dda5760405162461bcd60e51b815260206004820152601560248201527420b2323932b9b9903737ba1034b71030b93930bc9760591b6044820152606490fd5b81519182821015611eaf576000198381019390818511611a9357611dfd856119a6565b94611e0b604051968761196e565b808652611e1a601f19916119a6565b0136602087013760005b848110611e88575060018401808511611a93575b828110611e505750505090611e4c91611aa9565b5090565b6001600160a01b03611e628286611aa9565b51169082810191818311611a9357611e7d611e839389611aa9565b52611a84565b611e38565b611eaa906001600160a01b03611e9e8287611aa9565b5116611e7d8289611aa9565b611e24565b60405162461bcd60e51b815260206004820152601860248201527f496e646578206d757374206265203c2041206c656e67746800000000000000006044820152606490fd5b9081519160005b838110611f0f575050505060001990600090565b6001600160a01b0380611f228385611aa9565b511690841614611f3a57611f3590611a84565b611efb565b925050509060019056fe405787fa12a823e0f2b7631cc41b3ba8828b3321ca811111fa75cd3aa3bb5acec2575a0e9e593c00f959f8c92f12db2869c3395a3b0502d05e2516446f71f85bb10e2d527612073b26eecdfd717e6a320cf44b4afac2b0732d9fcbe2b7fa0cf68a35acfbc15ff81a39ae7d344fd709f28e8600b4aa8c65c6b64bfe7fe36bd19ba26469706673582212205d9d68108fb415684757e19c9ee6ef2c1997edc6e26ed879b7bc3e7e8941b35b64736f6c63430008130033",
    "linkReferences": {}
  },
  "methodIdentifiers": {
    "addFactory(address)": "29ce1ec5",
    "addFee(address,uint256,uint256)": "f36b9a9a",
    "addModule(address)": "1ed86f19",
    "addResource(address,uint256)": "e0b75317",
    "addSet(address)": "d580ded4",
    "editFee(address,uint256,uint256)": "76a5bcf6",
    "editFeeRecipient(address)": "c5bb387b",
    "factories(uint256)": "672383c4",
    "feeRecipient()": "46904840",
    "fees(address,uint256)": "263a5362",
    "getFactories()": "7e6cbb6a",
    "getModuleFee(address,uint256)": "792aa04f",
    "getModules()": "b2494df3",
    "getResources()": "c1cc57b0",
    "getSets()": "2cf7c531",
    "initialize(address[],address[],address[],uint256[])": "a3c56615",
    "isFactory(address)": "0f04ba67",
    "isInitialized()": "392e53cd",
    "isModule(address)": "42f6e389",
    "isResource(address)": "207a9485",
    "isSet(address)": "74ebe3ec",
    "isSystemContract(address)": "13bc6d4b",
    "modules(uint256)": "81b2248a",
    "owner()": "8da5cb5b",
    "removeFactory(address)": "4b37c73f",
    "removeModule(address)": "a0632461",
    "removeResource(uint256)": "01b98339",
    "removeSet(address)": "19e2c349",
    "renounceOwnership()": "715018a6",
    "resourceId(uint256)": "e765ced6",
    "resources(uint256)": "244d6daa",
    "sets(uint256)": "5b227f9b",
    "transferOwnership(address)": "f2fde38b"
  },
  "id": 68
}