{
  "abi": [
    {
      "inputs": [
        {
          "internalType": "address",
          "name": "router",
          "type": "address"
        }
      ],
      "stateMutability": "nonpayable",
      "type": "constructor"
    },
    {
      "inputs": [
        {
          "internalType": "address",
          "name": "owner",
          "type": "address"
        },
        {
          "internalType": "address",
          "name": "target",
          "type": "address"
        },
        {
          "internalType": "uint256",
          "name": "value",
          "type": "uint256"
        }
      ],
      "name": "FailedToWithdrawEth",
      "type": "error"
    },
    {
      "inputs": [
        {
          "internalType": "uint256",
          "name": "providedIndex",
          "type": "uint256"
        },
        {
          "internalType": "uint256",
          "name": "maxIndex",
          "type": "uint256"
        }
      ],
      "name": "IndexOutOfBound",
      "type": "error"
    },
    {
      "inputs": [
        {
          "internalType": "address",
          "name": "router",
          "type": "address"
        }
      ],
      "name": "InvalidRouter",
      "type": "error"
    },
    {
      "inputs": [
        {
          "internalType": "bytes32",
          "name": "messageId",
          "type": "bytes32"
        }
      ],
      "name": "MessageIdNotExist",
      "type": "error"
    },
    {
      "inputs": [],
      "name": "NoMessageReceived",
      "type": "error"
    },
    {
      "inputs": [],
      "name": "NothingToWithdraw",
      "type": "error"
    },
    {
      "anonymous": false,
      "inputs": [
        {
          "indexed": true,
          "internalType": "bytes32",
          "name": "messageId",
          "type": "bytes32"
        },
        {
          "indexed": true,
          "internalType": "uint64",
          "name": "sourceChainSelector",
          "type": "uint64"
        },
        {
          "indexed": false,
          "internalType": "address",
          "name": "sender",
          "type": "address"
        },
        {
          "indexed": false,
          "internalType": "string",
          "name": "message",
          "type": "string"
        },
        {
          "components": [
            {
              "internalType": "address",
              "name": "token",
              "type": "address"
            },
            {
              "internalType": "uint256",
              "name": "amount",
              "type": "uint256"
            }
          ],
          "indexed": false,
          "internalType": "struct Client.EVMTokenAmount",
          "name": "tokenAmount",
          "type": "tuple"
        }
      ],
      "name": "MessageReceived",
      "type": "event"
    },
    {
      "anonymous": false,
      "inputs": [
        {
          "indexed": true,
          "internalType": "bytes32",
          "name": "messageId",
          "type": "bytes32"
        },
        {
          "indexed": true,
          "internalType": "uint64",
          "name": "destinationChainSelector",
          "type": "uint64"
        },
        {
          "indexed": false,
          "internalType": "address",
          "name": "receiver",
          "type": "address"
        },
        {
          "indexed": false,
          "internalType": "string",
          "name": "message",
          "type": "string"
        },
        {
          "components": [
            {
              "internalType": "address",
              "name": "token",
              "type": "address"
            },
            {
              "internalType": "uint256",
              "name": "amount",
              "type": "uint256"
            }
          ],
          "indexed": false,
          "internalType": "struct Client.EVMTokenAmount",
          "name": "tokenAmount",
          "type": "tuple"
        },
        {
          "indexed": false,
          "internalType": "uint256",
          "name": "fees",
          "type": "uint256"
        }
      ],
      "name": "MessageSent",
      "type": "event"
    },
    {
      "anonymous": false,
      "inputs": [
        {
          "indexed": true,
          "internalType": "address",
          "name": "from",
          "type": "address"
        },
        {
          "indexed": true,
          "internalType": "address",
          "name": "to",
          "type": "address"
        }
      ],
      "name": "OwnershipTransferRequested",
      "type": "event"
    },
    {
      "anonymous": false,
      "inputs": [
        {
          "indexed": true,
          "internalType": "address",
          "name": "from",
          "type": "address"
        },
        {
          "indexed": true,
          "internalType": "address",
          "name": "to",
          "type": "address"
        }
      ],
      "name": "OwnershipTransferred",
      "type": "event"
    },
    {
      "inputs": [],
      "name": "acceptOwnership",
      "outputs": [],
      "stateMutability": "nonpayable",
      "type": "function"
    },
    {
      "inputs": [
        {
          "components": [
            {
              "internalType": "bytes32",
              "name": "messageId",
              "type": "bytes32"
            },
            {
              "internalType": "uint64",
              "name": "sourceChainSelector",
              "type": "uint64"
            },
            {
              "internalType": "bytes",
              "name": "sender",
              "type": "bytes"
            },
            {
              "internalType": "bytes",
              "name": "data",
              "type": "bytes"
            },
            {
              "components": [
                {
                  "internalType": "address",
                  "name": "token",
                  "type": "address"
                },
                {
                  "internalType": "uint256",
                  "name": "amount",
                  "type": "uint256"
                }
              ],
              "internalType": "struct Client.EVMTokenAmount[]",
              "name": "destTokenAmounts",
              "type": "tuple[]"
            }
          ],
          "internalType": "struct Client.Any2EVMMessage",
          "name": "message",
          "type": "tuple"
        }
      ],
      "name": "ccipReceive",
      "outputs": [],
      "stateMutability": "nonpayable",
      "type": "function"
    },
    {
      "inputs": [],
      "name": "getLastReceivedMessageDetails",
      "outputs": [
        {
          "internalType": "bytes32",
          "name": "messageId",
          "type": "bytes32"
        },
        {
          "internalType": "uint64",
          "name": "sourceChainSelector",
          "type": "uint64"
        },
        {
          "internalType": "address",
          "name": "sender",
          "type": "address"
        },
        {
          "internalType": "string",
          "name": "message",
          "type": "string"
        },
        {
          "internalType": "address",
          "name": "token",
          "type": "address"
        },
        {
          "internalType": "uint256",
          "name": "amount",
          "type": "uint256"
        }
      ],
      "stateMutability": "view",
      "type": "function"
    },
    {
      "inputs": [],
      "name": "getNumberOfReceivedMessages",
      "outputs": [
        {
          "internalType": "uint256",
          "name": "number",
          "type": "uint256"
        }
      ],
      "stateMutability": "view",
      "type": "function"
    },
    {
      "inputs": [
        {
          "internalType": "uint256",
          "name": "index",
          "type": "uint256"
        }
      ],
      "name": "getReceivedMessageAt",
      "outputs": [
        {
          "internalType": "bytes32",
          "name": "messageId",
          "type": "bytes32"
        },
        {
          "internalType": "uint64",
          "name": "sourceChainSelector",
          "type": "uint64"
        },
        {
          "internalType": "address",
          "name": "sender",
          "type": "address"
        },
        {
          "internalType": "string",
          "name": "message",
          "type": "string"
        },
        {
          "internalType": "address",
          "name": "token",
          "type": "address"
        },
        {
          "internalType": "uint256",
          "name": "amount",
          "type": "uint256"
        }
      ],
      "stateMutability": "view",
      "type": "function"
    },
    {
      "inputs": [
        {
          "internalType": "bytes32",
          "name": "messageId",
          "type": "bytes32"
        }
      ],
      "name": "getReceivedMessageDetails",
      "outputs": [
        {
          "internalType": "uint64",
          "name": "sourceChainSelector",
          "type": "uint64"
        },
        {
          "internalType": "address",
          "name": "sender",
          "type": "address"
        },
        {
          "internalType": "string",
          "name": "message",
          "type": "string"
        },
        {
          "internalType": "address",
          "name": "token",
          "type": "address"
        },
        {
          "internalType": "uint256",
          "name": "amount",
          "type": "uint256"
        }
      ],
      "stateMutability": "view",
      "type": "function"
    },
    {
      "inputs": [],
      "name": "getRouter",
      "outputs": [
        {
          "internalType": "address",
          "name": "",
          "type": "address"
        }
      ],
      "stateMutability": "view",
      "type": "function"
    },
    {
      "inputs": [
        {
          "internalType": "bytes32",
          "name": "",
          "type": "bytes32"
        }
      ],
      "name": "messageDetail",
      "outputs": [
        {
          "internalType": "uint64",
          "name": "sourceChainSelector",
          "type": "uint64"
        },
        {
          "internalType": "address",
          "name": "sender",
          "type": "address"
        },
        {
          "internalType": "string",
          "name": "message",
          "type": "string"
        },
        {
          "internalType": "address",
          "name": "token",
          "type": "address"
        },
        {
          "internalType": "uint256",
          "name": "amount",
          "type": "uint256"
        }
      ],
      "stateMutability": "view",
      "type": "function"
    },
    {
      "inputs": [],
      "name": "owner",
      "outputs": [
        {
          "internalType": "address",
          "name": "",
          "type": "address"
        }
      ],
      "stateMutability": "view",
      "type": "function"
    },
    {
      "inputs": [
        {
          "internalType": "uint256",
          "name": "",
          "type": "uint256"
        }
      ],
      "name": "receivedMessages",
      "outputs": [
        {
          "internalType": "bytes32",
          "name": "",
          "type": "bytes32"
        }
      ],
      "stateMutability": "view",
      "type": "function"
    },
    {
      "inputs": [
        {
          "internalType": "uint64",
          "name": "destinationChainSelector",
          "type": "uint64"
        },
        {
          "internalType": "address",
          "name": "receiver",
          "type": "address"
        },
        {
          "internalType": "string",
          "name": "message",
          "type": "string"
        },
        {
          "internalType": "address",
          "name": "token",
          "type": "address"
        },
        {
          "internalType": "uint256",
          "name": "amount",
          "type": "uint256"
        }
      ],
      "name": "sendMessage",
      "outputs": [
        {
          "internalType": "bytes32",
          "name": "messageId",
          "type": "bytes32"
        }
      ],
      "stateMutability": "nonpayable",
      "type": "function"
    },
    {
      "inputs": [
        {
          "internalType": "bytes4",
          "name": "interfaceId",
          "type": "bytes4"
        }
      ],
      "name": "supportsInterface",
      "outputs": [
        {
          "internalType": "bool",
          "name": "",
          "type": "bool"
        }
      ],
      "stateMutability": "pure",
      "type": "function"
    },
    {
      "inputs": [
        {
          "internalType": "address",
          "name": "to",
          "type": "address"
        }
      ],
      "name": "transferOwnership",
      "outputs": [],
      "stateMutability": "nonpayable",
      "type": "function"
    },
    {
      "inputs": [
        {
          "internalType": "address",
          "name": "beneficiary",
          "type": "address"
        }
      ],
      "name": "withdraw",
      "outputs": [],
      "stateMutability": "nonpayable",
      "type": "function"
    },
    {
      "inputs": [
        {
          "internalType": "address",
          "name": "beneficiary",
          "type": "address"
        },
        {
          "internalType": "address",
          "name": "token",
          "type": "address"
        }
      ],
      "name": "withdrawToken",
      "outputs": [],
      "stateMutability": "nonpayable",
      "type": "function"
    },
    {
      "stateMutability": "payable",
      "type": "receive"
    }
  ],
  "bytecode": {
    "object": "0x60a0346100ed57601f61160938819003918201601f19168301916001600160401b038311848410176100f2578084926020946040528339810103126100ed57516001600160a01b0381168082036100ed57156100d457608052331561008f57600080546001600160a01b03191633179055604051611500908161010982396080518181816102ca01526107eb0152f35b60405162461bcd60e51b815260206004820152601860248201527f43616e6e6f7420736574206f776e657220746f207a65726f00000000000000006044820152606490fd5b6040516335fdcccd60e21b815260006004820152602490fd5b600080fd5b634e487b7160e01b600052604160045260246000fdfe608080604052600436101561001d575b50361561001b57600080fd5b005b60003560e01c90816301ffc9a714611023575080630b652d6d14611005578063263596a514610fc45780633aeac4e114610ed857806351bd669814610e1257806351cff8d914610d6957806379ba509714610cc057806385572ffb146107b95780638da5cb5b146107905780639c3ddb2e1461072d5780639c7ee0bc146102f9578063b0f479a1146102b4578063d030366c1461027d578063eebc927b1461018c5763f2fde38b146100cf573861000f565b34610187576020366003190112610187576100e8611106565b6100f06112f9565b6001600160a01b039081169033821461014257816001600160601b0360a01b6001541617600155600054167fed8889f560326eb138920d842192f0eb3dd22b4f139c87a2c57538e05bae1278600080a3005b60405162461bcd60e51b815260206004820152601760248201527f43616e6e6f74207472616e7366657220746f2073656c660000000000000000006044820152606490fd5b600080fd5b34610187576020366003190112610187576002546004358181101561023e576101b4906112ac565b90549060031b1c80600052600360205260406000209061023a6040516101d9816111af565b8354936001600160401b038086168352602083019560018060a01b03809160401c16875261020960018401611206565b91826040860152600382600286015416948560608801520154948560808201525116965116604051968796876110be565b0390f35b60001982019182116102675760449160405191630d03942760e41b835260048301526024820152fd5b634e487b7160e01b600052601160045260246000fd5b3461018757602036600319011261018757600435600254811015610187576102a66020916112ac565b90546040519160031b1c8152f35b34610187576000366003190112610187576040517f00000000000000000000000000000000000000000000000000000000000000006001600160a01b03168152602090f35b346101875760a0366003190112610187576001600160401b038060043516600435036101875761032761111c565b9060443590808211610187573660238301121561018757808260040135116101875736602483600401358401011161018757606435906001600160a01b0382168203610187576040519161037a836111ca565b6001835260005b6020808210156103b0576040516020929161039b826111ca565b60008252600081830152828701015201610381565b5050919290604051926103c2846111ca565b6001600160a01b03811684526084356020850152836103e0866113ad565b526103ea856113ad565b506040516001600160a01b03871660208083019190915281529461040d866111ca565b60405160208082015261043d8161042f60408201886004013560248a016113ba565b03601f1981018352826111e5565b6040519661044a886111ca565b62030d4088526020880160008152604051986397a657c960e01b60208b01525160248a01525115156044890152604488528760808101108560808a011117610717576080880160405261049f608089016111af565b608088015260a087015260c0860152600060e0860152610100850185905260405163b0f479a160e01b8152602081600481305afa908115610663576000916106d5575b5060405163095ea7b360e01b81526001600160a01b0391821660048201819052608435602483015292909160209183916044918391600091165af18015610663576106a6575b506040516320487ded60e01b8152906020828061054e60808a01600480359084016113f3565b0381845afa9182156106635760009261066f575b50608060209161058d9784604051809a819582946396f4e9f960e01b845201600435600484016113f3565b03925af19485156106635760009561062a575b50916020957f218adb5a0a723dc22ce7712e38f03997cd4cefc41a7fd618de7329da31321c909286946106156105f860405195869560018060a01b0316865260a08c87015260a08601906024816004013591016113ba565b88516001600160a01b031660408601526020909801516060850152565b608083015260043516940390a3604051908152f35b919450916020823d60201161065b575b81610647602093836111e5565b8101031261018757905193909160206105a0565b3d915061063a565b6040513d6000823e3d90fd5b9591506020863d60201161069e575b8161068b602093836111e5565b8101031261018757945190946080610562565b3d915061067e565b6106c79060203d6020116106ce575b6106bf81836111e5565b8101906113db565b5086610528565b503d6106b5565b90506020813d60201161070f575b816106f0602093836111e5565b8101031261018757516001600160a01b038116810361018757876104e2565b3d91506106e3565b634e487b7160e01b600052604160045260246000fd5b346101875760203660031901126101875760043560005260036020526001600160401b03604060002061023a815461076760018401611206565b9260018060a01b0393600385600284015416920154926040519687968260401c16911686611132565b34610187576000366003190112610187576000546040516001600160a01b039091168152602090f35b346101875760031960203682011261018757600435906001600160401b0382116101875760a0908236030112610187577f00000000000000000000000000000000000000000000000000000000000000006001600160a01b03163303610ca85760405190610826826111af565b8060040135825260248101356001600160401b0381168103610187576020830190815260448201356001600160401b0381116101875761086c9060043691850101611366565b916040840192835260648101356001600160401b038111610187576108979060043691840101611366565b90606085019182526084810135906001600160401b038211610187570193366023860112156101875760048501356001600160401b03811161071757604051956108e760208360051b01886111e5565b8187526024602088019260061b8201019036821161018757602401915b818310610c6357505050808560806001600160401b0393015251925116925160208180518101031261018757602001516001600160a01b0381168103610187576001600160a01b03610955866113ad565b515116946020610964826113ad565b5101519251928351840193602081818701960312610187576020810151906001600160401b038211610187570184603f820112156101875760208101516109aa8161134b565b956109b860405197886111e5565b81875260408284010111610187576109d7916040602088019101611076565b600254600160401b811015610717578060016109f692016002556112ac565b81549060031b9087821b91600019901b191617905560405196610a18886111af565b86885260018060a01b03841660208901528460408901526060880152608087015283600052600360205260406000206001600160401b03875116815490600160401b600160e01b0360208a015160401b169163ffffffff60e01b161717815560408701519687516001600160401b03811161071757610a9a6001840154611175565b601f8111610c1c575b506020601f8211600114610b8157610b2c949392826003936080937f852dbe7c0b886f87e176d6af0c3e5537dd2fc249db45c9a4348aa9bc5d1812069b9c9d600092610b76575b505060001982861b1c1916600191821b17908501555b6002840160018060a01b036060830151166001600160601b0360a01b82541617905501519101556113ad565b51610b71610b5460405194859460018060a01b03168552608060208601526080850190611099565b82516001600160a01b031660408501526020909201516060840152565b0390a3005b015190508d80610aea565b6001840160005260206000209960005b601f1984168110610c045750926001837f852dbe7c0b886f87e176d6af0c3e5537dd2fc249db45c9a4348aa9bc5d1812069a9b9c608094610b2c999897600397601f19811610610bec575b505050811b016001850155610b00565b015160001983881b60f8161c191690558d8080610bdc565b828201518c556001909b019a60209283019201610b91565b600184016000526020600020601f830160051c810160208410610c5c575b601f830160051c82018110610c50575050610aa3565b60008155600101610c3a565b5080610c3a565b6040833603126101875760405190610c7a826111ca565b8335906001600160a01b03821682036101875782602092604094528286013583820152815201920191610904565b6040516335fdcccd60e21b8152336004820152602490fd5b34610187576000366003190112610187576001546001600160a01b038082163303610d2b57600054916001600160601b0360a01b903382851617600055166001553391167f8be0079c531659141344cd1fd0a4f28419497f9722a3daafe3b4186f6b6457e0600080a3005b60405162461bcd60e51b815260206004820152601660248201527526bab9ba10313290383937b837b9b2b21037bbb732b960511b6044820152606490fd5b3461018757602036600319011261018757610d82611106565b610d8a6112f9565b47908115610e0057600080808085855af13d15610dfb573d610dab8161134b565b90610db960405192836111e5565b8152600060203d92013e5b15610dcb57005b604051639d11f56360e01b81523360048201526001600160a01b0390911660248201526044810191909152606490fd5b610dc4565b604051630686827b60e51b8152600490fd5b3461018757602036600319011261018757600435806000526003602052604060002060405190610e41826111af565b8054906001600160401b03938483168452602084019260018060a01b03809160401c168452610e7260018401611206565b94604081019586526003826002860154169460608301958652015492608082019384528286511615610ec0575061023a94959682915116955116955192511690519160405195869586611132565b60249060405190634d47bb3360e01b82526004820152fd5b3461018757604036600319011261018757610ef1611106565b610ef961111c565b610f016112f9565b6040516370a0823160e01b81523060048201526020926001600160a01b039290921691908381602481865afa90811561066357600091610f97575b508015610e005760405163a9059cbb60e01b81526001600160a01b039290921660048301526024820152908290829060449082906000905af1801561066357610f8157005b8161001b92903d106106ce576106bf81836111e5565b90508381813d8311610fbd575b610fae81836111e5565b81010312610187575184610f3c565b503d610fa4565b34610187576000366003190112610187576002548015610ff3576000198101908111610267576101b4906112ac565b604051636ad69dd560e01b8152600490fd5b34610187576000366003190112610187576020600254604051908152f35b34610187576020366003190112610187576004359063ffffffff60e01b8216809203610187576020916385572ffb60e01b8114908115611065575b5015158152f35b6301ffc9a760e01b1490508361105e565b60005b8381106110895750506000910152565b8181015183820152602001611079565b906020916110b281518092818552858086019101611076565b601f01601f1916010190565b9291936001600160401b0360a0956110fb93999897998652166020850152600180861b03809316604085015260c0606085015260c0840190611099565b951660808201520152565b600435906001600160a01b038216820361018757565b602435906001600160a01b038216820361018757565b91906080936001600160401b0361116a929897969816845260018060a01b03809316602085015260a0604085015260a0840190611099565b951660608201520152565b90600182811c921680156111a5575b602083101461118f57565b634e487b7160e01b600052602260045260246000fd5b91607f1691611184565b60a081019081106001600160401b0382111761071757604052565b604081019081106001600160401b0382111761071757604052565b90601f801991011681019081106001600160401b0382111761071757604052565b906040519182600082549261121a84611175565b9081845260019485811690816000146112895750600114611246575b5050611244925003836111e5565b565b9093915060005260209081600020936000915b81831061127157505061124493508201013880611236565b85548884018501529485019487945091830191611259565b91505061124494506020925060ff191682840152151560051b8201013880611236565b6002548110156112e35760026000527f405787fa12a823e0f2b7631cc41b3ba8828b3321ca811111fa75cd3aa3bb5ace0190600090565b634e487b7160e01b600052603260045260246000fd5b6000546001600160a01b0316330361130d57565b60405162461bcd60e51b815260206004820152601660248201527527b7363c9031b0b63630b1363290313c9037bbb732b960511b6044820152606490fd5b6001600160401b03811161071757601f01601f191660200190565b81601f820112156101875780359061137d8261134b565b9261138b60405194856111e5565b8284526020838301011161018757816000926020809301838601378301015290565b8051156112e35760200190565b908060209392818452848401376000828201840152601f01601f1916010190565b90816020910312610187575180151581036101875790565b906001600160401b039093929316815260406020918183820152611422855160a08484015260e0830190611099565b9161143e8487015193603f199485858303016060860152611099565b8187015194848483030160808501528080875193848152019601926000905b83821061149657505050505060c06080611493959660018060a01b0360608201511660a085015201519282850301910152611099565b90565b90919293968382826114bd6001948c516020809160018060a01b0381511684520151910152565b019801949392019061145d56fea26469706673582212207eaa902d93ca76be2062224db9eec73730e57f2f33b359746e88b04a8e18e55c64736f6c63430008130033",
    "linkReferences": {}
  },
  "methodIdentifiers": {
    "acceptOwnership()": "79ba5097",
    "ccipReceive((bytes32,uint64,bytes,bytes,(address,uint256)[]))": "85572ffb",
    "getLastReceivedMessageDetails()": "263596a5",
    "getNumberOfReceivedMessages()": "0b652d6d",
    "getReceivedMessageAt(uint256)": "eebc927b",
    "getReceivedMessageDetails(bytes32)": "51bd6698",
    "getRouter()": "b0f479a1",
    "messageDetail(bytes32)": "9c3ddb2e",
    "owner()": "8da5cb5b",
    "receivedMessages(uint256)": "d030366c",
    "sendMessage(uint64,address,string,address,uint256)": "9c7ee0bc",
    "supportsInterface(bytes4)": "01ffc9a7",
    "transferOwnership(address)": "f2fde38b",
    "withdraw(address)": "51cff8d9",
    "withdrawToken(address,address)": "3aeac4e1"
  },
  "id": 66
}