{
  "abi": [
    {
      "inputs": [
        {
          "internalType": "contract IController",
          "name": "controller",
          "type": "address"
        }
      ],
      "stateMutability": "nonpayable",
      "type": "constructor"
    },
    {
      "inputs": [
        {
          "internalType": "address",
          "name": "owner",
          "type": "address"
        },
        {
          "internalType": "address",
          "name": "target",
          "type": "address"
        },
        {
          "internalType": "uint256",
          "name": "value",
          "type": "uint256"
        }
      ],
      "name": "FailedToWithdrawEth",
      "type": "error"
    },
    {
      "anonymous": false,
      "inputs": [
        {
          "components": [
            {
              "internalType": "contract ISetToken",
              "name": "setToken",
              "type": "address"
            },
            {
              "internalType": "address",
              "name": "lockToken",
              "type": "address"
            },
            {
              "internalType": "uint256",
              "name": "setTotalSupply",
              "type": "uint256"
            },
            {
              "internalType": "uint256",
              "name": "totalLockQuantity",
              "type": "uint256"
            },
            {
              "internalType": "uint256",
              "name": "preTradeLockTokenBalance",
              "type": "uint256"
            }
          ],
          "indexed": false,
          "internalType": "struct LockReleaseModule.LockInfo",
          "name": "lockInfo",
          "type": "tuple"
        }
      ],
      "name": "LockInfoEvent",
      "type": "event"
    },
    {
      "anonymous": false,
      "inputs": [
        {
          "indexed": false,
          "internalType": "bytes32",
          "name": "latestMessageId",
          "type": "bytes32"
        },
        {
          "indexed": false,
          "internalType": "uint64",
          "name": "latestSourceChainSelector",
          "type": "uint64"
        },
        {
          "indexed": false,
          "internalType": "address",
          "name": "latestLocker",
          "type": "address"
        },
        {
          "indexed": false,
          "internalType": "string",
          "name": "latestMessage",
          "type": "string"
        }
      ],
      "name": "MessageReceived",
      "type": "event"
    },
    {
      "anonymous": false,
      "inputs": [
        {
          "indexed": false,
          "internalType": "bytes32",
          "name": "messageId",
          "type": "bytes32"
        }
      ],
      "name": "MessageSent",
      "type": "event"
    },
    {
      "anonymous": false,
      "inputs": [
        {
          "indexed": true,
          "internalType": "address",
          "name": "from",
          "type": "address"
        },
        {
          "indexed": true,
          "internalType": "address",
          "name": "to",
          "type": "address"
        }
      ],
      "name": "OwnershipTransferRequested",
      "type": "event"
    },
    {
      "anonymous": false,
      "inputs": [
        {
          "indexed": true,
          "internalType": "address",
          "name": "from",
          "type": "address"
        },
        {
          "indexed": true,
          "internalType": "address",
          "name": "to",
          "type": "address"
        }
      ],
      "name": "OwnershipTransferred",
      "type": "event"
    },
    {
      "anonymous": false,
      "inputs": [
        {
          "components": [
            {
              "internalType": "contract ISetToken",
              "name": "setToken",
              "type": "address"
            },
            {
              "internalType": "address",
              "name": "releaseToken",
              "type": "address"
            },
            {
              "internalType": "uint256",
              "name": "setTotalSupply",
              "type": "uint256"
            },
            {
              "internalType": "uint256",
              "name": "totalReleaseQuantity",
              "type": "uint256"
            },
            {
              "internalType": "uint256",
              "name": "preTradeReleaseTokenBalance",
              "type": "uint256"
            }
          ],
          "indexed": false,
          "internalType": "struct LockReleaseModule.ReleaseInfo",
          "name": "releaseInfo",
          "type": "tuple"
        }
      ],
      "name": "ReleaseInfoEvent",
      "type": "event"
    },
    {
      "anonymous": false,
      "inputs": [
        {
          "indexed": false,
          "internalType": "contract ISetToken",
          "name": "setToken",
          "type": "address"
        },
        {
          "indexed": false,
          "internalType": "address",
          "name": "lockToken",
          "type": "address"
        },
        {
          "indexed": false,
          "internalType": "uint256",
          "name": "ulockAmount",
          "type": "uint256"
        }
      ],
      "name": "TokenLockForCCIP",
      "type": "event"
    },
    {
      "anonymous": false,
      "inputs": [
        {
          "indexed": false,
          "internalType": "contract ISetToken",
          "name": "setToken",
          "type": "address"
        },
        {
          "indexed": false,
          "internalType": "address",
          "name": "releaseToken",
          "type": "address"
        },
        {
          "indexed": false,
          "internalType": "uint256",
          "name": "ureleaseAmount",
          "type": "uint256"
        }
      ],
      "name": "TokenReleaseForCCIP",
      "type": "event"
    },
    {
      "inputs": [],
      "name": "acceptOwnership",
      "outputs": [],
      "stateMutability": "nonpayable",
      "type": "function"
    },
    {
      "inputs": [],
      "name": "controller",
      "outputs": [
        {
          "internalType": "contract IController",
          "name": "",
          "type": "address"
        }
      ],
      "stateMutability": "view",
      "type": "function"
    },
    {
      "inputs": [],
      "name": "getLatestMessageDetails",
      "outputs": [
        {
          "internalType": "bytes32",
          "name": "",
          "type": "bytes32"
        },
        {
          "internalType": "uint64",
          "name": "",
          "type": "uint64"
        },
        {
          "internalType": "address",
          "name": "",
          "type": "address"
        },
        {
          "internalType": "string",
          "name": "",
          "type": "string"
        }
      ],
      "stateMutability": "view",
      "type": "function"
    },
    {
      "inputs": [
        {
          "internalType": "contract ISetToken",
          "name": "_setToken",
          "type": "address"
        }
      ],
      "name": "initialize",
      "outputs": [],
      "stateMutability": "nonpayable",
      "type": "function"
    },
    {
      "inputs": [
        {
          "internalType": "contract ISetToken",
          "name": "_setToken",
          "type": "address"
        },
        {
          "internalType": "address",
          "name": "_lockToken",
          "type": "address"
        },
        {
          "internalType": "uint256",
          "name": "_lockQuantity",
          "type": "uint256"
        }
      ],
      "name": "lockToken",
      "outputs": [],
      "stateMutability": "nonpayable",
      "type": "function"
    },
    {
      "inputs": [],
      "name": "owner",
      "outputs": [
        {
          "internalType": "address",
          "name": "",
          "type": "address"
        }
      ],
      "stateMutability": "view",
      "type": "function"
    },
    {
      "inputs": [
        {
          "internalType": "contract ISetToken",
          "name": "_setToken",
          "type": "address"
        },
        {
          "internalType": "address",
          "name": "_releaseToken",
          "type": "address"
        },
        {
          "internalType": "uint256",
          "name": "_releaseQuantity",
          "type": "uint256"
        }
      ],
      "name": "releaseToken",
      "outputs": [],
      "stateMutability": "nonpayable",
      "type": "function"
    },
    {
      "inputs": [],
      "name": "removeModule",
      "outputs": [],
      "stateMutability": "nonpayable",
      "type": "function"
    },
    {
      "inputs": [
        {
          "internalType": "address",
          "name": "_token",
          "type": "address"
        },
        {
          "internalType": "address",
          "name": "_from",
          "type": "address"
        },
        {
          "internalType": "address",
          "name": "_to",
          "type": "address"
        },
        {
          "internalType": "uint256",
          "name": "_quantity",
          "type": "uint256"
        }
      ],
      "name": "transferFromRaw",
      "outputs": [],
      "stateMutability": "nonpayable",
      "type": "function"
    },
    {
      "inputs": [
        {
          "internalType": "address",
          "name": "to",
          "type": "address"
        }
      ],
      "name": "transferOwnership",
      "outputs": [],
      "stateMutability": "nonpayable",
      "type": "function"
    },
    {
      "inputs": [
        {
          "internalType": "address",
          "name": "beneficiary",
          "type": "address"
        }
      ],
      "name": "withdraw",
      "outputs": [],
      "stateMutability": "nonpayable",
      "type": "function"
    },
    {
      "inputs": [
        {
          "internalType": "address",
          "name": "beneficiary",
          "type": "address"
        },
        {
          "internalType": "address",
          "name": "token",
          "type": "address"
        }
      ],
      "name": "withdrawToken",
      "outputs": [],
      "stateMutability": "nonpayable",
      "type": "function"
    },
    {
      "stateMutability": "payable",
      "type": "receive"
    }
  ],
  "bytecode": {
    "object": "0x6080346100d657601f611cc338819003918201601f19168301916001600160401b038311848410176100db578084926020946040528339810103126100d657516001600160a01b038116908190036100d65733156100915760018060a01b03199033826000541617600055816002541617600255600160035533906008541617600855604051611bd190816100f28239f35b60405162461bcd60e51b815260206004820152601860248201527f43616e6e6f7420736574206f776e657220746f207a65726f00000000000000006044820152606490fd5b600080fd5b634e487b7160e01b600052604160045260246000fdfe60406080815260049081361015610020575b5050361561001e57600080fd5b005b600091823560e01c9081631d4347a814610c945781633394e6f414610b57578382633aeac4e114610a4e5750816351cff8d9146109da5781636d0985601461070e57816379ba509714610666578163847ef08d1461064f5781638da5cb5b14610627578163c4d66de81461045c578163db56a52914610196578163f2fde38b146100da575063f77c47910361001157346100d657816003193601126100d65760025490516001600160a01b039091168152602090f35b5080fd5b905034610192576020366003190112610192576100f5610f75565b906100fe61101e565b6001600160a01b039182169233841461014f575050600180546001600160a01b031916831790558254167fed8889f560326eb138920d842192f0eb3dd22b4f139c87a2c57538e05bae12788380a380f35b906020606492519162461bcd60e51b8352820152601760248201527f43616e6e6f74207472616e7366657220746f2073656c660000000000000000006044820152fd5b8280fd5b91905034610192576080366003190112610192576101b2610f75565b906101bb610f8b565b604435929091906001600160a01b0380851691908286036103855716606435806101e3578780f35b8351926370a0823160e01b808552818986015260209660249888878b81895afa968c881561045157918a918c939961041c575b5089516323b872dd60e01b9281019283526001600160a01b0394851693810193845293166020830152604082018690529061025f9083906060015b03601f19810184528361109a565b87519188830183811067ffffffffffffffff8211176104085789528983527f5361666545524332303a206c6f772d6c6576656c2063616c6c206661696c65648a840152516102bf92918d918291828a5af16102b86118e5565b9087611915565b8051908882159283156103f0575b5050501561039b57908787928751958693849283528c8301525afa91821561039157889261035d575b50820180921161034b570361030c578080808780f35b5162461bcd60e51b815292830152601d908201527f496e76616c696420706f7374207472616e736665722062616c616e63650000006044820152606490fd5b634e487b7160e01b8752601186528487fd5b9091508481813d831161038a575b610375818361109a565b81010312610385575190386102f6565b600080fd5b503d61036b565b84513d8a823e3d90fd5b855162461bcd60e51b8152808a01889052602a818a01527f5361666545524332303a204552433230206f7065726174696f6e20646964206e6044820152691bdd081cdd58d8d9595960b21b6064820152608490fd5b61040093508201810191016118cd565b3888816102cd565b8b60418e634e487b7160e01b600052526000fd5b9250975081813d831161044a575b610434818361109a565b8101031261038557519589908990610251610216565b503d61042a565b8951903d90823e3d90fd5b8383346100d6576020928360031936011261019257610479610f75565b6002548351631d3af8fb60e21b81526001600160a01b03808416858301819052939792839183916024918391165afa9081156105b257869161060a575b50156105bc5783516353bae5f760e01b815230848201528181602481865afa9081156105b2578691610585575b501561054357506104fe6104f985963390611b22565b6119ae565b803b1561053e5783918351809581936307ff078f60e11b83525af19081156105355750610529575080f35b61053290611070565b80f35b513d84823e3d90fd5b505050fd5b9050606492519162461bcd60e51b8352820152601e60248201527f4d7573742062652070656e64696e6720696e697469616c697a6174696f6e00006044820152fd5b6105a59150823d84116105ab575b61059d818361109a565b8101906118cd565b876104e3565b503d610593565b85513d88823e3d90fd5b9050608492519162461bcd60e51b8352820152602360248201527f4d75737420626520636f6e74726f6c6c65722d656e61626c656420536574546f60448201526235b2b760e91b6064820152fd5b6106219150823d84116105ab5761059d818361109a565b876104b6565b5050346100d657816003193601126100d657905490516001600160a01b039091168152602090f35b833461066357806003193601126106635780f35b80fd5b91905034610192578260031936011261019257600154916001600160a01b039182841633036106d257505082546001600160a01b03198082163390811786559316600155167f8be0079c531659141344cd1fd0a4f28419497f9722a3daafe3b4186f6b6457e08380a380f35b906020606492519162461bcd60e51b8352820152601660248201527526bab9ba10313290383937b837b9b2b21037bbb732b960511b6044820152fd5b8383346100d65761071e36610fa1565b90926107286110f8565b610731836119fa565b6107396110bc565b6001600160a01b03848116808352868216602080850182815286516318160ddd60e01b81529297909592949382868e81845afa95861561099b57908d92918d976109a5575b5083906024670de0b6b3a764000061079c858d8a019b808d5261114e565b0494606088019586528b519c8d9384926370a0823160e01b84528301525afa98891561099b57918c918e93839b61095f575b509161083a93916107e78694608089019d8e52886117a9565b6107fd88885116898c51169083519130916111f5565b8951875191518c5163a9059cbb60e01b8152928a166001600160a01b03169483019485526020850152909485939189169284929091839160400190565b03925af1801561095557918493916108c897969593610937575b50507f4e12901aafa51500ac494d8584f63b1b1aeb6b883d2bd2b6c79d45e7be34e1b860a088516108b781856080809160018060a01b03808251168552602082015116602085015260408101516040850152606081015160608501520151910152565ba151169251169051908551926112b2565b50509151820391821161092457516001600160a01b03928316815292909116602083015260408201527f762422b1015236ea7daa08f2012a7b08e3bfd7cd79ab6e81417ba68e8dd1b1749080606081015b0390a1600160035580f35b634e487b7160e01b855260118652602485fd5b8161094d92903d106105ab5761059d818361109a565b508c80610854565b87513d8d823e3d90fd5b9250995091508281813d8311610994575b61097a818361109a565b810103126109905751978c918c9161083a6107ce565b8b80fd5b503d610970565b88513d8e823e3d90fd5b8480929850819394503d83116109d3575b6109c0818361109a565b810103126109905751948c91908361077e565b503d6109b6565b905034610192576020366003190112610192576109f5610f75565b916109fe61101e565b47908480808085885af1610a106118e5565b5015610a1a578480f35b51639d11f56360e01b8152339281019283526001600160a01b039093166020830152604082015281906060010390fd5b0390fd5b915091346100d657806003193601126100d657610a69610f75565b610a71610f8b565b610a7961101e565b60018060a01b03168251916370a0823160e01b835230868401526020958684602481865afa9384156105b2579087949392918794610b1e575b50855163a9059cbb60e01b81526001600160a01b03909216908201908152602081019390935294859283919082906040015b03925af1908115610b155750610af8578280f35b81610b0e92903d106105ab5761059d818361109a565b5038808280f35b513d85823e3d90fd5b8581969295503d8311610b50575b610b36818361109a565b81010312610b4c57925186939092610ae4610ab2565b8580fd5b503d610b2c565b8383346100d657816003193601126100d65782549060055490805191846006549060019082821c928281168015610c8a575b60209a8b86108214610c7757508488528a9392918115610c545750600114610bfa575b50505050610bc083610bf69596038461109a565b8151958695865267ffffffffffffffff82169086015260018060a01b0390821c1690840152608060608401526080830190610ff9565b0390f35b92919750600683527ff652222313e28459528d920b65115c16c04f3efc82aaedc97be59f3f377c0d3f5b828410610c4157505050830190940193610bc086610bf685610bac565b80548785018a0152928801928101610c24565b60ff19168489015250505090151560051b8401019450610bc086610bf685610bac565b634e487b7160e01b845260229052602483fd5b93607f1693610b89565b8383346100d657610ca436610fa1565b9092610cae6110f8565b610cb7836119fa565b610cbf6110bc565b6001600160a01b03848116808352868216602080850182815286516318160ddd60e01b81529297909592949382868e81845afa95861561099b57908d92918d97610f40575b5083906024670de0b6b3a7640000610d22858d8a019b808d5261114e565b0494606088019586528b519c8d9384926370a0823160e01b84528301525afa98891561099b578c99610f0f575b50610d619060808501998a52846117a9565b610d7784845116858851169083519130916111f5565b83865116908484511690519188519363db56a52960e01b908501526024840152604483015230606483015260848201526084815260c081019080821067ffffffffffffffff831117610efc578187528a82858551166347b7819960e11b82523060c48501528260e48501526060610104850152818360bf1986610dfe610124820182610ff9565b0301925af180156109555784939192610e7f979695938d92610ed5575b5050507fea305cac9aff37cd7930812e312850d5ef2faaf28a6ab675dba5c167c66a285f60a088516108b781856080809160018060a01b03808251168552602082015116602085015260408101516040850152606081015160608501520151910152565b5050915191820391821161092457516001600160a01b03928316815292909116602083015260408201527f115ab343fe2202356c5bae44d4a94e17e6c91f46d1821fda9f1e94b76ce1fd54908060608101610919565b610ef39260c0913d8092853e610eeb828561109a565b010190611193565b508a8d80610e1b565b634e487b7160e01b8b5260418c5260248bfd5b9098508281813d8311610f39575b610f27818361109a565b81010312610990575197610d61610d4f565b503d610f1d565b8480929850819394503d8311610f6e575b610f5b818361109a565b810103126109905751948c919083610d04565b503d610f51565b600435906001600160a01b038216820361038557565b602435906001600160a01b038216820361038557565b6060906003190112610385576001600160a01b0390600435828116810361038557916024359081168103610385579060443590565b60005b838110610fe95750506000910152565b8181015183820152602001610fd9565b9060209161101281518092818552858086019101610fd6565b601f01601f1916010190565b6000546001600160a01b0316330361103257565b60405162461bcd60e51b815260206004820152601660248201527527b7363c9031b0b63630b1363290313c9037bbb732b960511b6044820152606490fd5b67ffffffffffffffff811161108457604052565b634e487b7160e01b600052604160045260246000fd5b90601f8019910116810190811067ffffffffffffffff82111761108457604052565b6040519060a0820182811067ffffffffffffffff8211176110845760405260006080838281528260208201528260408201528260608201520152565b600260035414611109576002600355565b60405162461bcd60e51b815260206004820152601f60248201527f5265656e7472616e637947756172643a207265656e7472616e742063616c6c006044820152606490fd5b8181029291811591840414171561116157565b634e487b7160e01b600052601160045260246000fd5b67ffffffffffffffff811161108457601f01601f191660200190565b6020818303126103855780519067ffffffffffffffff8211610385570181601f820112156103855780516111c681611177565b926111d4604051948561109a565b81845260208284010111610385576111f29160208085019101610fd6565b90565b60405163095ea7b360e01b60208201526001600160a01b0393909316602484015260448084019490945292825291600091611275919061123660648261109a565b6040516347b7819960e11b81526001600160a01b0395861660048201526024810185905260606044820152948593849286929184916064830190610ff9565b0393165af180156112a6576112875750565b6112a3903d806000833e61129b818361109a565b810190611193565b50565b6040513d6000823e3d90fd5b604080516370a0823160e01b81526001600160a01b0380841660048084018290529698969295600095602495949382169392916020808a8981895afa998a1561162457899a6115f5575b5086519c8d9c826366cb8d2f60e01b9e8f815289898201528b81895afa9e8f156115eb578b9f6115bd575b508a8f1261157d578e908c1561157357829161134d670de0b6b3a764000093849261114e565b04810390811161156157808d03918d831161154f5780830292830414908d14171561153d57811561152b57049b5b8751908152868682015281818a81885afa91821561152157908a929183926114ec575b5050138015806114e3575b1561146f57506113b8916116a9565b1561141b575b6113c78961162e565b813b1561141757918660449281959487519889968795632ba57d1760e01b87528601528401525af19081156105355750611403575b5050929190565b61140d8291611070565b61066357806113fc565b8680fd5b803b15610b4c5783516304e3532760e41b81528281018490528681878183865af1801561146557908791611451575b50506113be565b61145a90611070565b610b4c57853861144a565b85513d89823e3d90fd5b806114db575b6114805750506113be565b611489916116a9565b15611496575b388061144a565b803b15610b4c578351636f86c89760e01b81528281018490528681878183865af18015611465576114c8575b5061148f565b6114d490969196611070565b94386114c2565b508a15611475565b508b15156113a9565b8193508092503d831161151a575b611504818361109a565b8101031261151657889051388061139e565b8880fd5b503d6114fa565b88513d8c823e3d90fd5b634e487b7160e01b8b5260128752898bfd5b634e487b7160e01b8b5260118752898bfd5b634e487b7160e01b8d52601189528b8dfd5b634e487b7160e01b8c52601188528a8cfd5b505050889b61137b565b606487848c818d519362461bcd60e51b85528401528201527f53616665436173743a2076616c7565206d75737420626520706f7369746976656044820152fd5b8b9f508381813d83116115e4575b6115d5818361109a565b8101031261099057519e611327565b503d6115cb565b89513d8d823e3d90fd5b90809a5081813d831161161d575b61160d818361109a565b81010312611516575198386112fc565b503d611603565b87513d8b823e3d90fd5b6001600160ff1b03811161163f5790565b60405162461bcd60e51b815260206004820152602860248201527f53616665436173743a2076616c756520646f65736e27742066697420696e2061604482015267371034b73a191a9b60c11b6064820152608490fd5b51906001600160a01b038216820361038557565b60405163a7bdad0360e01b81526001600160a01b0392831660048201526000929091839183916024918391165afa91821561179d5780926116ed575b505051151590565b9091503d8082843e6116ff818461109a565b8201602091828483031261066357835167ffffffffffffffff94858211610192570182601f820112156100d6578051948511611789578460051b916040519561174a8685018861109a565b8652848087019383010193841161066357508301905b828210611772575050505038806116e5565b83809161177e84611695565b815201910190611760565b634e487b7160e01b82526041600452602482fd5b604051903d90823e3d90fd5b6060810151156118885780516020918201516040516366cb8d2f60e01b81526001600160a01b039182166004820152929391849184916024918391165afa9182156112a657600092611857575b506118009061162e565b136118085750565b6084906040519062461bcd60e51b82526004820152602260248201527f556e69742063616e742062652067726561746572207468616e206578697374696044820152616e6760f01b6064820152fd5b90918382813d8311611881575b61186e818361109a565b81010312610663575051906118006117f6565b503d611864565b60405162461bcd60e51b815260206004820152601d60248201527f546f6b656e20746f2073656c6c206d757374206265206e6f6e7a65726f0000006044820152606490fd5b90816020910312610385575180151581036103855790565b3d15611910573d906118f682611177565b91611904604051938461109a565b82523d6000602084013e565b606090565b919290156119775750815115611929575090565b3b156119325790565b60405162461bcd60e51b815260206004820152601d60248201527f416464726573733a2063616c6c20746f206e6f6e2d636f6e74726163740000006044820152606490fd5b82519091501561198a5750805190602001fd5b60405162461bcd60e51b815260206004820152908190610a4a906024830190610ff9565b156119b557565b60405162461bcd60e51b815260206004820152601c60248201527f4d7573742062652074686520536574546f6b656e206d616e61676572000000006044820152606490fd5b611a076104f93383611b22565b600254604051631d3af8fb60e21b81526001600160a01b03928316600482018190526020939092849183916024918391165afa9182156112a6578391600093611b03575b5082611ab1575b505015611a5c5750565b6084906040519062461bcd60e51b82526004820152602860248201527f4d75737420626520612076616c696420616e6420696e697469616c697a65642060448201526729b2ba2a37b5b2b760c11b6064820152fd5b6040516335fc6c9f60e21b81523060048201529250829060249082905afa9081156112a657600091611ae6575b508138611a52565b611afd9150823d84116105ab5761059d818361109a565b38611ade565b611b1b919350823d84116105ab5761059d818361109a565b9138611a4b565b60405163481c6a7560e01b8152916001600160a01b03916020908490600490829086165afa9283156112a657600093611b5f575b50811691161490565b90926020823d8211611b93575b81611b796020938361109a565b810103126106635750611b8c8291611695565b9290611b56565b3d9150611b6c56fea26469706673582212206f68d8cce0cefe82e9a57d9feadac202cac3ae82b996e99f55b37c2fa2ed086d64736f6c63430008130033",
    "linkReferences": {}
  },
  "methodIdentifiers": {
    "acceptOwnership()": "79ba5097",
    "controller()": "f77c4791",
    "getLatestMessageDetails()": "3394e6f4",
    "initialize(address)": "c4d66de8",
    "lockToken(address,address,uint256)": "1d4347a8",
    "owner()": "8da5cb5b",
    "releaseToken(address,address,uint256)": "6d098560",
    "removeModule()": "847ef08d",
    "transferFromRaw(address,address,address,uint256)": "db56a529",
    "transferOwnership(address)": "f2fde38b",
    "withdraw(address)": "51cff8d9",
    "withdrawToken(address,address)": "3aeac4e1"
  },
  "id": 63
}