{
  "abi": [
    {
      "inputs": [
        {
          "internalType": "address",
          "name": "linkToken",
          "type": "address"
        },
        {
          "internalType": "address",
          "name": "ccipRouter",
          "type": "address"
        },
        {
          "internalType": "contract IERC20",
          "name": "asset",
          "type": "address"
        },
        {
          "internalType": "string",
          "name": "name",
          "type": "string"
        },
        {
          "internalType": "string",
          "name": "symbol",
          "type": "string"
        }
      ],
      "stateMutability": "nonpayable",
      "type": "constructor"
    },
    {
      "inputs": [
        {
          "internalType": "address",
          "name": "router",
          "type": "address"
        }
      ],
      "name": "InvalidRouter",
      "type": "error"
    },
    {
      "anonymous": false,
      "inputs": [
        {
          "indexed": true,
          "internalType": "address",
          "name": "owner",
          "type": "address"
        },
        {
          "indexed": true,
          "internalType": "address",
          "name": "spender",
          "type": "address"
        },
        {
          "indexed": false,
          "internalType": "uint256",
          "name": "value",
          "type": "uint256"
        }
      ],
      "name": "Approval",
      "type": "event"
    },
    {
      "anonymous": false,
      "inputs": [
        {
          "indexed": true,
          "internalType": "address",
          "name": "sender",
          "type": "address"
        },
        {
          "indexed": true,
          "internalType": "address",
          "name": "owner",
          "type": "address"
        },
        {
          "indexed": false,
          "internalType": "uint256",
          "name": "assets",
          "type": "uint256"
        },
        {
          "indexed": false,
          "internalType": "uint256",
          "name": "shares",
          "type": "uint256"
        }
      ],
      "name": "Deposit",
      "type": "event"
    },
    {
      "anonymous": false,
      "inputs": [
        {
          "indexed": false,
          "internalType": "bytes32",
          "name": "latestMessageId",
          "type": "bytes32"
        },
        {
          "indexed": false,
          "internalType": "uint64",
          "name": "latestSourceChainSelector",
          "type": "uint64"
        },
        {
          "indexed": false,
          "internalType": "address",
          "name": "latestSender",
          "type": "address"
        },
        {
          "indexed": false,
          "internalType": "string",
          "name": "latestMessage",
          "type": "string"
        }
      ],
      "name": "MessageReceived",
      "type": "event"
    },
    {
      "anonymous": false,
      "inputs": [
        {
          "indexed": false,
          "internalType": "bytes32",
          "name": "messageId",
          "type": "bytes32"
        }
      ],
      "name": "MessageSent",
      "type": "event"
    },
    {
      "anonymous": false,
      "inputs": [
        {
          "indexed": false,
          "internalType": "uint256",
          "name": "shares",
          "type": "uint256"
        },
        {
          "indexed": false,
          "internalType": "address",
          "name": "recipient",
          "type": "address"
        }
      ],
      "name": "ReserveMinted",
      "type": "event"
    },
    {
      "anonymous": false,
      "inputs": [
        {
          "indexed": true,
          "internalType": "address",
          "name": "from",
          "type": "address"
        },
        {
          "indexed": true,
          "internalType": "address",
          "name": "to",
          "type": "address"
        },
        {
          "indexed": false,
          "internalType": "uint256",
          "name": "value",
          "type": "uint256"
        }
      ],
      "name": "Transfer",
      "type": "event"
    },
    {
      "anonymous": false,
      "inputs": [
        {
          "indexed": true,
          "internalType": "address",
          "name": "sender",
          "type": "address"
        },
        {
          "indexed": true,
          "internalType": "address",
          "name": "receiver",
          "type": "address"
        },
        {
          "indexed": true,
          "internalType": "address",
          "name": "owner",
          "type": "address"
        },
        {
          "indexed": false,
          "internalType": "uint256",
          "name": "assets",
          "type": "uint256"
        },
        {
          "indexed": false,
          "internalType": "uint256",
          "name": "shares",
          "type": "uint256"
        }
      ],
      "name": "Withdraw",
      "type": "event"
    },
    {
      "inputs": [
        {
          "internalType": "int256",
          "name": "a",
          "type": "int256"
        },
        {
          "internalType": "uint256",
          "name": "b",
          "type": "uint256"
        }
      ],
      "name": "addUint256ToInt256",
      "outputs": [
        {
          "internalType": "int256",
          "name": "",
          "type": "int256"
        }
      ],
      "stateMutability": "pure",
      "type": "function"
    },
    {
      "inputs": [
        {
          "internalType": "address",
          "name": "owner",
          "type": "address"
        },
        {
          "internalType": "address",
          "name": "spender",
          "type": "address"
        }
      ],
      "name": "allowance",
      "outputs": [
        {
          "internalType": "uint256",
          "name": "",
          "type": "uint256"
        }
      ],
      "stateMutability": "view",
      "type": "function"
    },
    {
      "inputs": [
        {
          "internalType": "address",
          "name": "spender",
          "type": "address"
        },
        {
          "internalType": "uint256",
          "name": "amount",
          "type": "uint256"
        }
      ],
      "name": "approve",
      "outputs": [
        {
          "internalType": "bool",
          "name": "",
          "type": "bool"
        }
      ],
      "stateMutability": "nonpayable",
      "type": "function"
    },
    {
      "inputs": [],
      "name": "asset",
      "outputs": [
        {
          "internalType": "address",
          "name": "",
          "type": "address"
        }
      ],
      "stateMutability": "view",
      "type": "function"
    },
    {
      "inputs": [
        {
          "internalType": "address",
          "name": "account",
          "type": "address"
        }
      ],
      "name": "balanceOf",
      "outputs": [
        {
          "internalType": "uint256",
          "name": "",
          "type": "uint256"
        }
      ],
      "stateMutability": "view",
      "type": "function"
    },
    {
      "inputs": [
        {
          "internalType": "bytes",
          "name": "data",
          "type": "bytes"
        }
      ],
      "name": "bytesToHexString",
      "outputs": [
        {
          "internalType": "string",
          "name": "",
          "type": "string"
        }
      ],
      "stateMutability": "pure",
      "type": "function"
    },
    {
      "inputs": [
        {
          "components": [
            {
              "internalType": "bytes32",
              "name": "messageId",
              "type": "bytes32"
            },
            {
              "internalType": "uint64",
              "name": "sourceChainSelector",
              "type": "uint64"
            },
            {
              "internalType": "bytes",
              "name": "sender",
              "type": "bytes"
            },
            {
              "internalType": "bytes",
              "name": "data",
              "type": "bytes"
            },
            {
              "components": [
                {
                  "internalType": "address",
                  "name": "token",
                  "type": "address"
                },
                {
                  "internalType": "uint256",
                  "name": "amount",
                  "type": "uint256"
                }
              ],
              "internalType": "struct Client.EVMTokenAmount[]",
              "name": "destTokenAmounts",
              "type": "tuple[]"
            }
          ],
          "internalType": "struct Client.Any2EVMMessage",
          "name": "message",
          "type": "tuple"
        }
      ],
      "name": "ccipReceive",
      "outputs": [],
      "stateMutability": "nonpayable",
      "type": "function"
    },
    {
      "inputs": [
        {
          "internalType": "uint256",
          "name": "shares",
          "type": "uint256"
        }
      ],
      "name": "convertToAssets",
      "outputs": [
        {
          "internalType": "uint256",
          "name": "",
          "type": "uint256"
        }
      ],
      "stateMutability": "view",
      "type": "function"
    },
    {
      "inputs": [
        {
          "internalType": "uint256",
          "name": "assets",
          "type": "uint256"
        }
      ],
      "name": "convertToShares",
      "outputs": [
        {
          "internalType": "uint256",
          "name": "",
          "type": "uint256"
        }
      ],
      "stateMutability": "view",
      "type": "function"
    },
    {
      "inputs": [],
      "name": "decimals",
      "outputs": [
        {
          "internalType": "uint8",
          "name": "",
          "type": "uint8"
        }
      ],
      "stateMutability": "view",
      "type": "function"
    },
    {
      "inputs": [
        {
          "internalType": "address",
          "name": "spender",
          "type": "address"
        },
        {
          "internalType": "uint256",
          "name": "subtractedValue",
          "type": "uint256"
        }
      ],
      "name": "decreaseAllowance",
      "outputs": [
        {
          "internalType": "bool",
          "name": "",
          "type": "bool"
        }
      ],
      "stateMutability": "nonpayable",
      "type": "function"
    },
    {
      "inputs": [
        {
          "internalType": "uint256",
          "name": "assets",
          "type": "uint256"
        },
        {
          "internalType": "address",
          "name": "receiver",
          "type": "address"
        }
      ],
      "name": "deposit",
      "outputs": [
        {
          "internalType": "uint256",
          "name": "",
          "type": "uint256"
        }
      ],
      "stateMutability": "nonpayable",
      "type": "function"
    },
    {
      "inputs": [],
      "name": "getRouter",
      "outputs": [
        {
          "internalType": "address",
          "name": "",
          "type": "address"
        }
      ],
      "stateMutability": "view",
      "type": "function"
    },
    {
      "inputs": [
        {
          "internalType": "address",
          "name": "spender",
          "type": "address"
        },
        {
          "internalType": "uint256",
          "name": "addedValue",
          "type": "uint256"
        }
      ],
      "name": "increaseAllowance",
      "outputs": [
        {
          "internalType": "bool",
          "name": "",
          "type": "bool"
        }
      ],
      "stateMutability": "nonpayable",
      "type": "function"
    },
    {
      "inputs": [],
      "name": "latestArgs",
      "outputs": [
        {
          "internalType": "bytes32",
          "name": "",
          "type": "bytes32"
        }
      ],
      "stateMutability": "view",
      "type": "function"
    },
    {
      "inputs": [],
      "name": "latestMessage",
      "outputs": [
        {
          "internalType": "string",
          "name": "",
          "type": "string"
        }
      ],
      "stateMutability": "view",
      "type": "function"
    },
    {
      "inputs": [],
      "name": "latestMessageId",
      "outputs": [
        {
          "internalType": "bytes32",
          "name": "",
          "type": "bytes32"
        }
      ],
      "stateMutability": "view",
      "type": "function"
    },
    {
      "inputs": [],
      "name": "latestSender",
      "outputs": [
        {
          "internalType": "address",
          "name": "",
          "type": "address"
        }
      ],
      "stateMutability": "view",
      "type": "function"
    },
    {
      "inputs": [],
      "name": "latestSourceChainSelector",
      "outputs": [
        {
          "internalType": "uint64",
          "name": "",
          "type": "uint64"
        }
      ],
      "stateMutability": "view",
      "type": "function"
    },
    {
      "inputs": [
        {
          "internalType": "address",
          "name": "",
          "type": "address"
        }
      ],
      "name": "maxDeposit",
      "outputs": [
        {
          "internalType": "uint256",
          "name": "",
          "type": "uint256"
        }
      ],
      "stateMutability": "view",
      "type": "function"
    },
    {
      "inputs": [
        {
          "internalType": "address",
          "name": "",
          "type": "address"
        }
      ],
      "name": "maxMint",
      "outputs": [
        {
          "internalType": "uint256",
          "name": "",
          "type": "uint256"
        }
      ],
      "stateMutability": "view",
      "type": "function"
    },
    {
      "inputs": [
        {
          "internalType": "address",
          "name": "owner",
          "type": "address"
        }
      ],
      "name": "maxRedeem",
      "outputs": [
        {
          "internalType": "uint256",
          "name": "",
          "type": "uint256"
        }
      ],
      "stateMutability": "view",
      "type": "function"
    },
    {
      "inputs": [
        {
          "internalType": "address",
          "name": "",
          "type": "address"
        }
      ],
      "name": "maxReserve",
      "outputs": [
        {
          "internalType": "int256",
          "name": "",
          "type": "int256"
        }
      ],
      "stateMutability": "pure",
      "type": "function"
    },
    {
      "inputs": [
        {
          "internalType": "address",
          "name": "owner",
          "type": "address"
        }
      ],
      "name": "maxWithdraw",
      "outputs": [
        {
          "internalType": "uint256",
          "name": "",
          "type": "uint256"
        }
      ],
      "stateMutability": "view",
      "type": "function"
    },
    {
      "inputs": [
        {
          "internalType": "address",
          "name": "",
          "type": "address"
        }
      ],
      "name": "minReserve",
      "outputs": [
        {
          "internalType": "int256",
          "name": "",
          "type": "int256"
        }
      ],
      "stateMutability": "pure",
      "type": "function"
    },
    {
      "inputs": [
        {
          "internalType": "uint256",
          "name": "shares",
          "type": "uint256"
        },
        {
          "internalType": "address",
          "name": "receiver",
          "type": "address"
        }
      ],
      "name": "mint",
      "outputs": [
        {
          "internalType": "uint256",
          "name": "",
          "type": "uint256"
        }
      ],
      "stateMutability": "nonpayable",
      "type": "function"
    },
    {
      "inputs": [
        {
          "internalType": "uint256",
          "name": "shares",
          "type": "uint256"
        },
        {
          "internalType": "address",
          "name": "receiver",
          "type": "address"
        }
      ],
      "name": "mintReserve",
      "outputs": [
        {
          "internalType": "bool",
          "name": "",
          "type": "bool"
        }
      ],
      "stateMutability": "nonpayable",
      "type": "function"
    },
    {
      "inputs": [],
      "name": "name",
      "outputs": [
        {
          "internalType": "string",
          "name": "",
          "type": "string"
        }
      ],
      "stateMutability": "view",
      "type": "function"
    },
    {
      "inputs": [
        {
          "internalType": "uint256",
          "name": "assets",
          "type": "uint256"
        }
      ],
      "name": "previewDeposit",
      "outputs": [
        {
          "internalType": "uint256",
          "name": "",
          "type": "uint256"
        }
      ],
      "stateMutability": "view",
      "type": "function"
    },
    {
      "inputs": [
        {
          "internalType": "uint256",
          "name": "shares",
          "type": "uint256"
        }
      ],
      "name": "previewMint",
      "outputs": [
        {
          "internalType": "uint256",
          "name": "",
          "type": "uint256"
        }
      ],
      "stateMutability": "view",
      "type": "function"
    },
    {
      "inputs": [
        {
          "internalType": "uint256",
          "name": "shares",
          "type": "uint256"
        }
      ],
      "name": "previewRedeem",
      "outputs": [
        {
          "internalType": "uint256",
          "name": "",
          "type": "uint256"
        }
      ],
      "stateMutability": "view",
      "type": "function"
    },
    {
      "inputs": [
        {
          "internalType": "uint256",
          "name": "assets",
          "type": "uint256"
        }
      ],
      "name": "previewWithdraw",
      "outputs": [
        {
          "internalType": "uint256",
          "name": "",
          "type": "uint256"
        }
      ],
      "stateMutability": "view",
      "type": "function"
    },
    {
      "inputs": [
        {
          "internalType": "uint256",
          "name": "shares",
          "type": "uint256"
        },
        {
          "internalType": "address",
          "name": "receiver",
          "type": "address"
        },
        {
          "internalType": "address",
          "name": "owner",
          "type": "address"
        }
      ],
      "name": "redeem",
      "outputs": [
        {
          "internalType": "uint256",
          "name": "",
          "type": "uint256"
        }
      ],
      "stateMutability": "nonpayable",
      "type": "function"
    },
    {
      "inputs": [
        {
          "internalType": "address",
          "name": "account",
          "type": "address"
        }
      ],
      "name": "reserveBalanceOf",
      "outputs": [
        {
          "internalType": "int256",
          "name": "",
          "type": "int256"
        }
      ],
      "stateMutability": "view",
      "type": "function"
    },
    {
      "inputs": [
        {
          "internalType": "int256",
          "name": "a",
          "type": "int256"
        },
        {
          "internalType": "uint256",
          "name": "b",
          "type": "uint256"
        }
      ],
      "name": "safeAddIntToUint",
      "outputs": [
        {
          "internalType": "uint256",
          "name": "",
          "type": "uint256"
        }
      ],
      "stateMutability": "pure",
      "type": "function"
    },
    {
      "inputs": [
        {
          "internalType": "string",
          "name": "str",
          "type": "string"
        }
      ],
      "name": "stringToUint",
      "outputs": [
        {
          "internalType": "uint256",
          "name": "result",
          "type": "uint256"
        }
      ],
      "stateMutability": "pure",
      "type": "function"
    },
    {
      "inputs": [
        {
          "internalType": "uint256",
          "name": "a",
          "type": "uint256"
        },
        {
          "internalType": "int256",
          "name": "b",
          "type": "int256"
        }
      ],
      "name": "subtract",
      "outputs": [
        {
          "internalType": "int256",
          "name": "",
          "type": "int256"
        }
      ],
      "stateMutability": "pure",
      "type": "function"
    },
    {
      "inputs": [
        {
          "internalType": "int256",
          "name": "a",
          "type": "int256"
        },
        {
          "internalType": "uint256",
          "name": "b",
          "type": "uint256"
        }
      ],
      "name": "subtractUintFromInt",
      "outputs": [
        {
          "internalType": "uint256",
          "name": "",
          "type": "uint256"
        }
      ],
      "stateMutability": "pure",
      "type": "function"
    },
    {
      "inputs": [
        {
          "internalType": "bytes4",
          "name": "interfaceId",
          "type": "bytes4"
        }
      ],
      "name": "supportsInterface",
      "outputs": [
        {
          "internalType": "bool",
          "name": "",
          "type": "bool"
        }
      ],
      "stateMutability": "pure",
      "type": "function"
    },
    {
      "inputs": [],
      "name": "symbol",
      "outputs": [
        {
          "internalType": "string",
          "name": "",
          "type": "string"
        }
      ],
      "stateMutability": "view",
      "type": "function"
    },
    {
      "inputs": [],
      "name": "totalAssets",
      "outputs": [
        {
          "internalType": "uint256",
          "name": "",
          "type": "uint256"
        }
      ],
      "stateMutability": "view",
      "type": "function"
    },
    {
      "inputs": [],
      "name": "totalSupply",
      "outputs": [
        {
          "internalType": "uint256",
          "name": "",
          "type": "uint256"
        }
      ],
      "stateMutability": "view",
      "type": "function"
    },
    {
      "inputs": [
        {
          "internalType": "address",
          "name": "to",
          "type": "address"
        },
        {
          "internalType": "uint256",
          "name": "amount",
          "type": "uint256"
        }
      ],
      "name": "transfer",
      "outputs": [
        {
          "internalType": "bool",
          "name": "",
          "type": "bool"
        }
      ],
      "stateMutability": "nonpayable",
      "type": "function"
    },
    {
      "inputs": [
        {
          "internalType": "uint64",
          "name": "destinationChainSelector",
          "type": "uint64"
        },
        {
          "internalType": "address",
          "name": "ccipReceiver",
          "type": "address"
        },
        {
          "internalType": "address",
          "name": "reserveRecipient",
          "type": "address"
        },
        {
          "internalType": "uint256",
          "name": "sharesOut",
          "type": "uint256"
        },
        {
          "internalType": "bool",
          "name": "useLink",
          "type": "bool"
        }
      ],
      "name": "transferCrossChain",
      "outputs": [
        {
          "internalType": "bytes32",
          "name": "messageId",
          "type": "bytes32"
        }
      ],
      "stateMutability": "nonpayable",
      "type": "function"
    },
    {
      "inputs": [
        {
          "internalType": "address",
          "name": "from",
          "type": "address"
        },
        {
          "internalType": "address",
          "name": "to",
          "type": "address"
        },
        {
          "internalType": "uint256",
          "name": "amount",
          "type": "uint256"
        }
      ],
      "name": "transferFrom",
      "outputs": [
        {
          "internalType": "bool",
          "name": "",
          "type": "bool"
        }
      ],
      "stateMutability": "nonpayable",
      "type": "function"
    },
    {
      "inputs": [
        {
          "internalType": "uint256",
          "name": "assets",
          "type": "uint256"
        },
        {
          "internalType": "address",
          "name": "receiver",
          "type": "address"
        },
        {
          "internalType": "address",
          "name": "owner",
          "type": "address"
        }
      ],
      "name": "withdraw",
      "outputs": [
        {
          "internalType": "uint256",
          "name": "",
          "type": "uint256"
        }
      ],
      "stateMutability": "nonpayable",
      "type": "function"
    },
    {
      "stateMutability": "payable",
      "type": "receive"
    }
  ],
  "bytecode": {
    "object": "0x610100604090808252346200024e5762002d6180380380916200002382856200046b565b833981019060a0818303126200024e576200003e816200048f565b916020916200004f8382016200048f565b8186015190926001600160a01b03919082821682036200024e5760608401516001600160401b0394908581116200024e57826200008e918301620004c0565b9160808201518681116200024e57620000a89201620004c0565b93815181811162000368576003908154906001948583811c9316801562000460575b8b8410146200044a5781908b601f94858111620003f1575b50508b908483116001146200038a576000926200037e575b505060001982851b1c191690851b1782555b8651928311620003685760049687548581811c911680156200035d575b8b8210146200034857828111620002fd575b5089918411600114620002925793839491849260009562000286575b50501b92600019911b1c19161783555b62000172816200052a565b90156200027d575b60a052608052808316928315620002665791600060449286959460c0528760e0528851978895869463095ea7b360e01b865285015282196024850152165af180156200025b576200021c575b82516127709081620005f1823960805181818161112c01528181611bbd01528181611d490152611eb9015260a0518161119d015260c0518181816104d50152818161081f0152610b0e015260e051816107cd0152f35b81813d831162000253575b6200023381836200046b565b810103126200024e5751801515036200024e573880620001c6565b600080fd5b503d62000227565b83513d6000823e3d90fd5b86516335fdcccd60e21b8152600081850152602490fd5b5060126200017a565b01519350388062000157565b9190601f1984169288600052848b6000209460005b8d89838310620002e55750505010620002ca575b50505050811b01835562000167565b01519060f884600019921b161c1916905538808080620002bb565b868601518955909701969485019488935001620002a7565b886000528a6000208380870160051c8201928d88106200033e575b0160051c019086905b828110620003315750506200013b565b6000815501869062000321565b9250819262000318565b602289634e487b7160e01b6000525260246000fd5b90607f169062000129565b634e487b7160e01b600052604160045260246000fd5b015190503880620000fa565b60008681528d8120899550929190601f198516908f5b828210620003d95750508411620003c0575b505050811b0182556200010c565b015160001983871b60f8161c19169055388080620003b2565b8385015186558b979095019493840193018f620003a0565b909192508560005284826000209181860160051c830193861062000440575b918991869594930160051c01915b8281106200043057508d9150620000e2565b600081558594508991016200041e565b9250819262000410565b634e487b7160e01b600052602260045260246000fd5b92607f1692620000ca565b601f909101601f19168101906001600160401b038211908210176200036857604052565b51906001600160a01b03821682036200024e57565b6001600160401b0381116200036857601f01601f191660200190565b919080601f840112156200024e57825190620004dc82620004a4565b91620004ec60405193846200046b565b8083526020918282870101116200024e5760005b8181106200051657508260009394955001015290565b858101830151848201840152820162000500565b6040805163313ce56760e01b60208201908152600482529293929181016001600160401b0381118282101762000368576040525160009384928392916001600160a01b03165afa3d15620005e7573d906200058582620004a4565b916200059560405193846200046b565b82523d84602084013e5b80620005da575b620005b1575b508190565b602081805181010312620005d6576020015160ff8111620005ac576001925060ff1690565b8280fd5b50602081511015620005a6565b6060906200059f56fe60406080815260049081361015610020575b5050361561001e57600080fd5b005b600091823560e01c90816301e1d1141461155957816301ffc9a71461150357816306fdde031461143057816307a2d13a146110a3578163095ea7b3146114065781630a28a477146113e65781630d6c7667146113ca578163121f8289146113ae57816318160ddd1461138f5781631bd951551461122057816323b872dd146111e3578163313ce5671461118757816334a077981461115b57816338d52e0f1461111757816339509351146110c7578163402d267d14610357578163447a7776146110a85781634cdad506146110a3578163661d1300146110845781636e553f651461104f57816370a08231146110185781637d520c2214610e87578163850dd09114610d8757816385572ffb14610ace578163897571b814610aab57816394bf804d14610a7657816394f8822d146106f55781639519a1e0146106c957816395d89b41146105da578163a457c2d714610535578163a9059cbb14610504578163b0f479a1146104c0578163b3d7f6b9146104a0578163b460af941461041d578163b5e2bb10146103e5578163ba0876521461035c57508063c63d75b614610357578063c6e6f59214610248578063ce96cb7714610332578063d3a4e21d1461030a578063d905777e146102e5578063dab6695e146102bd578063dd62ed3e14610275578063e12148151461024d578063ef8b30f7146102485763efd88c270361001157346102445760209061023d6102373661160d565b906126ce565b9051908152f35b5080fd5b611859565b50346102445781600319360112610244576006548151911c6001600160a01b03168152602090f35b5034610244578060031936011261024457806020926102926115e1565b61029a6115f7565b6001600160a01b0391821683526001865283832091168252845220549051908152f35b503461024457816003193601126102445760209067ffffffffffffffff600654169051908152f35b50346102445760203660031901126102445760209061023d6103056115e1565b61238f565b5034610244576020366003190112610244576020906103276115e1565b5051600160ff1b8152f35b50346102445760203660031901126102445760209061023d6103526115e1565b6123b9565b6117e0565b905082346103e2575061036e36611824565b926103788461238f565b831161039f5750816103999161039060209694611cb4565b94859133611e29565b51908152f35b606490602086519162461bcd60e51b8352820152601d60248201527f455243343632363a2072656465656d206d6f7265207468616e206d61780000006044820152fd5b80fd5b5050346102445760203660031901126102445760209181906001600160a01b0361040d6115e1565b168152600a845220549051908152f35b905082346103e2575061042f36611824565b9261043c849392936123b9565b821161045d5750602093918161045461039993611c33565b94859233611e29565b606490602086519162461bcd60e51b8352820152601f60248201527f455243343632363a207769746864726177206d6f7265207468616e206d6178006044820152fd5b8284346103e25760203660031901126103e2575061023d60209235611c89565b505034610244578160031936011261024457517f00000000000000000000000000000000000000000000000000000000000000006001600160a01b03168152602090f35b50503461024457806003193601126102445760209061052e6105246115e1565b602435903361189a565b5160018152f35b905082346103e257826003193601126103e2576105506115e1565b918360243592338152600160205281812060018060a01b03861682526020522054908282106105895760208561052e8585038733611a08565b608490602086519162461bcd60e51b8352820152602560248201527f45524332303a2064656372656173656420616c6c6f77616e63652062656c6f77604482015264207a65726f60d81b6064820152fd5b919050346106c557826003193601126106c557805191838154906105fd82611702565b8086529260019280841690811561069a575060011461063e575b61063a8686610628828b038361168d565b51918291602083526020830190611576565b0390f35b815294507f8a35acfbc15ff81a39ae7d344fd709f28e8600b4aa8c65c6b64bfe7fe36bd19b5b8286106106825750505061062882602061063a958201019438610617565b80546020878701810191909152909501948101610664565b905061063a97508693506020925061062894915060ff191682840152151560051b8201019438610617565b8280fd5b505034610244576020366003190112610244576020906106e76115e1565b50516001600160ff1b038152f35b8383346102445760a036600319011261024457823567ffffffffffffffff811681036106c5576107236115f7565b60443594906001600160a01b03908187168703610a725760643593608435928315158403610a6e57865163850dd09160e01b602080830191909152602482018890526001600160a01b039a909a1660448083019190915281529361078860648661168d565b15610a67576001935b81885194168a8501528984526107a684611655565b8751946107b286611671565b8986526002811015610a5457600114948291908615610a4d577f0000000000000000000000000000000000000000000000000000000000000000915b8a51966107fa88611623565b87528c87015289860152166060840152865161081581611671565b88815260808401527f000000000000000000000000000000000000000000000000000000000000000016908651936320487ded60e01b855289858061085d87868b84016122c5565b0381865afa948515610a4357908a949392918a96610a08575b501561099c5761089c94508888518096819582946396f4e9f960e01b84528a84016122c5565b03925af190811561099257908491869161095d575b50945b7f54791b38f3859327992a1ca0590ad3c0f08feba98d1a4f56ab0dca74d203392a878351888152a16108e8600954856125c0565b600955338152600a87526108ff82822054856125c0565b338252600a8852919020819055600160ff1b1361092157506103999033611efb565b825162461bcd60e51b8152908101859052601660248201527514995cd95c9d9948131bddd95c989bdd5b9908121a5d60521b6044820152606490fd5b809250878092503d831161098b575b610976818361168d565b8101031261098757839051876108b1565b8480fd5b503d61096c565b84513d87823e3d90fd5b87516396f4e9f960e01b8152948593849283916109bb918a84016122c5565b03925af19081156109925790849186916109d7575b50946108b4565b809250878092503d8311610a01575b6109f0818361168d565b8101031261098757839051876109d0565b503d6109e6565b8581939495969297503d8311610a3c575b610a23818361168d565b81010312610a3857908993929151948b610876565b8880fd5b503d610a19565b88513d8b823e3d90fd5b8a916107ee565b634e487b7160e01b8a526021875260248afd5b8793610791565b8780fd5b8580fd5b9050346106c557816003193601126106c557602092503590610399610a996115f7565b92610aa381611c89565b809433611cdf565b8284346103e257816003193601126103e2575061023d60209260243590356125c0565b919050346106c557602090600319828136011261098757833567ffffffffffffffff91828211610cf85760a0908236030112610a72576001600160a01b037f000000000000000000000000000000000000000000000000000000000000000081163303610d7157835192610b4184611623565b8287013584526024830135908082168203610a38578685019182526044840135818111610d6d57610b7790893691870101611806565b948681019586526064850135828111610d6557610b99908a3691880101611806565b9460608201958652608481013590838211610d69570136602382011215610d65578981013590838211610d5257885191610bd88b8260051b018461168d565b80835260248b84019160061b83010191368311610d4e579060248e9a999897969594939201905b828210610cfc57505050608082015251918260055551169160065494518881805181010312610cf857880151928184168403610cf8578695817fb1e312a29937cc11967b0e4a346fef1ae132424ebaba9dc6d90249dba053e87c9568010000000000000000600160e01b03908b1b169163ffffffff60e01b1617179081600655885193845289840152871c16868201526080606082015280610ca36080820161173c565b0390a151848151910182305af1610cb86120f7565b5015610cc2578380f35b5162461bcd60e51b815291820152601260248201527113595d1a1bd90818d85b1b0819985a5b195960721b604482015260649150fd5b8680fd5b90919293949596979899508a82360312610d4e578a5190610d1c82611655565b8235908982168203610d4a57828e928e9452828501358382015281520191018d999897969594939291610bff565b8f80fd5b8d80fd5b634e487b7160e01b8c5260418b5260248cfd5b8a80fd5b8b80fd5b8980fd5b83516335fdcccd60e21b81523381880152602490fd5b83915034610244578260031936011261024457803590610da56115f7565b923033036103e257610db98360095461243a565b6009556001600160a01b038416808252600a602052858220548690610ddf90869061243a565b918352600a6020529091208190556001600160ff1b0312610e4b576020847fe9f106e5e2e6e72e6870b6dbc5b46e4d847455eff1d1b1e33a900ab145e37f6a8585610e2a8183611d86565b83519081526001600160a01b03919091166020820152604090a15160018152f35b606490602085519162461bcd60e51b8352820152601660248201527514995cd95c9d9948155c1c195c989bdd5b9908121a5d60521b6044820152fd5b83833461024457602036600319011261024457823567ffffffffffffffff81116106c557610eb89036908501611806565b815192610ec484611655565b601084526f181899199a1a9b1b9c1cb0b131b232b360811b602085015281519060019282841b9560029380880485149015171561100557610f04876116af565b96610f118751988961168d565b808852610f20601f19916116af565b0136602089013782855b610f44575b86516020808252819061063a9082018b611576565b8251811015611000576001600160f81b031980610f6e610f6484876123fa565b5160fc1c856123fa565b51169082881b91838304881484151715610fed57861a610f8e838c6123fa565b53610fa9600f610f9e85886123fa565b5160f81c16856123fa565b5116878201809211610fda5791610fd191610fcb879695948a981a918c6123fa565b536123eb565b90919293610f2a565b634e487b7160e01b865260118b52602486fd5b634e487b7160e01b875260118c52602487fd5b610f2f565b634e487b7160e01b835260118852602483fd5b5050346102445760203660031901126102445760209181906001600160a01b036110406115e1565b16815280845220549051908152f35b9050346106c557816003193601126106c5576020925035906103996110726115f7565b61107b84611c5e565b93849133611cdf565b5050346102445781600319360112610244576020906005549051908152f35b6115b6565b5050346102445781600319360112610244576020906008549051908152f35b50503461024457806003193601126102445761052e6020926111106110ea6115e1565b338352600186528483206001600160a01b03821684528652918490205460243590611877565b9033611a08565b505034610244578160031936011261024457517f00000000000000000000000000000000000000000000000000000000000000006001600160a01b03168152602090f35b505034610244578160031936011261024457805161063a91610628826111808161173c565b038361168d565b83833461024457816003193601126102445760ff7f0000000000000000000000000000000000000000000000000000000000000000169160ff83116111d0576020838351908152f35b634e487b7160e01b815260118452602490fd5b5050346102445760603660031901126102445760209061052e6112046115e1565b61120c6115f7565b6044359161121b833383611b0a565b61189a565b9050346106c557602092836003193601126103e257813567ffffffffffffffff81116102445736602382011215610244576112656024913690838187013591016116cb565b9384511561135c57829583965b86518810156113555761128588886123fa565b5160f81c60308110158061134a575b156112fa57600a918281029281840414901517156112e85760ff90602f19018181116112d657916112ca916112d0931690611877565b976123eb565b96611272565b634e487b7160e01b8752601188528587fd5b634e487b7160e01b8652601187528486fd5b835162461bcd60e51b81528088018490526025818701527f537472696e6720636f6e7461696e73206e6f6e2d6e756d65726963206368617260448201526430b1ba32b960d91b6064820152608490fd5b506039811115611294565b8251908152f35b600f606492878693519362461bcd60e51b85528401528201526e537472696e6720697320656d70747960881b6044820152fd5b5050346102445781600319360112610244576020906002549051908152f35b5050346102445760209061023d6113c43661160d565b90612642565b5050346102445760209061023d6113e03661160d565b9061243a565b8284346103e25760203660031901126103e2575061023d60209235611c33565b50503461024457806003193601126102445760209061052e6114266115e1565b6024359033611a08565b5050346102445781600319360112610244578051908260035461145281611702565b808552916001918083169081156114db575060011461147e575b5050506106288261063a94038361168d565b9450600385527fc2575a0e9e593c00f959f8c92f12db2869c3395a3b0502d05e2516446f71f85b5b8286106114c35750505061062882602061063a958201019461146c565b805460208787018101919091529095019481016114a6565b61063a97508693506020925061062894915060ff191682840152151560051b8201019461146c565b9050346106c55760203660031901126106c557359063ffffffff60e01b82168092036106c557602092506385572ffb60e01b8214918215611548575b50519015158152f35b6301ffc9a760e01b1491503861153f565b50503461024457816003193601126102445760209061023d611ba2565b919082519283825260005b8481106115a2575050826000602080949584010152601f8019910116010190565b602081830181015184830182015201611581565b346115dc5760203660031901126115dc5760206115d4600435611cb4565b604051908152f35b600080fd5b600435906001600160a01b03821682036115dc57565b602435906001600160a01b03821682036115dc57565b60409060031901126115dc576004359060243590565b60a0810190811067ffffffffffffffff82111761163f57604052565b634e487b7160e01b600052604160045260246000fd5b6040810190811067ffffffffffffffff82111761163f57604052565b6020810190811067ffffffffffffffff82111761163f57604052565b90601f8019910116810190811067ffffffffffffffff82111761163f57604052565b67ffffffffffffffff811161163f57601f01601f191660200190565b9291926116d7826116af565b916116e5604051938461168d565b8294818452818301116115dc578281602093846000960137010152565b90600182811c92168015611732575b602083101461171c57565b634e487b7160e01b600052602260045260246000fd5b91607f1691611711565b6007546000929161174c82611702565b808252916001908181169081156117c3575060011461176a57505050565b9192935060076000527fa66cc928b5edb82af9bd49922954155ab7b0942694bea4ce44661d9a8736c688916000925b8484106117ab57505060209250010190565b80546020858501810191909152909301928101611799565b915050602093945060ff929192191683830152151560051b010190565b346115dc5760203660031901126115dc576117f96115e1565b5060206040516000198152f35b9080601f830112156115dc57816020611821933591016116cb565b90565b60609060031901126115dc57600435906001600160a01b039060243582811681036115dc579160443590811681036115dc5790565b346115dc5760203660031901126115dc5760206115d4600435611c5e565b9190820180921161188457565b634e487b7160e01b600052601160045260246000fd5b6001600160a01b039081169182156119b557169182156119645760008281528060205260408120549180831061191057604082827fddf252ad1be2c89b69c2b068fc378daa952ba7f163c4a11628f55a4df523b3ef958760209652828652038282205586815220818154019055604051908152a3565b60405162461bcd60e51b815260206004820152602660248201527f45524332303a207472616e7366657220616d6f756e7420657863656564732062604482015265616c616e636560d01b6064820152608490fd5b60405162461bcd60e51b815260206004820152602360248201527f45524332303a207472616e7366657220746f20746865207a65726f206164647260448201526265737360e81b6064820152608490fd5b60405162461bcd60e51b815260206004820152602560248201527f45524332303a207472616e736665722066726f6d20746865207a65726f206164604482015264647265737360d81b6064820152608490fd5b6001600160a01b03908116918215611ab95716918215611a695760207f8c5be1e5ebec7d5bd14f71427d1e84f3dd0314c0f7b2291e5b200ac8c7c3b925918360005260018252604060002085600052825280604060002055604051908152a3565b60405162461bcd60e51b815260206004820152602260248201527f45524332303a20617070726f766520746f20746865207a65726f206164647265604482015261737360f01b6064820152608490fd5b60405162461bcd60e51b8152602060048201526024808201527f45524332303a20617070726f76652066726f6d20746865207a65726f206164646044820152637265737360e01b6064820152608490fd5b9060018060a01b0380831660005260016020526040600020908216600052602052604060002054926000198403611b42575b50505050565b808410611b5d57611b54930391611a08565b38808080611b3c565b60405162461bcd60e51b815260206004820152601d60248201527f45524332303a20696e73756666696369656e7420616c6c6f77616e63650000006044820152606490fd5b6040516370a0823160e01b81523060048201526020816024817f00000000000000000000000000000000000000000000000000000000000000006001600160a01b03165afa908115611c2757600091611bf9575090565b906020823d8211611c1f575b81611c126020938361168d565b810103126103e257505190565b3d9150611c05565b6040513d6000823e3d90fd5b6002546001810180911161188457611c49611ba2565b906001820180921161188457611821926121c4565b6002546001810180911161188457611c74611ba2565b90600182018092116118845761182192612204565b611c91611ba2565b6001810180911161188457600254906001820180921161188457611821926121c4565b611cbc611ba2565b600181018091116118845760025490600182018092116118845761182192612204565b604080516323b872dd60e01b60208201526001600160a01b03928316602482018190523060448301526064808301879052825294957fdcbc1c05240f31ff3ad067ef1ee35ce4997762752e3a095284754544f4c709d79492939291611d6d90611d4781611623565b7f0000000000000000000000000000000000000000000000000000000000000000612002565b611d778183611d86565b835196875260208701521693a3565b6001600160a01b0316908115611de4577fddf252ad1be2c89b69c2b068fc378daa952ba7f163c4a11628f55a4df523b3ef602082611dc8600094600254611877565b60025584845283825260408420818154019055604051908152a3565b60405162461bcd60e51b815260206004820152601f60248201527f45524332303a206d696e7420746f20746865207a65726f2061646472657373006044820152606490fd5b6001600160a01b038084169581831694909392611e52918591828a8903611eea575b5050611efb565b6040519163a9059cbb60e01b6020840152169384602483015280604483015260448252608082019282841067ffffffffffffffff85111761163f57611edd6040937ffbde797d201c681b91056529119e0b02407c7bb96a4a2c75c01fc9667232c8db9585527f0000000000000000000000000000000000000000000000000000000000000000612002565b82519182526020820152a4565b611ef49183611b0a565b3882611e4b565b6001600160a01b03168015611fb357600091818352826020526040832054818110611f6357817fddf252ad1be2c89b69c2b068fc378daa952ba7f163c4a11628f55a4df523b3ef926020928587528684520360408620558060025403600255604051908152a3565b60405162461bcd60e51b815260206004820152602260248201527f45524332303a206275726e20616d6f756e7420657863656564732062616c616e604482015261636560f01b6064820152608490fd5b60405162461bcd60e51b815260206004820152602160248201527f45524332303a206275726e2066726f6d20746865207a65726f206164647265736044820152607360f81b6064820152608490fd5b60018060a01b03169061206160405161201a81611655565b6020938482527f5361666545524332303a206c6f772d6c6576656c2063616c6c206661696c6564858301526000808587829751910182855af161205b6120f7565b91612127565b8051918215918483156120d3575b50505090501561207c5750565b6084906040519062461bcd60e51b82526004820152602a60248201527f5361666545524332303a204552433230206f7065726174696f6e20646964206e6044820152691bdd081cdd58d8d9595960b21b6064820152fd5b919381809450010312610244578201519081151582036103e257508038808461206f565b3d15612122573d90612108826116af565b91612116604051938461168d565b82523d6000602084013e565b606090565b91929015612189575081511561213b575090565b3b156121445790565b60405162461bcd60e51b815260206004820152601d60248201527f416464726573733a2063616c6c20746f206e6f6e2d636f6e74726163740000006044820152606490fd5b82519091501561219c5750805190602001fd5b60405162461bcd60e51b8152602060048201529081906121c0906024830190611576565b0390fd5b91906121d1828285612204565b9282156121ee57096121e05790565b600181018091116118845790565b634e487b7160e01b600052601260045260246000fd5b9160001982840992828102928380861095039480860395146122b7578483111561227a578291096001821901821680920460028082600302188083028203028083028203028083028203028083028203028083028203028092029003029360018380600003040190848311900302920304170290565b60405162461bcd60e51b81526020600482015260156024820152744d6174683a206d756c446976206f766572666c6f7760581b6044820152606490fd5b5050809250156121ee570490565b9067ffffffffffffffff90939293168152604060209181838201526122f5855160a08484015260e0830190611576565b916123118487015193603f199485858303016060860152611576565b8187015194848483030160808501528080875193848152019601926000905b83821061236657505050505060c06080611821959660018060a01b0360608201511660a085015201519282850301910152611576565b845180516001600160a01b03168952830151888401529687019693820193600190910190612330565b60018060a01b0316600052600a6020526118216040600020546000602052604060002054906126ce565b60018060a01b0316600052600a6020526118216123e66040600020546000602052604060002054906126ce565b611cb4565b60001981146118845760010190565b90815181101561240b570160200190565b634e487b7160e01b600052603260045260246000fd5b8181039291600013801582851316918412161761188457565b6001600160ff1b038083116125445760009182811290811592836000146124eb578181039080821284169082138516176124d757851361249e5784905b019384129081151691161761248a575090565b634e487b7160e01b81526011600452602490fd5b60405162461bcd60e51b81526020600482015260116024820152704164646974696f6e206f766572666c6f7760781b6044820152606490fd5b634e487b7160e01b85526011600452602485fd5b50600160ff1b81810390811283166124d757851261250a578490612477565b60405162461bcd60e51b81526020600482015260126024820152714164646974696f6e20756e646572666c6f7760701b6044820152606490fd5b60405162461bcd60e51b8152602060048201526013602482015272436f6e76657273696f6e206f766572666c6f7760681b6044820152606490fd5b1561258657565b60405162461bcd60e51b8152602060048201526012602482015271155b99195c999b1bddc81bd8d8dd5c9c995960721b6044820152606490fd5b6001600160ff1b0381116125ec57816125e7816125e08461182196612421565b131561257f565b612421565b60405162461bcd60e51b815260206004820152601a60248201527f56616c756520746f6f206c6172676520666f7220696e743235360000000000006044820152606490fd5b600160ff1b81146118845760000390565b6000811215612674578061266361265b61266893612631565b84101561257f565b612631565b81039081116118845790565b6001600160ff1b038181039081116118845782116126955761182191611877565b60405162461bcd60e51b815260206004820152601160248201527013dd995c999b1bddc81bd8d8dd5c9c9959607a1b6044820152606490fd5b908082126126df5761182191612421565b60405162461bcd60e51b815260206004820152602d60248201527f5375627472616374696f6e20776f756c6420726573756c7420696e2061206e6560448201526c33b0ba34bb3290373ab6b132b960991b6064820152608490fdfea2646970667358221220eb4d1cc523de658c26bc5aaa448a66f73e5ba82a39fb6022f7e852b032df00bf64736f6c63430008130033",
    "linkReferences": {}
  },
  "methodIdentifiers": {
    "addUint256ToInt256(int256,uint256)": "0d6c7667",
    "allowance(address,address)": "dd62ed3e",
    "approve(address,uint256)": "095ea7b3",
    "asset()": "38d52e0f",
    "balanceOf(address)": "70a08231",
    "bytesToHexString(bytes)": "7d520c22",
    "ccipReceive((bytes32,uint64,bytes,bytes,(address,uint256)[]))": "85572ffb",
    "convertToAssets(uint256)": "07a2d13a",
    "convertToShares(uint256)": "c6e6f592",
    "decimals()": "313ce567",
    "decreaseAllowance(address,uint256)": "a457c2d7",
    "deposit(uint256,address)": "6e553f65",
    "getRouter()": "b0f479a1",
    "increaseAllowance(address,uint256)": "39509351",
    "latestArgs()": "447a7776",
    "latestMessage()": "34a07798",
    "latestMessageId()": "661d1300",
    "latestSender()": "e1214815",
    "latestSourceChainSelector()": "dab6695e",
    "maxDeposit(address)": "402d267d",
    "maxMint(address)": "c63d75b6",
    "maxRedeem(address)": "d905777e",
    "maxReserve(address)": "9519a1e0",
    "maxWithdraw(address)": "ce96cb77",
    "minReserve(address)": "d3a4e21d",
    "mint(uint256,address)": "94bf804d",
    "mintReserve(uint256,address)": "850dd091",
    "name()": "06fdde03",
    "previewDeposit(uint256)": "ef8b30f7",
    "previewMint(uint256)": "b3d7f6b9",
    "previewRedeem(uint256)": "4cdad506",
    "previewWithdraw(uint256)": "0a28a477",
    "redeem(uint256,address,address)": "ba087652",
    "reserveBalanceOf(address)": "b5e2bb10",
    "safeAddIntToUint(int256,uint256)": "121f8289",
    "stringToUint(string)": "1bd95155",
    "subtract(uint256,int256)": "897571b8",
    "subtractUintFromInt(int256,uint256)": "efd88c27",
    "supportsInterface(bytes4)": "01ffc9a7",
    "symbol()": "95d89b41",
    "totalAssets()": "01e1d114",
    "totalSupply()": "18160ddd",
    "transfer(address,uint256)": "a9059cbb",
    "transferCrossChain(uint64,address,address,uint256,bool)": "94f8822d",
    "transferFrom(address,address,uint256)": "23b872dd",
    "withdraw(uint256,address,address)": "b460af94"
  },
  "id": 67
}