{
  "abi": [
    {
      "inputs": [
        {
          "internalType": "contract IController",
          "name": "_controller",
          "type": "address"
        }
      ],
      "stateMutability": "nonpayable",
      "type": "constructor"
    },
    {
      "anonymous": false,
      "inputs": [
        {
          "indexed": true,
          "internalType": "address",
          "name": "_module",
          "type": "address"
        },
        {
          "indexed": true,
          "internalType": "address",
          "name": "_adapter",
          "type": "address"
        },
        {
          "indexed": false,
          "internalType": "string",
          "name": "_integrationName",
          "type": "string"
        }
      ],
      "name": "IntegrationAdded",
      "type": "event"
    },
    {
      "anonymous": false,
      "inputs": [
        {
          "indexed": true,
          "internalType": "address",
          "name": "_module",
          "type": "address"
        },
        {
          "indexed": false,
          "internalType": "address",
          "name": "_newAdapter",
          "type": "address"
        },
        {
          "indexed": false,
          "internalType": "string",
          "name": "_integrationName",
          "type": "string"
        }
      ],
      "name": "IntegrationEdited",
      "type": "event"
    },
    {
      "anonymous": false,
      "inputs": [
        {
          "indexed": true,
          "internalType": "address",
          "name": "_module",
          "type": "address"
        },
        {
          "indexed": true,
          "internalType": "address",
          "name": "_adapter",
          "type": "address"
        },
        {
          "indexed": false,
          "internalType": "string",
          "name": "_integrationName",
          "type": "string"
        }
      ],
      "name": "IntegrationRemoved",
      "type": "event"
    },
    {
      "anonymous": false,
      "inputs": [
        {
          "indexed": true,
          "internalType": "address",
          "name": "previousOwner",
          "type": "address"
        },
        {
          "indexed": true,
          "internalType": "address",
          "name": "newOwner",
          "type": "address"
        }
      ],
      "name": "OwnershipTransferred",
      "type": "event"
    },
    {
      "inputs": [
        {
          "internalType": "address",
          "name": "_module",
          "type": "address"
        },
        {
          "internalType": "string",
          "name": "_name",
          "type": "string"
        },
        {
          "internalType": "address",
          "name": "_adapter",
          "type": "address"
        }
      ],
      "name": "addIntegration",
      "outputs": [],
      "stateMutability": "nonpayable",
      "type": "function"
    },
    {
      "inputs": [
        {
          "internalType": "address[]",
          "name": "_modules",
          "type": "address[]"
        },
        {
          "internalType": "string[]",
          "name": "_names",
          "type": "string[]"
        },
        {
          "internalType": "address[]",
          "name": "_adapters",
          "type": "address[]"
        }
      ],
      "name": "batchAddIntegration",
      "outputs": [],
      "stateMutability": "nonpayable",
      "type": "function"
    },
    {
      "inputs": [
        {
          "internalType": "address[]",
          "name": "_modules",
          "type": "address[]"
        },
        {
          "internalType": "string[]",
          "name": "_names",
          "type": "string[]"
        },
        {
          "internalType": "address[]",
          "name": "_adapters",
          "type": "address[]"
        }
      ],
      "name": "batchEditIntegration",
      "outputs": [],
      "stateMutability": "nonpayable",
      "type": "function"
    },
    {
      "inputs": [],
      "name": "controller",
      "outputs": [
        {
          "internalType": "contract IController",
          "name": "",
          "type": "address"
        }
      ],
      "stateMutability": "view",
      "type": "function"
    },
    {
      "inputs": [
        {
          "internalType": "address",
          "name": "_module",
          "type": "address"
        },
        {
          "internalType": "string",
          "name": "_name",
          "type": "string"
        },
        {
          "internalType": "address",
          "name": "_adapter",
          "type": "address"
        }
      ],
      "name": "editIntegration",
      "outputs": [],
      "stateMutability": "nonpayable",
      "type": "function"
    },
    {
      "inputs": [
        {
          "internalType": "address",
          "name": "_module",
          "type": "address"
        },
        {
          "internalType": "string",
          "name": "_name",
          "type": "string"
        }
      ],
      "name": "getIntegrationAdapter",
      "outputs": [
        {
          "internalType": "address",
          "name": "",
          "type": "address"
        }
      ],
      "stateMutability": "view",
      "type": "function"
    },
    {
      "inputs": [
        {
          "internalType": "address",
          "name": "_module",
          "type": "address"
        },
        {
          "internalType": "bytes32",
          "name": "_nameHash",
          "type": "bytes32"
        }
      ],
      "name": "getIntegrationAdapterWithHash",
      "outputs": [
        {
          "internalType": "address",
          "name": "",
          "type": "address"
        }
      ],
      "stateMutability": "view",
      "type": "function"
    },
    {
      "inputs": [
        {
          "internalType": "address",
          "name": "_module",
          "type": "address"
        },
        {
          "internalType": "string",
          "name": "_name",
          "type": "string"
        }
      ],
      "name": "isValidIntegration",
      "outputs": [
        {
          "internalType": "bool",
          "name": "",
          "type": "bool"
        }
      ],
      "stateMutability": "view",
      "type": "function"
    },
    {
      "inputs": [],
      "name": "owner",
      "outputs": [
        {
          "internalType": "address",
          "name": "",
          "type": "address"
        }
      ],
      "stateMutability": "view",
      "type": "function"
    },
    {
      "inputs": [
        {
          "internalType": "address",
          "name": "_module",
          "type": "address"
        },
        {
          "internalType": "string",
          "name": "_name",
          "type": "string"
        }
      ],
      "name": "removeIntegration",
      "outputs": [],
      "stateMutability": "nonpayable",
      "type": "function"
    },
    {
      "inputs": [],
      "name": "renounceOwnership",
      "outputs": [],
      "stateMutability": "nonpayable",
      "type": "function"
    },
    {
      "inputs": [
        {
          "internalType": "address",
          "name": "newOwner",
          "type": "address"
        }
      ],
      "name": "transferOwnership",
      "outputs": [],
      "stateMutability": "nonpayable",
      "type": "function"
    }
  ],
  "bytecode": {
    "object": "0x6080346100a757601f610fa438819003918201601f19168301916001600160401b038311848410176100ac578084926020946040528339810103126100a757516001600160a01b0390818116908190036100a75760005460018060a01b0319903382821617600055604051933391167f8be0079c531659141344cd1fd0a4f28419497f9722a3daafe3b4186f6b6457e0600080a36001541617600155610ee190816100c38239f35b600080fd5b634e487b7160e01b600052604160045260246000fdfe6040608081526004908136101561001557600080fd5b600091823560e01c908163639a397814610912578163715018a6146108b55781637a3d5b2a1461070b5781638da5cb5b146106e3578163a19ba6dc146106a3578163a30945cb14610554578163ad1f23161461043a578163bdf590751461029c578163d9be0e12146101dd578163e6d642c514610199578163f2fde38b146100d2575063f77c4791146100a757600080fd5b346100ce57816003193601126100ce5760015490516001600160a01b039091168152602090f35b5080fd5b905034610195576020366003190112610195576100ed610954565b906100f6610be1565b6001600160a01b0391821692831561014357505082546001600160a01b0319811683178455167f8be0079c531659141344cd1fd0a4f28419497f9722a3daafe3b4186f6b6457e08380a380f35b906020608492519162461bcd60e51b8352820152602660248201527f4f776e61626c653a206e6577206f776e657220697320746865207a65726f206160448201526564647265737360d01b6064820152fd5b8280fd5b5050346100ce57806003193601126100ce576020916001600160a01b03908290826101c2610954565b16815260028552818120602435825285522054169051908152f35b5050346100ce577f824b40f41a4e550651acdd3e4f51be3b80092c952b2ae347cab6930b5a6f50fc61020e366109fe565b610219929192610be1565b8051610296602091828401209560018060a01b038096169586895260028452818920888a52845261025081838b2054161515610e5f565b86895260028452818920888a5284528189205416968689526002845281892090895283528088206001600160601b0360a01b815416905551928284938452830190610ce1565b0390a380f35b905034610195576102ac36610ac7565b6102b7939193610be1565b8251946102c5861515610d21565b6102d185518714610d6d565b6102dd82518714610db8565b865b8681106102ea578780f35b6001600160a01b03806102fd8388610e35565b51169061030a8389610e35565b51816103168588610e35565b511690610321610be1565b8b81519360209485840120908a868860248460015416938d5194859384926342f6e38960e01b84528301525afa90811561043057936103f6936103fe9a999896936103978d947fa2dbad778187774fb7e1aa28aa65a07b1f6fc3f3ad3eea64f843dacae9ed0e009a988591610403575b50610c51565b8983526103b7600291828a528585208486528a5285852054161515610e5f565b6103c2871515610c95565b8983528752828220908252865220836001600160601b0360a01b825416179055888051948594855284015288830190610ce1565b0390a2610e10565b6102df565b61042391508a3d8c11610429575b61041b818361096f565b810190610c39565b38610391565b503d610411565b8a513d86823e3d90fd5b9050346101955761044a36610b8f565b90610453610be1565b805192602093848301209260018060a01b0391858360248160015416938b5194859384926342f6e38960e01b845216809c8301525afa90811561054a57916104ca61052d9594927fa2dbad778187774fb7e1aa28aa65a07b1f6fc3f3ad3eea64f843dacae9ed0e00999a948c916105335750610c51565b888a5260028752828a20868b5287526104e982848c2054161515610e5f565b16936104f6851515610c95565b878952600286528189209089528552808820846001600160601b0360a01b8254161790558080519586958652850152830190610ce1565b0390a280f35b6104239150893d8b116104295761041b818361096f565b88513d8b823e3d90fd5b919050346101955761056536610b8f565b93909192610571610be1565b825191602092838501209560018060a01b0391828581600154169860248751809481936342f6e38960e01b8352169b8c878301525afa90811561069957906105bf918b916106825750610c51565b86895260028552838920888a52855282848a20541661063f575016947f43640b154e7a2d5d196915068b6d815bb713d3263abf2a154581f32dab54890d9392916102969161060e881515610c95565b86895260028452818920908952835280882080546001600160a01b0319168817905551828152928392830190610ce1565b835162461bcd60e51b8152908101859052601b60248201527f496e746567726174696f6e2065786973747320616c72656164792e00000000006044820152606490fd5b6104239150873d89116104295761041b818361096f565b85513d8c823e3d90fd5b5050346100ce57602091816106b7366109fe565b6001600160a01b0391821684526002865282842081519187019190912084528552912054915191168152f35b5050346100ce57816003193601126100ce57905490516001600160a01b039091168152602090f35b919050346101955761071c36610ac7565b939192610727610be1565b835193610735851515610d21565b61074183518614610d6d565b61074d86518614610db8565b865b85811061075a578780f35b6001600160a01b038061076d8385610e35565b51166107798387610e35565b5182610785858c610e35565b511692610790610be1565b8151908c8a602093848601209286858260015416938d5194859384926342f6e38960e01b845283015260249586915afa9081156108ab57906107d89185916106825750610c51565b8683528a600293848752818120868252875220541661086a575091888e879695937f43640b154e7a2d5d196915068b6d815bb713d3263abf2a154581f32dab54890d9561082a6108659b9a1515610c95565b8783528452828220908252835220856001600160601b0360a01b82541617905561085d8951928284938452830190610ce1565b0390a3610e10565b61074f565b8b601b606492868d519362461bcd60e51b85528401528201527f496e746567726174696f6e2065786973747320616c72656164792e00000000006044820152fd5b8c513d86823e3d90fd5b833461090f578060031936011261090f576108ce610be1565b80546001600160a01b03198116825581906001600160a01b03167f8be0079c531659141344cd1fd0a4f28419497f9722a3daafe3b4186f6b6457e08280a380f35b80fd5b5050346100ce5760209181610926366109fe565b6001600160a01b03918216845260028652828420815191870191909120845285529120549151911615158152f35b600435906001600160a01b038216820361096a57565b600080fd5b90601f8019910116810190811067ffffffffffffffff82111761099157604052565b634e487b7160e01b600052604160045260246000fd5b81601f8201121561096a5780359067ffffffffffffffff821161099157604051926109dc601f8401601f19166020018561096f565b8284526020838301011161096a57816000926020809301838601378301015290565b90604060031983011261096a576004356001600160a01b038116810361096a57916024359067ffffffffffffffff821161096a57610a3e916004016109a7565b90565b67ffffffffffffffff81116109915760051b60200190565b81601f8201121561096a57803591610a7083610a41565b92610a7e604051948561096f565b808452602092838086019260051b82010192831161096a578301905b828210610aa8575050505090565b81356001600160a01b038116810361096a578152908301908301610a9a565b606060031982011261096a5767ffffffffffffffff9160043583811161096a5782610af491600401610a59565b926024803582811161096a578460238201121561096a57806004013591610b1a83610a41565b92610b28604051948561096f565b808452602092828486019260051b8201019288841161096a57808201925b848410610b6a575050505050509260443591821161096a57610a3e91600401610a59565b833588811161096a578691610b848c8585948801016109a7565b815201930192610b46565b90606060031983011261096a576001600160a01b0390600435828116810361096a57926024359067ffffffffffffffff821161096a57610bd1916004016109a7565b91604435908116810361096a5790565b6000546001600160a01b03163303610bf557565b606460405162461bcd60e51b815260206004820152602060248201527f4f776e61626c653a2063616c6c6572206973206e6f7420746865206f776e65726044820152fd5b9081602091031261096a5751801515810361096a5790565b15610c5857565b60405162461bcd60e51b815260206004820152601560248201527426bab9ba103132903b30b634b21036b7b23ab6329760591b6044820152606490fd5b15610c9c57565b60405162461bcd60e51b815260206004820152601b60248201527f416461707465722061646472657373206d7573742065786973742e00000000006044820152606490fd5b919082519283825260005b848110610d0d575050826000602080949584010152601f8019910116010190565b602081830181015184830182015201610cec565b15610d2857565b60405162461bcd60e51b815260206004820152601960248201527f4d6f64756c6573206d757374206e6f7420626520656d707479000000000000006044820152606490fd5b15610d7457565b606460405162461bcd60e51b815260206004820152602060248201527f4d6f64756c6520616e64206e616d65206c656e67746873206d69736d617463686044820152fd5b15610dbf57565b60405162461bcd60e51b815260206004820152602360248201527f4d6f64756c6520616e642061646170746572206c656e67746873206d69736d616044820152620e8c6d60eb1b6064820152608490fd5b6000198114610e1f5760010190565b634e487b7160e01b600052601160045260246000fd5b8051821015610e495760209160051b010190565b634e487b7160e01b600052603260045260246000fd5b15610e6657565b60405162461bcd60e51b815260206004820152601b60248201527f496e746567726174696f6e20646f6573206e6f742065786973742e00000000006044820152606490fdfea2646970667358221220d4d91877e017a94da983745f841ceb595bb1461ca54e48aee42dd33330a64a1364736f6c63430008130033",
    "linkReferences": {}
  },
  "methodIdentifiers": {
    "addIntegration(address,string,address)": "a30945cb",
    "batchAddIntegration(address[],string[],address[])": "7a3d5b2a",
    "batchEditIntegration(address[],string[],address[])": "bdf59075",
    "controller()": "f77c4791",
    "editIntegration(address,string,address)": "ad1f2316",
    "getIntegrationAdapter(address,string)": "a19ba6dc",
    "getIntegrationAdapterWithHash(address,bytes32)": "e6d642c5",
    "isValidIntegration(address,string)": "639a3978",
    "owner()": "8da5cb5b",
    "removeIntegration(address,string)": "d9be0e12",
    "renounceOwnership()": "715018a6",
    "transferOwnership(address)": "f2fde38b"
  },
  "id": 69
}