{
  "abi": [
    {
      "inputs": [],
      "stateMutability": "nonpayable",
      "type": "constructor"
    },
    {
      "inputs": [
        {
          "internalType": "enum Helper.SupportedNetworks",
          "name": "enumValue",
          "type": "uint8"
        }
      ],
      "name": "networks",
      "outputs": [
        {
          "internalType": "string",
          "name": "humanReadableName",
          "type": "string"
        }
      ],
      "stateMutability": "view",
      "type": "function"
    }
  ],
  "bytecode": {
    "object": "0x604060808152346101135780600080805280602081815283822061002c6100268254610118565b82610152565b816f457468657265756d205365706f6c696160801b0190556001825281815283822061005b6100268254610118565b601e6e4f7074696d69736d20476f65726c6960881b0190556002825281815283822061008a6100268254610118565b601c6d4176616c616e6368652046756a6960901b019055600382528181528382206100b86100268254610118565b601e6e417262697472756d20476f65726c6960881b0190556004825252206100e36100268254610118565b7f506f6c79676f6e204d756d62616900000000000000000000000000000000001c9055516101c4908161018a8239f35b600080fd5b90600182811c92168015610148575b602083101461013257565b634e487b7160e01b600052602260045260246000fd5b91607f1691610127565b601f821161015e575050565b6000908152601f60208220920160051c8201915b82811061017e57505050565b81815560010161017256fe6080600436101561000f57600080fd5b6000803560e01c638a21e6391461002557600080fd5b3461018b5760209182600319360112610187576004356005811015610183578252818352604090818320928084549460019086821c968281168015610179575b898910811461016557888752899392918115610141575060011461010a575b50505082939450601f801994859203011682019482861067ffffffffffffffff8711176100f65785929391838652818452845191828186015281955b8387106100de5750508394508582601f949501015201168101030190f35b868101820151898801890152958101958895506100c0565b634e487b7160e01b82526041600452602482fd5b845281842091925083915b87831061012e5750949550859450830101853880610084565b8054868401850152918301918101610115565b60ff191684880152509596879650151560051b850190910191508690503880610084565b634e487b7160e01b86526022600452602486fd5b97607f1697610065565b8280fd5b5080fd5b80fdfea26469706673582212209bf152f694a39617b2318f6d7261204f95c0d855f1c0643fdc0400e77b3c665e64736f6c63430008130033",
    "linkReferences": {}
  },
  "methodIdentifiers": {
    "networks(uint8)": "8a21e639"
  },
  "id": 60
}