{
  "abi": [
    {
      "inputs": [
        {
          "internalType": "address",
          "name": "_tradeModule",
          "type": "address"
        },
        {
          "internalType": "address",
          "name": "_lockReleaseModule",
          "type": "address"
        },
        {
          "internalType": "address",
          "name": "_controller",
          "type": "address"
        },
        {
          "internalType": "address",
          "name": "_creator",
          "type": "address"
        },
        {
          "internalType": "address",
          "name": "_issuanceModule",
          "type": "address"
        },
        {
          "internalType": "address",
          "name": "_ccipRouter",
          "type": "address"
        },
        {
          "internalType": "address",
          "name": "_linkToken",
          "type": "address"
        }
      ],
      "stateMutability": "nonpayable",
      "type": "constructor"
    },
    {
      "inputs": [
        {
          "internalType": "address",
          "name": "router",
          "type": "address"
        }
      ],
      "name": "InvalidRouter",
      "type": "error"
    },
    {
      "anonymous": false,
      "inputs": [
        {
          "indexed": false,
          "internalType": "bytes32",
          "name": "messageId",
          "type": "bytes32"
        }
      ],
      "name": "MessageSent",
      "type": "event"
    },
    {
      "anonymous": false,
      "inputs": [
        {
          "indexed": true,
          "internalType": "address",
          "name": "previousOwner",
          "type": "address"
        },
        {
          "indexed": true,
          "internalType": "address",
          "name": "newOwner",
          "type": "address"
        }
      ],
      "name": "OwnershipTransferred",
      "type": "event"
    },
    {
      "inputs": [
        {
          "internalType": "address",
          "name": "_address",
          "type": "address"
        }
      ],
      "name": "addToWhitelist",
      "outputs": [],
      "stateMutability": "nonpayable",
      "type": "function"
    },
    {
      "inputs": [
        {
          "components": [
            {
              "internalType": "bytes32",
              "name": "messageId",
              "type": "bytes32"
            },
            {
              "internalType": "uint64",
              "name": "sourceChainSelector",
              "type": "uint64"
            },
            {
              "internalType": "bytes",
              "name": "sender",
              "type": "bytes"
            },
            {
              "internalType": "bytes",
              "name": "data",
              "type": "bytes"
            },
            {
              "components": [
                {
                  "internalType": "address",
                  "name": "token",
                  "type": "address"
                },
                {
                  "internalType": "uint256",
                  "name": "amount",
                  "type": "uint256"
                }
              ],
              "internalType": "struct Client.EVMTokenAmount[]",
              "name": "destTokenAmounts",
              "type": "tuple[]"
            }
          ],
          "internalType": "struct Client.Any2EVMMessage",
          "name": "message",
          "type": "tuple"
        }
      ],
      "name": "ccipReceive",
      "outputs": [],
      "stateMutability": "nonpayable",
      "type": "function"
    },
    {
      "inputs": [
        {
          "internalType": "address",
          "name": "setToken",
          "type": "address"
        },
        {
          "internalType": "address",
          "name": "_address",
          "type": "address"
        }
      ],
      "name": "changeManager",
      "outputs": [],
      "stateMutability": "nonpayable",
      "type": "function"
    },
    {
      "inputs": [
        {
          "internalType": "address[]",
          "name": "_components",
          "type": "address[]"
        },
        {
          "internalType": "int256[]",
          "name": "_units",
          "type": "int256[]"
        },
        {
          "internalType": "string",
          "name": "_name",
          "type": "string"
        },
        {
          "internalType": "string",
          "name": "_symbol",
          "type": "string"
        }
      ],
      "name": "createSetToken",
      "outputs": [
        {
          "internalType": "address",
          "name": "",
          "type": "address"
        }
      ],
      "stateMutability": "nonpayable",
      "type": "function"
    },
    {
      "inputs": [
        {
          "internalType": "address",
          "name": "_setToken",
          "type": "address"
        },
        {
          "internalType": "string",
          "name": "_exchangeName",
          "type": "string"
        },
        {
          "internalType": "address",
          "name": "_sendToken",
          "type": "address"
        },
        {
          "internalType": "uint256",
          "name": "_sendQuantity",
          "type": "uint256"
        },
        {
          "internalType": "address",
          "name": "_receiveToken",
          "type": "address"
        },
        {
          "internalType": "uint256",
          "name": "_minReceiveQuantity",
          "type": "uint256"
        },
        {
          "internalType": "uint8",
          "name": "_integrationRegistryID",
          "type": "uint8"
        },
        {
          "internalType": "uint24",
          "name": "_poolFee",
          "type": "uint24"
        },
        {
          "internalType": "address",
          "name": "_destToken",
          "type": "address"
        },
        {
          "internalType": "uint256",
          "name": "_destQuantity",
          "type": "uint256"
        },
        {
          "internalType": "uint8",
          "name": "destActionType",
          "type": "uint8"
        }
      ],
      "name": "encodeCCIPInfo",
      "outputs": [
        {
          "internalType": "bytes",
          "name": "",
          "type": "bytes"
        }
      ],
      "stateMutability": "pure",
      "type": "function"
    },
    {
      "inputs": [],
      "name": "getLatestMessageDetails",
      "outputs": [
        {
          "internalType": "bytes32",
          "name": "",
          "type": "bytes32"
        },
        {
          "internalType": "uint64",
          "name": "",
          "type": "uint64"
        },
        {
          "internalType": "address",
          "name": "",
          "type": "address"
        },
        {
          "internalType": "string",
          "name": "",
          "type": "string"
        }
      ],
      "stateMutability": "view",
      "type": "function"
    },
    {
      "inputs": [],
      "name": "getRouter",
      "outputs": [
        {
          "internalType": "address",
          "name": "",
          "type": "address"
        }
      ],
      "stateMutability": "view",
      "type": "function"
    },
    {
      "inputs": [
        {
          "internalType": "address",
          "name": "_address",
          "type": "address"
        }
      ],
      "name": "isWhitelisted",
      "outputs": [
        {
          "internalType": "bool",
          "name": "",
          "type": "bool"
        }
      ],
      "stateMutability": "view",
      "type": "function"
    },
    {
      "inputs": [
        {
          "internalType": "address",
          "name": "_setToken",
          "type": "address"
        },
        {
          "internalType": "address",
          "name": "_lockToken",
          "type": "address"
        },
        {
          "internalType": "uint256",
          "name": "_lockQuantity",
          "type": "uint256"
        },
        {
          "internalType": "uint64",
          "name": "destinationChainSelector",
          "type": "uint64"
        },
        {
          "internalType": "address",
          "name": "receiver",
          "type": "address"
        },
        {
          "internalType": "bytes",
          "name": "dataToCallReceiver",
          "type": "bytes"
        },
        {
          "internalType": "bool",
          "name": "useLink",
          "type": "bool"
        }
      ],
      "name": "lockAndSend",
      "outputs": [],
      "stateMutability": "nonpayable",
      "type": "function"
    },
    {
      "inputs": [],
      "name": "owner",
      "outputs": [
        {
          "internalType": "address",
          "name": "",
          "type": "address"
        }
      ],
      "stateMutability": "view",
      "type": "function"
    },
    {
      "inputs": [
        {
          "internalType": "address",
          "name": "_token1",
          "type": "address"
        },
        {
          "internalType": "address",
          "name": "_token2",
          "type": "address"
        }
      ],
      "name": "regsiterTokenPair",
      "outputs": [],
      "stateMutability": "nonpayable",
      "type": "function"
    },
    {
      "inputs": [
        {
          "internalType": "address",
          "name": "_address",
          "type": "address"
        }
      ],
      "name": "removeFromWhitelist",
      "outputs": [],
      "stateMutability": "nonpayable",
      "type": "function"
    },
    {
      "inputs": [],
      "name": "renounceOwnership",
      "outputs": [],
      "stateMutability": "nonpayable",
      "type": "function"
    },
    {
      "inputs": [
        {
          "internalType": "bytes4",
          "name": "interfaceId",
          "type": "bytes4"
        }
      ],
      "name": "supportsInterface",
      "outputs": [
        {
          "internalType": "bool",
          "name": "",
          "type": "bool"
        }
      ],
      "stateMutability": "pure",
      "type": "function"
    },
    {
      "inputs": [
        {
          "internalType": "address",
          "name": "_setToken",
          "type": "address"
        },
        {
          "internalType": "string",
          "name": "_exchangeName",
          "type": "string"
        },
        {
          "internalType": "address",
          "name": "_sendToken",
          "type": "address"
        },
        {
          "internalType": "uint256",
          "name": "_sendQuantity",
          "type": "uint256"
        },
        {
          "internalType": "address",
          "name": "_receiveToken",
          "type": "address"
        },
        {
          "internalType": "uint256",
          "name": "_minReceiveQuantity",
          "type": "uint256"
        },
        {
          "internalType": "uint8",
          "name": "integrationRegistryID",
          "type": "uint8"
        },
        {
          "internalType": "uint24",
          "name": "poolFee",
          "type": "uint24"
        }
      ],
      "name": "swap",
      "outputs": [],
      "stateMutability": "nonpayable",
      "type": "function"
    },
    {
      "inputs": [
        {
          "internalType": "bytes",
          "name": "",
          "type": "bytes"
        }
      ],
      "name": "tokenPairExistence",
      "outputs": [
        {
          "internalType": "bool",
          "name": "",
          "type": "bool"
        }
      ],
      "stateMutability": "view",
      "type": "function"
    },
    {
      "inputs": [
        {
          "internalType": "address",
          "name": "newOwner",
          "type": "address"
        }
      ],
      "name": "transferOwnership",
      "outputs": [],
      "stateMutability": "nonpayable",
      "type": "function"
    },
    {
      "stateMutability": "payable",
      "type": "receive"
    }
  ],
  "bytecode": {
    "object": "0x60c060409080825234620001f55760e0816200200a8038038091620000258285620001fa565b833981010312620001f5576200003b8162000234565b620000496020830162000234565b906200005784840162000234565b92620000666060820162000234565b91620000756080830162000234565b6200009160c06200008960a0860162000234565b940162000234565b9360009687549660018060a01b03199433868a16178a558a519660018060a01b03998a3391167f8be0079c531659141344cd1fd0a4f28419497f9722a3daafe3b4186f6b6457e08d80a3898116978815620001df5750938980948160209b9a989581809660449c9a6080521689600554161760055516876006541617600655168560075416176007558760a0521683600854161760085516906009541617600955858751958694859363095ea7b360e01b855260048501526000196024850152165af18015620001d55762000190575b8251611dc090816200024a823960805181818161029c015281816104bb0152610a03015260a051816109ae0152f35b6020813d8211620001cc575b81620001ab60209383620001fa565b81010312620001c8575180151503620001c5578062000161565b80fd5b5080fd5b3d91506200019c565b83513d84823e3d90fd5b6335fdcccd60e21b8152600481018c9052602490fd5b600080fd5b601f909101601f19168101906001600160401b038211908210176200021e57604052565b634e487b7160e01b600052604160045260246000fd5b51906001600160a01b0382168203620001f55756fe60808060405260048036101561001f575b5050361561001d57600080fd5b005b600091823560e01c90816301ffc9a7146114bf5750806304c490ff146112e85780630991f165146112635780632a899c2214610eb45780633394e6f414610d745780633af32abf14610d35578063715018a614610cdb57806378b1a873146107eb57806385572ffb1461047c57806388620ccc1461041b5780638ab1d681146103da5780638da5cb5b146103b3578063954d2959146102cb578063b0f479a11461028657828163b14cf5e0146101fa57508063e43252d7146101b35763f2fde38b0361001057346101af5760203660031901126101af576100fe611513565b610106611719565b6001600160a01b0390811691821561015c5750600054826bffffffffffffffffffffffff60a01b821617600055167f8be0079c531659141344cd1fd0a4f28419497f9722a3daafe3b4186f6b6457e0600080a380f35b60849060206040519162461bcd60e51b8352820152602660248201527f4f776e61626c653a206e6577206f776e657220697320746865207a65726f206160448201526564647265737360d01b6064820152fd5b5080fd5b82346101f75760203660031901126101f7576101cd611513565b6101d5611719565b6001600160a01b03168152600a60205260408120805460ff1916600117905580f35b80fd5b80833461028357604036600319011261028357610215611513565b61021d611555565b90610226611719565b6001600160a01b03908116803b1561027f57849283602492604051968795869463d0ebdbe760e01b865216908401525af18015610274576102645750f35b61026d906115b1565b6101f75780f35b6040513d84823e3d90fd5b8480fd5b50fd5b82346101f757806003193601126101f7576040517f00000000000000000000000000000000000000000000000000000000000000006001600160a01b03168152602090f35b82346101f75760403660031901126101f7576102e5611513565b600161039f60206102f4611555565b6102fc611719565b604080516001600160a01b03808816858301908152908416602082015261039392610341929161035291879190849082010393610341601f1995868101835282611615565b6040519384928392519283916116ba565b600b90820190815203019020805460ff199081168917909155604080516001600160a01b0396871688820190815296909a1660208701529098938491860190565b03908101835282611615565b8101600b8152030190209182541617905580f35b82346101f757806003193601126101f757546040516001600160a01b039091168152602090f35b82346101f75760203660031901126101f7576103f4611513565b6103fc611719565b6001600160a01b03168152600a60205260408120805460ff1916905580f35b5090346101f75760203660031901126101f7578135906001600160401b0382116101f757602060ff6104668261045336878901611651565b81604051938285809451938492016116ba565b8101600b81520301902054166040519015158152f35b50346101af5760206003199181833601126106e9578035926001600160401b03908185116106ed5760a090853603011261027f576001600160a01b03937f0000000000000000000000000000000000000000000000000000000000000000851633036107d457604051906104ef826115df565b80840135825260248101359280841684036107cf57879386840190815260448301358281116106ed5761052790873691860101611651565b936040810194855260648401358381116107c75761054a90883691870101611651565b93606082019485526084810135908482116107cb5701366023820112156107c757878101359061057982611702565b916105876040519384611615565b80835260248b84019160061b830101913683116107c357602401905b82821061078c575050506080820152516001555116916002549051868180518101031261027f5786015192878416840361027f5761060e9368010000000000000000600160e01b039060401b169163ffffffff60e01b16171760025551848082518301019101611ba0565b9160ff6101408401511680156000146106f15750846006541690858451169186610100860151169061012086015193813b156106ed57604080516303684c2b60e51b81526001600160a01b0392831695810195865293909116602085015283019390935291839183919082908490829060600103925af18015610274576106d5575b5050826106d293825116928201519080604084015116906060840151906080850151169160a08501519362ffffff60e060ff60c0890151169701511696611878565b80f35b6106de906115b1565b6106e9578338610690565b8380fd5b8580fd5b600391939295945014610706575b5050505080f35b826006541661012084835116946101008401511692015193813b156106ed57604080516303684c2b60e51b81526001600160a01b0392831695810195865293909116602085015283019390935291839183919082908490829060600103925af1801561027457610778575b80806106ff565b610781906115b1565b6101f7578038610771565b6040823603126107c3578b60409182516107a5816115c4565b6107ae8561156b565b815282850135838201528152019101906105a3565b8980fd5b8680fd5b8780fd5b600080fd5b6040516335fdcccd60e21b81523381850152602490fd5b50346101af5760e03660031901126101af57610805611513565b9061080e611555565b60443591606435906001600160401b039485831683036107cf5761083061153f565b9560a4359081116107cb576108489036908401611651565b9360c435918215158303610cd757338952602096600a885261087060ff60408c2054166117f5565b610881888851890101898901611ba0565b60ff610140820151168015908115610ccc575b5015610c7d578161012082015103610c2f576101000151604080516001600160a01b03808716828d019081529381166020850152969594939260019260ff926108f2928e92909190610341908290840103601f198101835282611615565b8101600b8152030190205416151503610beb57908a92918560065416803b1561027f57604080516303a868f560e31b81526001600160a01b039489168516818b01908152949095166020850152830191909152839183919082908490829060600103925af1801561027457610bd7575b505015610bd0576001935b81604051971686880152858752610983876115c4565b60405194610990866115fa565b8886526002811015610bbd57600114948893929182918715610bb6577f0000000000000000000000000000000000000000000000000000000000000000915b6040519a6109dc8c6115df565b8b52898b015260408a01521660608801526040516109f9816115fa565b83815260808801527f00000000000000000000000000000000000000000000000000000000000000001693604051906320487ded60e01b8252868280610a428b89888401611c9e565b0381895afa918215610bab578492610b7c575b5015610af457506040516396f4e9f960e01b815295859487949093859390928492610a81928401611c9e565b03925af18015610ae9578390610aae575b600080516020611d6b83398151915292505b604051908152a180f35b508082813d8311610ae2575b610ac48183611615565b810103126107cf57600080516020611d6b8339815191529151610a92565b503d610aba565b6040513d85823e3d90fd5b6040516396f4e9f960e01b8152968695889590945085938492610b1a9290918401611c9e565b03925af18015610ae9578390610b41575b600080516020611d6b8339815191529250610aa4565b508082813d8311610b75575b610b578183611615565b810103126107cf57600080516020611d6b8339815191529151610b2b565b503d610b4d565b9091508681813d8311610ba4575b610b948183611615565b810103126106e957519038610a55565b503d610b8a565b6040513d86823e3d90fd5b85916109cf565b634e487b7160e01b895260218452602489fd5b869361096d565b610be0906115b1565b6107cb578738610962565b60405162461bcd60e51b81528087018a9052601e60248201527f4c6f636b20756e6c6f636b20546f6b656e206e6f74207468652073616d6500006044820152606490fd5b60405162461bcd60e51b81528087018a9052602160248201527f4c6f636b20756e6c6f636b207175616e74697479206e6f74207468652073616d6044820152606560f81b6064820152608490fd5b60405162461bcd60e51b81528087018a9052602260248201527f204e6f742072656c65617365206f6e2064657374696e6174696f6e2063686169604482015261037160f51b6064820152608490fd5b600391501438610894565b8880fd5b82346101f757806003193601126101f757610cf4611719565b600080546001600160a01b0319811682556001600160a01b03167f8be0079c531659141344cd1fd0a4f28419497f9722a3daafe3b4186f6b6457e08280a380f35b82346101f75760203660031901126101f75760209060ff906040906001600160a01b03610d60611513565b168152600a84522054166040519015158152f35b5090346101f757806003193601126101f7576001908154906002546040519180946003549182821c928281168015610eaa575b6020998a86108214610e975750848752899392918115610e745750600114610e1a575b50505050610dde82610e1694950383611615565b60405194859485526001600160401b0382169085015260018060a01b039060401c1660408401526080606084015260808301906116dd565b0390f35b92919650600383527fc2575a0e9e593c00f959f8c92f12db2869c3395a3b0502d05e2516446f71f85b5b828410610e6157505050820190930192610dde85610e1684610dca565b8054868501890152928701928101610e44565b60ff19168488015250505090151560051b8301019350610dde85610e1684610dca565b634e487b7160e01b845260229052602483fd5b93607f1693610da7565b5090346101f757600319906080368301126101f7578235926001600160401b039283851161125f573660238601121561125f578482013590610ef582611702565b90610f036040519283611615565b8282526020968783016024809560051b830101913683116107cb5790858a9201905b83821061124857505050508235908682116106ed57366023830112156106ed5781850135610f5281611702565b92610f606040519485611615565b81845289840186819360051b830101913683116107c35790878c9201905b83821061123957505050506044358881116107cb57610fa09036908801611651565b606435898111610cd757610fb79036908901611651565b916040519960808b01908b8210908211176112275760405260038a526060368c8c01376005546001600160a01b039a908b16610ff282611771565b528a6009541661100182611794565b528a600654168151600210156112155792899592828e98898f8f989061104d91606060c09f9c99015260085416996040519d8e9c8d6354a4ee1f60e11b90528d015260c48c01906117b8565b8a810388018b8f0152915180835291019290875b8181106111ea57505050926110a26110b19361108c848b99989597868b809a030160448a01526117b8565b90306064880152848783030160848801526116dd565b918483030160a48501526116dd565b03925af1908115610bab5784916111b5575b50848060055416911694813b1561027f57604051858185818363189acdbd60e31b978883528c8b8401525af18015611197576111a2575b508060095416803b156106ed5785809160446040518094819363485cc95560e01b83528c8b840152818a8401525af1801561119757908691611183575b505060065416803b1561027f5791859391858094604051968795869485528401525af180156102745761116f575b5050604051908152f35b61117982916115b1565b6101f75780611165565b61118c906115b1565b61027f578438611137565b6040513d88823e3d90fd5b6111ae909591956115b1565b93386110fa565b90508581813d83116111e3575b6111cc8183611615565b810103126106e9576111dd906117a4565b386110c3565b503d6111c2565b93828c93989b50600194979a9c92969950518152019501910192899794918f999794938e9794611061565b634e487b7160e01b8b5260328a52888bfd5b634e487b7160e01b8a5260418952878afd5b81358152908201908201610f7e565b8280916112548461156b565b815201910190610f25565b8280fd5b50346101af576101003660031901126101af5761127e611513565b6024356001600160401b0381116106e9576106d29261129f91369101611651565b906112a8611529565b916112b161153f565b6112b9611698565b926112c26116a8565b94338852600a6020526112db60ff60408a2054166117f5565b60a4359360643592611878565b50346101af576101603660031901126101af57611303611513565b90602435906001600160401b0382116106e95761132291369101611651565b61132a611529565b61133261153f565b61133a611698565b906113436116a8565b92610104359460018060a01b0386168096036107cb57610144359760ff891689036101f7575060ff959362ffffff93610e1699969388936040519a6113878c61157f565b60018060a01b03168b5260208b015260018060a01b031660408a015260643560608a015260018060a01b0316608089015260a43560a08901521660c08701521660e085015261010084015261012435610120840152166101408201526114ab604051809260208083015260018060a01b03815116604083015260ff610140611420602084015161016060608701526101a08601906116dd565b9260018060a01b036040820151166080860152606081015160a086015260018060a01b0360808201511660c086015260a081015160e08601528260c08201511661010086015262ffffff60e08201511661012086015260018060a01b03610100820151168286015261012081015161016086015201511661018083015203601f198101835282611615565b6040519182916020835260208301906116dd565b9190503461125f57602036600319011261125f573563ffffffff60e01b811680910361125f57602092506385572ffb60e01b8114908115611502575b5015158152f35b6301ffc9a760e01b149050386114fb565b600435906001600160a01b03821682036107cf57565b604435906001600160a01b03821682036107cf57565b608435906001600160a01b03821682036107cf57565b602435906001600160a01b03821682036107cf57565b35906001600160a01b03821682036107cf57565b61016081019081106001600160401b0382111761159b57604052565b634e487b7160e01b600052604160045260246000fd5b6001600160401b03811161159b57604052565b604081019081106001600160401b0382111761159b57604052565b60a081019081106001600160401b0382111761159b57604052565b602081019081106001600160401b0382111761159b57604052565b90601f801991011681019081106001600160401b0382111761159b57604052565b6001600160401b03811161159b57601f01601f191660200190565b81601f820112156107cf5780359061166882611636565b926116766040519485611615565b828452602083830101116107cf57816000926020809301838601378301015290565b60c4359060ff821682036107cf57565b60e4359062ffffff821682036107cf57565b60005b8381106116cd5750506000910152565b81810151838201526020016116bd565b906020916116f6815180928185528580860191016116ba565b601f01601f1916010190565b6001600160401b03811161159b5760051b60200190565b6000546001600160a01b0316330361172d57565b606460405162461bcd60e51b815260206004820152602060248201527f4f776e61626c653a2063616c6c6572206973206e6f7420746865206f776e65726044820152fd5b80511561177e5760200190565b634e487b7160e01b600052603260045260246000fd5b80516001101561177e5760400190565b51906001600160a01b03821682036107cf57565b90815180825260208080930193019160005b8281106117d8575050505090565b83516001600160a01b0316855293810193928101926001016117ca565b156117fc57565b60405162461bcd60e51b815260206004820152601960248201527f43616c6c6572206973206e6f742077686974656c6973746564000000000000006044820152606490fd5b9092919261184e81611636565b9161185c6040519384611615565b8294828452828201116107cf5760206118769301906116ba565b565b90929694919593602060ff602460018060a01b03600754169760405198899384926373b2e76b60e11b84521660048301525afa948515611a9e57600095611b56575b5060018060a01b03600554169460206040518092632866e9b760e21b82528860048301526040602483015281806118f4604482018b6116dd565b03916001600160a01b03165afa908115611a9e57600091611b1c575b5060405196606088018881106001600160401b0382111761159b57906119b5989160405260028252604036602084013761194982611771565b6001600160a01b038b16905261195e82611794565b6001600160a01b038516905260405190611977826115c4565b600182526020368184013761198b82611771565b62ffffff91821690526040516317d4d8c960e01b815260606004820152998a9360648501906117b8565b600319848203016024850152602080845192838152019301916000905b828210611afd575050600160448501525060009391839003918391506001600160a01b03165afa958615611a9e57600096611aaa575b50843b156107cf57600096611a4f968894611a84936040519b8c9a8b998a98630a5cb52960e01b8a5260018060a01b031660048a015260e060248a015260e48901906116dd565b6001600160a01b03958616604489015260648801919091529316608486015260a48501528382036003190160c48501526116dd565b03925af18015611a9e57611a955750565b611876906115b1565b6040513d6000823e3d90fd5b90953d8082843e611abb8184611615565b8201916020818403126101af578051906001600160401b03821161125f57019082601f830112156101f757508051611af69291602001611841565b9438611a08565b8351811685528c955060209485019490930192600191909101906119d2565b906020823d602011611b4e575b81611b3660209383611615565b810103126101f75750611b48906117a4565b38611910565b3d9150611b29565b90946020823d602011611b8a575b81611b7160209383611615565b810103126101f75750611b83906117a4565b93386118ba565b3d9150611b64565b519060ff821682036107cf57565b906020828203126107cf5781516001600160401b03928382116107cf570190610160828203126107cf5760405192611bd78461157f565b611be0836117a4565b845260208301519081116107cf5782019080601f830112156107cf578151611c0a92602001611841565b6020830152611c1b604082016117a4565b604083015260608101516060830152611c36608082016117a4565b608083015260a081015160a0830152611c5160c08201611b92565b60c083015260e081015162ffffff811681036107cf5760e0830152610100611c7a8183016117a4565b908301526101208082015190830152611c97610140809201611b92565b9082015290565b906001600160401b039093929316815260406020918183820152611ccd855160a08484015260e08301906116dd565b91611ce98487015193603f1994858583030160608601526116dd565b8187015194848483030160808501528080875193848152019601926000905b838210611d4157505050505060c06080611d3e959660018060a01b0360608201511660a0850152015192828503019101526116dd565b90565b845180516001600160a01b03168952830151888401529687019693820193600190910190611d0856fe54791b38f3859327992a1ca0590ad3c0f08feba98d1a4f56ab0dca74d203392aa2646970667358221220ae956a8b9f6398b0c35764f1909a98d22a4612177960160e91a5de5d7de9a54364736f6c63430008130033",
    "linkReferences": {}
  },
  "methodIdentifiers": {
    "addToWhitelist(address)": "e43252d7",
    "ccipReceive((bytes32,uint64,bytes,bytes,(address,uint256)[]))": "85572ffb",
    "changeManager(address,address)": "b14cf5e0",
    "createSetToken(address[],int256[],string,string)": "2a899c22",
    "encodeCCIPInfo(address,string,address,uint256,address,uint256,uint8,uint24,address,uint256,uint8)": "04c490ff",
    "getLatestMessageDetails()": "3394e6f4",
    "getRouter()": "b0f479a1",
    "isWhitelisted(address)": "3af32abf",
    "lockAndSend(address,address,uint256,uint64,address,bytes,bool)": "78b1a873",
    "owner()": "8da5cb5b",
    "regsiterTokenPair(address,address)": "954d2959",
    "removeFromWhitelist(address)": "8ab1d681",
    "renounceOwnership()": "715018a6",
    "supportsInterface(bytes4)": "01ffc9a7",
    "swap(address,string,address,uint256,address,uint256,uint8,uint24)": "0991f165",
    "tokenPairExistence(bytes)": "88620ccc",
    "transferOwnership(address)": "f2fde38b"
  },
  "id": 40
}