{
  "abi": [
    {
      "inputs": [
        {
          "internalType": "address",
          "name": "_tradeModule",
          "type": "address"
        },
        {
          "internalType": "address",
          "name": "_lockReleaseModule",
          "type": "address"
        },
        {
          "internalType": "address",
          "name": "_controller",
          "type": "address"
        },
        {
          "internalType": "address",
          "name": "_ccipRouter",
          "type": "address"
        },
        {
          "internalType": "address",
          "name": "_linkToken",
          "type": "address"
        }
      ],
      "stateMutability": "nonpayable",
      "type": "constructor"
    },
    {
      "inputs": [
        {
          "internalType": "address",
          "name": "router",
          "type": "address"
        }
      ],
      "name": "InvalidRouter",
      "type": "error"
    },
    {
      "anonymous": false,
      "inputs": [
        {
          "indexed": false,
          "internalType": "bytes32",
          "name": "messageId",
          "type": "bytes32"
        }
      ],
      "name": "MessageSent",
      "type": "event"
    },
    {
      "anonymous": false,
      "inputs": [
        {
          "indexed": true,
          "internalType": "address",
          "name": "previousOwner",
          "type": "address"
        },
        {
          "indexed": true,
          "internalType": "address",
          "name": "newOwner",
          "type": "address"
        }
      ],
      "name": "OwnershipTransferred",
      "type": "event"
    },
    {
      "inputs": [
        {
          "internalType": "address",
          "name": "_address",
          "type": "address"
        }
      ],
      "name": "addToWhitelist",
      "outputs": [],
      "stateMutability": "nonpayable",
      "type": "function"
    },
    {
      "inputs": [
        {
          "components": [
            {
              "internalType": "bytes32",
              "name": "messageId",
              "type": "bytes32"
            },
            {
              "internalType": "uint64",
              "name": "sourceChainSelector",
              "type": "uint64"
            },
            {
              "internalType": "bytes",
              "name": "sender",
              "type": "bytes"
            },
            {
              "internalType": "bytes",
              "name": "data",
              "type": "bytes"
            },
            {
              "components": [
                {
                  "internalType": "address",
                  "name": "token",
                  "type": "address"
                },
                {
                  "internalType": "uint256",
                  "name": "amount",
                  "type": "uint256"
                }
              ],
              "internalType": "struct Client.EVMTokenAmount[]",
              "name": "destTokenAmounts",
              "type": "tuple[]"
            }
          ],
          "internalType": "struct Client.Any2EVMMessage",
          "name": "message",
          "type": "tuple"
        }
      ],
      "name": "ccipReceive",
      "outputs": [],
      "stateMutability": "nonpayable",
      "type": "function"
    },
    {
      "inputs": [
        {
          "internalType": "address",
          "name": "setToken",
          "type": "address"
        },
        {
          "internalType": "address",
          "name": "_address",
          "type": "address"
        }
      ],
      "name": "changeManager",
      "outputs": [],
      "stateMutability": "nonpayable",
      "type": "function"
    },
    {
      "inputs": [
        {
          "internalType": "address",
          "name": "_setToken",
          "type": "address"
        },
        {
          "internalType": "string",
          "name": "_exchangeName",
          "type": "string"
        },
        {
          "internalType": "address",
          "name": "_sendToken",
          "type": "address"
        },
        {
          "internalType": "uint256",
          "name": "_sendQuantity",
          "type": "uint256"
        },
        {
          "internalType": "address",
          "name": "_receiveToken",
          "type": "address"
        },
        {
          "internalType": "uint256",
          "name": "_minReceiveQuantity",
          "type": "uint256"
        },
        {
          "internalType": "uint8",
          "name": "_integrationRegistryID",
          "type": "uint8"
        },
        {
          "internalType": "uint24",
          "name": "_poolFee",
          "type": "uint24"
        },
        {
          "internalType": "address",
          "name": "_destToken",
          "type": "address"
        },
        {
          "internalType": "uint256",
          "name": "_destQuantity",
          "type": "uint256"
        },
        {
          "internalType": "uint8",
          "name": "destActionType",
          "type": "uint8"
        }
      ],
      "name": "encodeCCIPInfo",
      "outputs": [
        {
          "internalType": "bytes",
          "name": "",
          "type": "bytes"
        }
      ],
      "stateMutability": "pure",
      "type": "function"
    },
    {
      "inputs": [],
      "name": "getLatestMessageDetails",
      "outputs": [
        {
          "internalType": "bytes32",
          "name": "",
          "type": "bytes32"
        },
        {
          "internalType": "uint64",
          "name": "",
          "type": "uint64"
        },
        {
          "internalType": "address",
          "name": "",
          "type": "address"
        },
        {
          "internalType": "string",
          "name": "",
          "type": "string"
        }
      ],
      "stateMutability": "view",
      "type": "function"
    },
    {
      "inputs": [],
      "name": "getRouter",
      "outputs": [
        {
          "internalType": "address",
          "name": "",
          "type": "address"
        }
      ],
      "stateMutability": "view",
      "type": "function"
    },
    {
      "inputs": [
        {
          "internalType": "address",
          "name": "_address",
          "type": "address"
        }
      ],
      "name": "isWhitelisted",
      "outputs": [
        {
          "internalType": "bool",
          "name": "",
          "type": "bool"
        }
      ],
      "stateMutability": "view",
      "type": "function"
    },
    {
      "inputs": [
        {
          "internalType": "address",
          "name": "_setToken",
          "type": "address"
        },
        {
          "internalType": "address",
          "name": "_lockToken",
          "type": "address"
        },
        {
          "internalType": "uint256",
          "name": "_lockQuantity",
          "type": "uint256"
        },
        {
          "internalType": "uint64",
          "name": "destinationChainSelector",
          "type": "uint64"
        },
        {
          "internalType": "address",
          "name": "receiver",
          "type": "address"
        },
        {
          "internalType": "bytes",
          "name": "dataToCallReceiver",
          "type": "bytes"
        },
        {
          "internalType": "bool",
          "name": "useLink",
          "type": "bool"
        }
      ],
      "name": "lockAndSend",
      "outputs": [],
      "stateMutability": "nonpayable",
      "type": "function"
    },
    {
      "inputs": [],
      "name": "owner",
      "outputs": [
        {
          "internalType": "address",
          "name": "",
          "type": "address"
        }
      ],
      "stateMutability": "view",
      "type": "function"
    },
    {
      "inputs": [
        {
          "internalType": "address",
          "name": "_token1",
          "type": "address"
        },
        {
          "internalType": "address",
          "name": "_token2",
          "type": "address"
        }
      ],
      "name": "regsiterTokenPair",
      "outputs": [],
      "stateMutability": "nonpayable",
      "type": "function"
    },
    {
      "inputs": [
        {
          "internalType": "address",
          "name": "_address",
          "type": "address"
        }
      ],
      "name": "removeFromWhitelist",
      "outputs": [],
      "stateMutability": "nonpayable",
      "type": "function"
    },
    {
      "inputs": [],
      "name": "renounceOwnership",
      "outputs": [],
      "stateMutability": "nonpayable",
      "type": "function"
    },
    {
      "inputs": [
        {
          "internalType": "bytes4",
          "name": "interfaceId",
          "type": "bytes4"
        }
      ],
      "name": "supportsInterface",
      "outputs": [
        {
          "internalType": "bool",
          "name": "",
          "type": "bool"
        }
      ],
      "stateMutability": "pure",
      "type": "function"
    },
    {
      "inputs": [
        {
          "internalType": "address",
          "name": "_setToken",
          "type": "address"
        },
        {
          "internalType": "string",
          "name": "_exchangeName",
          "type": "string"
        },
        {
          "internalType": "address",
          "name": "_sendToken",
          "type": "address"
        },
        {
          "internalType": "uint256",
          "name": "_sendQuantity",
          "type": "uint256"
        },
        {
          "internalType": "address",
          "name": "_receiveToken",
          "type": "address"
        },
        {
          "internalType": "uint256",
          "name": "_minReceiveQuantity",
          "type": "uint256"
        },
        {
          "internalType": "uint8",
          "name": "integrationRegistryID",
          "type": "uint8"
        },
        {
          "internalType": "uint24",
          "name": "poolFee",
          "type": "uint24"
        }
      ],
      "name": "swap",
      "outputs": [],
      "stateMutability": "nonpayable",
      "type": "function"
    },
    {
      "inputs": [
        {
          "internalType": "bytes",
          "name": "",
          "type": "bytes"
        }
      ],
      "name": "tokenPairExistence",
      "outputs": [
        {
          "internalType": "bool",
          "name": "",
          "type": "bool"
        }
      ],
      "stateMutability": "view",
      "type": "function"
    },
    {
      "inputs": [
        {
          "internalType": "address",
          "name": "newOwner",
          "type": "address"
        }
      ],
      "name": "transferOwnership",
      "outputs": [],
      "stateMutability": "nonpayable",
      "type": "function"
    },
    {
      "stateMutability": "payable",
      "type": "receive"
    }
  ],
  "bytecode": {
    "object": "0x60c060409080825234620001c05760a08162001c1f8038038091620000258285620001c5565b833981010312620001c0576200003b81620001ff565b6200004960208301620001ff565b9062000057848401620001ff565b926200007460806200006c60608401620001ff565b9201620001ff565b9160009485549460018060a01b0319923384881617885588519460018060a01b0397883391167f8be0079c531659141344cd1fd0a4f28419497f9722a3daafe3b4186f6b6457e08b80a3878116958615620001aa575092876044959381809460209a99976080521685600554161760055516836006541617600655169060075416176007558260a052858751958694859363095ea7b360e01b855260048501526000196024850152165af18015620001a0576200015b575b8251611a0a9081620002158239608051818181610291015281816104b00152610a2e015260a051816109d90152f35b6020813d821162000197575b816200017660209383620001c5565b81010312620001935751801515036200019057806200012c565b80fd5b5080fd5b3d915062000167565b83513d84823e3d90fd5b6335fdcccd60e21b8152600481018a9052602490fd5b600080fd5b601f909101601f19168101906001600160401b03821190821017620001e957604052565b634e487b7160e01b600052604160045260246000fd5b51906001600160a01b0382168203620001c05756fe60808060405260048036101561001f575b5050361561001d57600080fd5b005b600091823560e01c90816301ffc9a7146111495750806304c490ff14610f725780630991f16514610eed5780633394e6f414610dad5780633af32abf14610d6e578063715018a614610d1457806378b1a8731461081b57806385572ffb1461047157806388620ccc146104105780638ab1d681146103cf5780638da5cb5b146103a8578063954d2959146102c0578063b0f479a11461027b57828163b14cf5e0146101ef57508063e43252d7146101a85763f2fde38b0361001057346101a45760203660031901126101a4576100f36111a1565b6100fb61137c565b6001600160a01b039081169182156101515750600054826bffffffffffffffffffffffff60a01b821617600055167f8be0079c531659141344cd1fd0a4f28419497f9722a3daafe3b4186f6b6457e0600080a380f35b60849060206040519162461bcd60e51b8352820152602660248201527f4f776e61626c653a206e6577206f776e657220697320746865207a65726f206160448201526564647265737360d01b6064820152fd5b5080fd5b82346101ec5760203660031901126101ec576101c26111a1565b6101ca61137c565b6001600160a01b03168152600860205260408120805460ff1916600117905580f35b80fd5b8083346102785760403660031901126102785761020a6111a1565b6102126111e3565b9061021b61137c565b6001600160a01b03908116803b1561027457849283602492604051968795869463d0ebdbe760e01b865216908401525af18015610269576102595750f35b6102629061122b565b6101ec5780f35b6040513d84823e3d90fd5b8480fd5b50fd5b82346101ec57806003193601126101ec576040517f00000000000000000000000000000000000000000000000000000000000000006001600160a01b03168152602090f35b82346101ec5760403660031901126101ec576102da6111a1565b600161039460206102e96111e3565b6102f161137c565b604080516001600160a01b03808816858301908152908416602082015261038892610336929161034791879190849082010393610336601f199586810183528261128f565b604051938492839251928391611334565b600990820190815203019020805460ff199081168917909155604080516001600160a01b0396871688820190815296909a1660208701529098938491860190565b0390810183528261128f565b810160098152030190209182541617905580f35b82346101ec57806003193601126101ec57546040516001600160a01b039091168152602090f35b82346101ec5760203660031901126101ec576103e96111a1565b6103f161137c565b6001600160a01b03168152600860205260408120805460ff1916905580f35b5090346101ec5760203660031901126101ec578135906001600160401b0382116101ec57602060ff61045b82610448368789016112cb565b8160405193828580945193849201611334565b8101600981520301902054166040519015158152f35b50346101a45760206003199181833601126106e8578035926001600160401b03908185116106ec5760a0908536030112610274576001600160a01b03937f00000000000000000000000000000000000000000000000000000000000000008516330361080457604051916104e483611259565b818401358352602482013581811681036107da57858401908152604483013582811161080057610519908636918601016112cb565b936040810194855260648401358381116107f85761053c908736918701016112cb565b93606082019485526084810135908482116107fc5701366023820112156107f85786810135908482116107e3576040519161057c8a8260051b018461128f565b80835260248a84019160061b830101913683116107df579060248d999897969594939201905b82821061078b5750505060808201525160015551169160025490518681805181010312610274578601519287841684036102745761060d9368010000000000000000600160e01b039060401b169163ffffffff60e01b161717600255518480825183010191016117ea565b9160ff6101408401511680156000146106f05750846006541690858451169186610100860151169061012086015193813b156106ec57604080516303684c2b60e51b81526001600160a01b0392831695810195865293909116602085015283019390935291839183919082908490829060600103925af18015610269576106d4575b5050826106d193825116928201519080604084015116906060840151906080850151169160a08501519362ffffff60e060ff60c089015116970151169661148e565b80f35b6106dd9061122b565b6106e857833861068f565b8380fd5b8580fd5b600391939295945014610705575b5050505080f35b826006541661012084835116946101008401511692015193813b156106ec57604080516303684c2b60e51b81526001600160a01b0392831695810195865293909116602085015283019390935291839183919082908490829060600103925af1801561026957610777575b80806106fe565b6107809061122b565b6101ec578038610770565b909192939495969798506040823603126107df57604051906107ac8261123e565b8235908d821682036107da57828d9260409452828501358382015281520191018c98979695949392916105a2565b600080fd5b8c80fd5b604188634e487b7160e01b6000525260246000fd5b8980fd5b8a80fd5b8880fd5b6040516335fdcccd60e21b81523381850152602490fd5b50346101a45760e03660031901126101a4576108356111a1565b61083d6111e3565b9160443590606435906001600160401b03948583168303610d10576108606111cd565b9560a435908111610d0c5761087890369084016112cb565b9360c43591821515830361080057338952602096600888526108a060ff60408c2054166113d4565b6108b18888518901018989016117ea565b60ff610140820151168015908115610d01575b5015610cb2578361012082015103610c64576101000151604080516001600160a01b03808616828d019081529381166020850152969594939260019260ff92610922928e92909190610336908290840103601f19810183528261128f565b810160098152030190205416151503610c2057908a91856006541690813b156106e857604080516303a868f560e31b81529188166001600160a01b039081168a840190815294166020850152830194909452839182908490829060600103925af18015610c1557610c02575b5015610bfb576001935b816040519716868801528587526109ae8761123e565b604051946109bb86611274565b8886526002811015610be857600114948893929182918715610be1577f0000000000000000000000000000000000000000000000000000000000000000915b6040519a610a078c611259565b8b52898b015260408a0152166060880152604051610a2481611274565b83815260808801527f00000000000000000000000000000000000000000000000000000000000000001693604051906320487ded60e01b8252868280610a6d8b898884016118e8565b0381895afa918215610bd6578492610ba7575b5015610b1f57506040516396f4e9f960e01b815295859487949093859390928492610aac9284016118e8565b03925af18015610b14578390610ad9575b6000805160206119b583398151915292505b604051908152a180f35b508082813d8311610b0d575b610aef818361128f565b810103126107da576000805160206119b58339815191529151610abd565b503d610ae5565b6040513d85823e3d90fd5b6040516396f4e9f960e01b8152968695889590945085938492610b4592909184016118e8565b03925af18015610b14578390610b6c575b6000805160206119b58339815191529250610acf565b508082813d8311610ba0575b610b82818361128f565b810103126107da576000805160206119b58339815191529151610b56565b503d610b78565b9091508681813d8311610bcf575b610bbf818361128f565b810103126106e857519038610a80565b503d610bb5565b6040513d86823e3d90fd5b85916109fa565b634e487b7160e01b895260218452602489fd5b8693610998565b610c0e9098919861122b565b963861098e565b6040513d8b823e3d90fd5b60405162461bcd60e51b81528087018a9052601e60248201527f4c6f636b20756e6c6f636b20546f6b656e206e6f74207468652073616d6500006044820152606490fd5b60405162461bcd60e51b81528087018a9052602160248201527f4c6f636b20756e6c6f636b207175616e74697479206e6f74207468652073616d6044820152606560f81b6064820152608490fd5b60405162461bcd60e51b81528087018a9052602260248201527f204e6f742072656c65617365206f6e2064657374696e6174696f6e2063686169604482015261037160f51b6064820152608490fd5b6003915014386108c4565b8780fd5b8680fd5b82346101ec57806003193601126101ec57610d2d61137c565b80546001600160a01b03198116825581906001600160a01b03167f8be0079c531659141344cd1fd0a4f28419497f9722a3daafe3b4186f6b6457e08280a380f35b82346101ec5760203660031901126101ec5760209060ff906040906001600160a01b03610d996111a1565b168152600884522054166040519015158152f35b5090346101ec57806003193601126101ec576001908154906002546040519180946003549182821c928281168015610ee3575b6020998a86108214610ed05750848752899392918115610ead5750600114610e53575b50505050610e1782610e4f9495038361128f565b60405194859485526001600160401b0382169085015260018060a01b039060401c166040840152608060608401526080830190611357565b0390f35b92919650600383527fc2575a0e9e593c00f959f8c92f12db2869c3395a3b0502d05e2516446f71f85b5b828410610e9a57505050820190930192610e1785610e4f84610e03565b8054868501890152928701928101610e7d565b60ff19168488015250505090151560051b8301019350610e1785610e4f84610e03565b634e487b7160e01b845260229052602483fd5b93607f1693610de0565b50346101a4576101003660031901126101a457610f086111a1565b6024356001600160401b0381116106e8576106d192610f29913691016112cb565b90610f326111b7565b91610f3b6111cd565b610f43611312565b92610f4c611322565b943388526008602052610f6560ff60408a2054166113d4565b60a435936064359261148e565b50346101a4576101603660031901126101a457610f8d6111a1565b90602435906001600160401b0382116106e857610fac913691016112cb565b610fb46111b7565b610fbc6111cd565b610fc4611312565b90610fcd611322565b92610104359460018060a01b038616809603610d0c57610144359760ff891689036101ec575060ff959362ffffff93610e4f99969388936040519a6110118c6111f9565b60018060a01b03168b5260208b015260018060a01b031660408a015260643560608a015260018060a01b0316608089015260a43560a08901521660c08701521660e08501526101008401526101243561012084015216610140820152611135604051809260208083015260018060a01b03815116604083015260ff6101406110aa602084015161016060608701526101a0860190611357565b9260018060a01b036040820151166080860152606081015160a086015260018060a01b0360808201511660c086015260a081015160e08601528260c08201511661010086015262ffffff60e08201511661012086015260018060a01b03610100820151168286015261012081015161016086015201511661018083015203601f19810183528261128f565b604051918291602083526020830190611357565b9190503461119d57602036600319011261119d573563ffffffff60e01b811680910361119d57602092506385572ffb60e01b811490811561118c575b5015158152f35b6301ffc9a760e01b14905038611185565b8280fd5b600435906001600160a01b03821682036107da57565b604435906001600160a01b03821682036107da57565b608435906001600160a01b03821682036107da57565b602435906001600160a01b03821682036107da57565b61016081019081106001600160401b0382111761121557604052565b634e487b7160e01b600052604160045260246000fd5b6001600160401b03811161121557604052565b604081019081106001600160401b0382111761121557604052565b60a081019081106001600160401b0382111761121557604052565b602081019081106001600160401b0382111761121557604052565b90601f801991011681019081106001600160401b0382111761121557604052565b6001600160401b03811161121557601f01601f191660200190565b81601f820112156107da578035906112e2826112b0565b926112f0604051948561128f565b828452602083830101116107da57816000926020809301838601378301015290565b60c4359060ff821682036107da57565b60e4359062ffffff821682036107da57565b60005b8381106113475750506000910152565b8181015183820152602001611337565b9060209161137081518092818552858086019101611334565b601f01601f1916010190565b6000546001600160a01b0316330361139057565b606460405162461bcd60e51b815260206004820152602060248201527f4f776e61626c653a2063616c6c6572206973206e6f7420746865206f776e65726044820152fd5b156113db57565b60405162461bcd60e51b815260206004820152601960248201527f43616c6c6572206973206e6f742077686974656c6973746564000000000000006044820152606490fd5b51906001600160a01b03821682036107da57565b8051156114415760200190565b634e487b7160e01b600052603260045260246000fd5b90929192611464816112b0565b91611472604051938461128f565b8294828452828201116107da57602061148c930190611334565b565b90929694919593602060ff602460018060a01b03600754169760405198899384926373b2e76b60e11b84521660048301525afa9485156116c7576000956117a0575b5060018060a01b03600554169460206040518092632866e9b760e21b825288600483015260406024830152818061150a604482018b611357565b03916001600160a01b03165afa9081156116c757600091611766575b5060405196606088018881106001600160401b03821117611215576040526002885260403660208a013761155988611434565b6001600160a01b038a169052875160011015611441576001600160a01b0383166040808a019190915251979061158e8961123e565b60018952602036818b013762ffffff6115a68a611434565b911690526040519788916317d4d8c960e01b83526064830160606004850152815180915260206084850192019060005b818110611744575050506003198382030160248401526020808351928381520192019060005b8181106117265750506001604484015250600092908290039082906001600160a01b03165afa9586156116c7576000966116d3575b50843b156107da576000966116789688946116ad936040519b8c9a8b998a98630a5cb52960e01b8a5260018060a01b031660048a015260e060248a015260e4890190611357565b6001600160a01b03958616604489015260648801919091529316608486015260a48501528382036003190160c4850152611357565b03925af180156116c7576116be5750565b61148c9061122b565b6040513d6000823e3d90fd5b90953d8082843e6116e4818461128f565b8201916020818403126101a4578051906001600160401b03821161119d57019082601f830112156101ec5750805161171f9291602001611457565b9438611631565b825162ffffff1684528b9450602093840193909201916001016115fc565b82516001600160a01b031684528c9550602093840193909201916001016115d6565b906020823d602011611798575b816117806020938361128f565b810103126101ec575061179290611420565b38611526565b3d9150611773565b90946020823d6020116117d4575b816117bb6020938361128f565b810103126101ec57506117cd90611420565b93386114d0565b3d91506117ae565b519060ff821682036107da57565b906020828203126107da5781516001600160401b03928382116107da570190610160828203126107da5760405192611821846111f9565b61182a83611420565b845260208301519081116107da5782019080601f830112156107da57815161185492602001611457565b602083015261186560408201611420565b60408301526060810151606083015261188060808201611420565b608083015260a081015160a083015261189b60c082016117dc565b60c083015260e081015162ffffff811681036107da5760e08301526101006118c4818301611420565b9083015261012080820151908301526118e16101408092016117dc565b9082015290565b906001600160401b039093929316815260406020918183820152611917855160a08484015260e0830190611357565b916119338487015193603f199485858303016060860152611357565b8187015194848483030160808501528080875193848152019601926000905b83821061198b57505050505060c06080611988959660018060a01b0360608201511660a085015201519282850301910152611357565b90565b845180516001600160a01b0316895283015188840152968701969382019360019091019061195256fe54791b38f3859327992a1ca0590ad3c0f08feba98d1a4f56ab0dca74d203392aa2646970667358221220ea587e3db9bd7a56ba033a556538c97ce535a09f2d8e7450892aa524e3b4c20464736f6c63430008130033",
    "linkReferences": {}
  },
  "methodIdentifiers": {
    "addToWhitelist(address)": "e43252d7",
    "ccipReceive((bytes32,uint64,bytes,bytes,(address,uint256)[]))": "85572ffb",
    "changeManager(address,address)": "b14cf5e0",
    "encodeCCIPInfo(address,string,address,uint256,address,uint256,uint8,uint24,address,uint256,uint8)": "04c490ff",
    "getLatestMessageDetails()": "3394e6f4",
    "getRouter()": "b0f479a1",
    "isWhitelisted(address)": "3af32abf",
    "lockAndSend(address,address,uint256,uint64,address,bytes,bool)": "78b1a873",
    "owner()": "8da5cb5b",
    "regsiterTokenPair(address,address)": "954d2959",
    "removeFromWhitelist(address)": "8ab1d681",
    "renounceOwnership()": "715018a6",
    "supportsInterface(bytes4)": "01ffc9a7",
    "swap(address,string,address,uint256,address,uint256,uint8,uint24)": "0991f165",
    "tokenPairExistence(bytes)": "88620ccc",
    "transferOwnership(address)": "f2fde38b"
  },
  "id": 41
}