{
  "abi": [
    {
      "inputs": [
        {
          "internalType": "address",
          "name": "router",
          "type": "address"
        },
        {
          "internalType": "contract ISwapRouter",
          "name": "_swapRouter",
          "type": "address"
        }
      ],
      "stateMutability": "nonpayable",
      "type": "constructor"
    },
    {
      "inputs": [
        {
          "internalType": "address",
          "name": "owner",
          "type": "address"
        },
        {
          "internalType": "address",
          "name": "target",
          "type": "address"
        },
        {
          "internalType": "uint256",
          "name": "value",
          "type": "uint256"
        }
      ],
      "name": "FailedToWithdrawEth",
      "type": "error"
    },
    {
      "inputs": [
        {
          "internalType": "address",
          "name": "router",
          "type": "address"
        }
      ],
      "name": "InvalidRouter",
      "type": "error"
    },
    {
      "anonymous": false,
      "inputs": [
        {
          "indexed": false,
          "internalType": "bytes32",
          "name": "latestMessageId",
          "type": "bytes32"
        },
        {
          "indexed": false,
          "internalType": "uint64",
          "name": "latestSourceChainSelector",
          "type": "uint64"
        },
        {
          "indexed": false,
          "internalType": "address",
          "name": "latestSender",
          "type": "address"
        },
        {
          "indexed": false,
          "internalType": "string",
          "name": "latestMessage",
          "type": "string"
        }
      ],
      "name": "MessageReceived",
      "type": "event"
    },
    {
      "anonymous": false,
      "inputs": [
        {
          "indexed": true,
          "internalType": "address",
          "name": "from",
          "type": "address"
        },
        {
          "indexed": true,
          "internalType": "address",
          "name": "to",
          "type": "address"
        }
      ],
      "name": "OwnershipTransferRequested",
      "type": "event"
    },
    {
      "anonymous": false,
      "inputs": [
        {
          "indexed": true,
          "internalType": "address",
          "name": "from",
          "type": "address"
        },
        {
          "indexed": true,
          "internalType": "address",
          "name": "to",
          "type": "address"
        }
      ],
      "name": "OwnershipTransferred",
      "type": "event"
    },
    {
      "anonymous": false,
      "inputs": [
        {
          "indexed": false,
          "internalType": "uint256",
          "name": "amountIn",
          "type": "uint256"
        }
      ],
      "name": "TokenSwapAmount",
      "type": "event"
    },
    {
      "inputs": [],
      "name": "DAI",
      "outputs": [
        {
          "internalType": "address",
          "name": "",
          "type": "address"
        }
      ],
      "stateMutability": "view",
      "type": "function"
    },
    {
      "inputs": [],
      "name": "USDC",
      "outputs": [
        {
          "internalType": "address",
          "name": "",
          "type": "address"
        }
      ],
      "stateMutability": "view",
      "type": "function"
    },
    {
      "inputs": [],
      "name": "acceptOwnership",
      "outputs": [],
      "stateMutability": "nonpayable",
      "type": "function"
    },
    {
      "inputs": [
        {
          "components": [
            {
              "internalType": "bytes32",
              "name": "messageId",
              "type": "bytes32"
            },
            {
              "internalType": "uint64",
              "name": "sourceChainSelector",
              "type": "uint64"
            },
            {
              "internalType": "bytes",
              "name": "sender",
              "type": "bytes"
            },
            {
              "internalType": "bytes",
              "name": "data",
              "type": "bytes"
            },
            {
              "components": [
                {
                  "internalType": "address",
                  "name": "token",
                  "type": "address"
                },
                {
                  "internalType": "uint256",
                  "name": "amount",
                  "type": "uint256"
                }
              ],
              "internalType": "struct Client.EVMTokenAmount[]",
              "name": "destTokenAmounts",
              "type": "tuple[]"
            }
          ],
          "internalType": "struct Client.Any2EVMMessage",
          "name": "message",
          "type": "tuple"
        }
      ],
      "name": "ccipReceive",
      "outputs": [],
      "stateMutability": "nonpayable",
      "type": "function"
    },
    {
      "inputs": [
        {
          "internalType": "string",
          "name": "message",
          "type": "string"
        }
      ],
      "name": "ccipReceiveTest",
      "outputs": [
        {
          "internalType": "uint256",
          "name": "",
          "type": "uint256"
        }
      ],
      "stateMutability": "nonpayable",
      "type": "function"
    },
    {
      "inputs": [],
      "name": "getLatestMessageDetails",
      "outputs": [
        {
          "internalType": "bytes32",
          "name": "",
          "type": "bytes32"
        },
        {
          "internalType": "uint64",
          "name": "",
          "type": "uint64"
        },
        {
          "internalType": "address",
          "name": "",
          "type": "address"
        },
        {
          "internalType": "string",
          "name": "",
          "type": "string"
        }
      ],
      "stateMutability": "view",
      "type": "function"
    },
    {
      "inputs": [],
      "name": "getRouter",
      "outputs": [
        {
          "internalType": "address",
          "name": "",
          "type": "address"
        }
      ],
      "stateMutability": "view",
      "type": "function"
    },
    {
      "inputs": [],
      "name": "owner",
      "outputs": [
        {
          "internalType": "address",
          "name": "",
          "type": "address"
        }
      ],
      "stateMutability": "view",
      "type": "function"
    },
    {
      "inputs": [],
      "name": "poolFee",
      "outputs": [
        {
          "internalType": "uint24",
          "name": "",
          "type": "uint24"
        }
      ],
      "stateMutability": "view",
      "type": "function"
    },
    {
      "inputs": [
        {
          "internalType": "string",
          "name": "str",
          "type": "string"
        }
      ],
      "name": "stringToUint",
      "outputs": [
        {
          "internalType": "uint256",
          "name": "result",
          "type": "uint256"
        }
      ],
      "stateMutability": "pure",
      "type": "function"
    },
    {
      "inputs": [
        {
          "internalType": "bytes4",
          "name": "interfaceId",
          "type": "bytes4"
        }
      ],
      "name": "supportsInterface",
      "outputs": [
        {
          "internalType": "bool",
          "name": "",
          "type": "bool"
        }
      ],
      "stateMutability": "pure",
      "type": "function"
    },
    {
      "inputs": [],
      "name": "swapRouter",
      "outputs": [
        {
          "internalType": "contract ISwapRouter",
          "name": "",
          "type": "address"
        }
      ],
      "stateMutability": "view",
      "type": "function"
    },
    {
      "inputs": [],
      "name": "tokenSwapAmount",
      "outputs": [
        {
          "internalType": "uint256",
          "name": "",
          "type": "uint256"
        }
      ],
      "stateMutability": "view",
      "type": "function"
    },
    {
      "inputs": [
        {
          "internalType": "address",
          "name": "to",
          "type": "address"
        }
      ],
      "name": "transferOwnership",
      "outputs": [],
      "stateMutability": "nonpayable",
      "type": "function"
    },
    {
      "inputs": [
        {
          "internalType": "address",
          "name": "beneficiary",
          "type": "address"
        }
      ],
      "name": "withdraw",
      "outputs": [],
      "stateMutability": "nonpayable",
      "type": "function"
    },
    {
      "inputs": [
        {
          "internalType": "address",
          "name": "beneficiary",
          "type": "address"
        },
        {
          "internalType": "address",
          "name": "token",
          "type": "address"
        }
      ],
      "name": "withdrawToken",
      "outputs": [],
      "stateMutability": "nonpayable",
      "type": "function"
    }
  ],
  "bytecode": {
    "object": "0x60c03461012157601f61132838819003918201601f19168301916001600160401b038311848410176101265780849260409485528339810103126101215780516001600160a01b0391828216908183036101215760200151928316830361012157156101085760805233156100c35760018060a01b0319338160005416176000553390600754161760075560a0526040516111eb908161013d823960805181818161021b01526102e3015260a0518181816101d701528181610f1f015261104e0152f35b60405162461bcd60e51b815260206004820152601860248201527f43616e6e6f7420736574206f776e657220746f207a65726f00000000000000006044820152606490fd5b6040516335fdcccd60e21b815260006004820152602490fd5b600080fd5b634e487b7160e01b600052604160045260246000fdfe6080604081815260048036101561001557600080fd5b600092833560e01c90816301ffc9a714610aa457508063089fe6aa14610a885780631bd9515514610a725780633394e6f4146109ec578381633aeac4e1146108c45750806351cff8d9146108555780637880c07d1461081257806378f9bbd4146107f357806379ba50971461074c57806385572ffb146102a157806389a30271146102725780638da5cb5b1461024a578063b0f479a114610206578063c31c9c07146101c2578063e0bab4c41461018f5763f2fde38b146100d557600080fd5b3461018b57602036600319011261018b576100ee610bea565b906100f7610c00565b6001600160a01b0391821692338414610148575050600180546001600160a01b031916831790558254167fed8889f560326eb138920d842192f0eb3dd22b4f139c87a2c57538e05bae12788380a380f35b906020606492519162461bcd60e51b8352820152601760248201527f43616e6e6f74207472616e7366657220746f2073656c660000000000000000006044820152fd5b8280fd5b5050346101be57816003193601126101be5760209051736b175474e89094c44da98b954eedeac495271d0f8152f35b5080fd5b5050346101be57816003193601126101be57517f00000000000000000000000000000000000000000000000000000000000000006001600160a01b03168152602090f35b5050346101be57816003193601126101be57517f00000000000000000000000000000000000000000000000000000000000000006001600160a01b03168152602090f35b5050346101be57816003193601126101be57905490516001600160a01b039091168152602090f35b5050346101be57816003193601126101be576020905173a0b86991c6218b36c1d19d4a2e9eb0ce3606eb488152f35b50903461018b576020906003199282843601126107485780359067ffffffffffffffff948583116107445760a0908336030112610740576001600160a01b03917f00000000000000000000000000000000000000000000000000000000000000008316330361072a5783519060a082018281108882111761071757855280830135825260249182820135888116810361068757878201908152604483013589811161068f5761035590863691860101610c52565b9187810192835260648401358a811161070f5761037790873691870101610c52565b93606082019485526084810135908b821161071357013660238201121561070f5786810135908b82116106fd578951916103b68c8260051b0184610af8565b808352878c84019160061b830101913683116106f95790888e969594939201905b8282106106935750505060808201525160025551166003549151888180518101031261068f57880151868116810361068f576001600160e01b03199092161790861b68010000000000000000600160e01b03161760035551805181018681019190819003871361068b578681015190888211610687570181603f8201121561068b578681015161046681610b30565b9261047388519485610af8565b8184528782840101116106875761048f91878985019101610bc7565b80519187831161067657506104a48354610db6565b601f8111610615575b508590601f831160011461056c5791807fb1e312a29937cc11967b0e4a346fef1ae132424ebaba9dc6d90249dba053e87c96949261055d999896948b92610561575b50508160011b916000199060031b1c19161790555b610522825161051d8161051681610df0565b0382610af8565b610c6d565b948560065560025493600354918451958652821690850152821c1690820152608060608201528061055560808201610df0565b0390a1610e94565b5080f35b0151905038806104ef565b8389527f8a35acfbc15ff81a39ae7d344fd709f28e8600b4aa8c65c6b64bfe7fe36bd19b9190601f1984168a5b8181106105fe575092600192859261055d9b9a98967fb1e312a29937cc11967b0e4a346fef1ae132424ebaba9dc6d90249dba053e87c9a9896106105e5575b505050811b019055610504565b015160001960f88460031b161c191690553880806105d8565b929389600181928786015181550195019301610599565b8389527f8a35acfbc15ff81a39ae7d344fd709f28e8600b4aa8c65c6b64bfe7fe36bd19b601f840160051c81019188851061066c575b601f0160051c01905b81811061066157506104ad565b898155600101610654565b909150819061064b565b634e487b7160e01b89526041845288fd5b8980fd5b8880fd5b8a80fd5b909192939495508b823603126106f9578b5190818d018f8111838210176106e5578d528235908c821682036106e057828f928f9452828501358382015281520191018d95949392916103d7565b508f80fd5b5050634e487b7160e01b8f5260418a52888ffd5b8e80fd5b634e487b7160e01b8d5260418852868dfd5b8b80fd5b8c80fd5b634e487b7160e01b895260418452602489fd5b83516335fdcccd60e21b81523381840152602490fd5b8580fd5b8680fd5b8480fd5b50903461018b578260031936011261018b57600154916001600160a01b039182841633036107b757505082546001600160a01b03198082163390811786559316600155167f8be0079c531659141344cd1fd0a4f28419497f9722a3daafe3b4186f6b6457e08380a380f35b906020606492519162461bcd60e51b8352820152601660248201527526bab9ba10313290383937b837b9b2b21037bbb732b960511b6044820152fd5b5050346101be57816003193601126101be576020906006549051908152f35b5050346101be5761082236610b88565b6007549092906001600160a01b03163303610852575061084b610846602093610c6d565b610e94565b9051908152f35b80fd5b503461018b57602036600319011261018b5761086f610bea565b91610878610c00565b47908480808085885af161088a61116d565b5015610894578480f35b51639d11f56360e01b8152339281019283526001600160a01b039093166020830152604082015281906060010390fd5b828185346101be57806003193601126101be576108df610bea565b6024356001600160a01b038116908190036109e8576108fc610c00565b8251916370a0823160e01b835230868401526020958684602481865afa9384156109de5790879493929187946109a9575b50855163a9059cbb60e01b81526001600160a01b03909216908201908152602081019390935294859283919082906040015b03925af19081156109a05750610973578280f35b8161099292903d10610999575b61098a8183610af8565b81019061119d565b5081808280f35b503d610980565b513d85823e3d90fd5b8581969295503d83116109d7575b6109c18183610af8565b810103126107405792518693909261095f61092d565b503d6109b7565b85513d88823e3d90fd5b8380fd5b8284346108525780600319360112610852575060a060025460035492805190610a1f82610a1881610df0565b0383610af8565b8051948593845267ffffffffffffffff81166020850152600180861b0390821c169083015260806060830152610a648151809281608086015260208686019101610bc7565b601f01601f19168101030190f35b5050346101be5760209061084b61051d36610b88565b5050346101be57816003193601126101be576020905160648152f35b9250503461018b57602036600319011261018b573563ffffffff60e01b811680910361018b57602092506385572ffb60e01b8114908115610ae7575b5015158152f35b6301ffc9a760e01b14905038610ae0565b90601f8019910116810190811067ffffffffffffffff821117610b1a57604052565b634e487b7160e01b600052604160045260246000fd5b67ffffffffffffffff8111610b1a57601f01601f191660200190565b929192610b5882610b30565b91610b666040519384610af8565b829481845281830111610b83578281602093846000960137010152565b600080fd5b6020600319820112610b83576004359067ffffffffffffffff8211610b835780602383011215610b8357816024610bc493600401359101610b4c565b90565b60005b838110610bda5750506000910152565b8181015183820152602001610bca565b600435906001600160a01b0382168203610b8357565b6000546001600160a01b03163303610c1457565b60405162461bcd60e51b815260206004820152601660248201527527b7363c9031b0b63630b1363290313c9037bbb732b960511b6044820152606490fd5b9080601f83011215610b8357816020610bc493359101610b4c565b805115610d7f576000809182915b8151831015610d7857602080848401015160f81c90603082101580610d6d575b15610d1b5750600a91828102928184041490151715610d075760ff90602f1901818111610cf357168101809111610cdf57916000198114610cdf5760010191610c7b565b634e487b7160e01b84526011600452602484fd5b634e487b7160e01b86526011600452602486fd5b634e487b7160e01b85526011600452602485fd5b6084906040519062461bcd60e51b82526004820152602560248201527f537472696e6720636f6e7461696e73206e6f6e2d6e756d65726963206368617260448201526430b1ba32b960d91b6064820152fd5b506039821115610c9b565b9250505090565b60405162461bcd60e51b815260206004820152600f60248201526e537472696e6720697320656d70747960881b6044820152606490fd5b90600182811c92168015610de6575b6020831014610dd057565b634e487b7160e01b600052602260045260246000fd5b91607f1691610dc5565b60045460009291610e0082610db6565b80825291600190818116908115610e775750600114610e1e57505050565b9192935060046000527f8a35acfbc15ff81a39ae7d344fd709f28e8600b4aa8c65c6b64bfe7fe36bd19b916000925b848410610e5f57505060209250010190565b80546020858501810191909152909301928101610e4d565b915050602093945060ff929192191683830152151560051b010190565b604080516323b872dd60e01b602082019081523360248301523060448301526064808301859052825291929190601f19906000908190610ed5608482610af8565b5173a0b86991c6218b36c1d19d4a2e9eb0ce3606eb489482865af1610ef861116d565b8161113e575b501561111457835163095ea7b360e01b602082019081526001600160a01b037f00000000000000000000000000000000000000000000000000000000000000001660248301526044820185905260649283018252600092839290610f629082610af8565b519082855af1610f7061116d565b816110e5575b50156110bc57825190610100820182811067ffffffffffffffff821117610b1a5784528152736b175474e89094c44da98b954eedeac495271d0f602080830191825260648386018181523360608601908152426080870190815260a08701978852600060c0880181815260e089018281528b5163414bf38960e01b815299516001600160a01b0390811660048c01529851891660248b0152945162ffffff1660448a01529251871694880194909452516084870152955160a4860152945160c48501529351821660e4840152919283916101049183917f0000000000000000000000000000000000000000000000000000000000000000165af19182156110b25750600091611083575090565b90506020813d6020116110aa575b8161109e60209383610af8565b81010312610b83575190565b3d9150611091565b513d6000823e3d90fd5b825162461bcd60e51b8152602060048201526002602482015261534160f01b6044820152606490fd5b80518015925082156110fa575b505038610f76565b61110d925060208091830101910161119d565b38806110f2565b835162461bcd60e51b815260206004820152600360248201526229aa2360e91b6044820152606490fd5b8051801592508215611153575b505038610efe565b611166925060208091830101910161119d565b388061114b565b3d15611198573d9061117e82610b30565b9161118c6040519384610af8565b82523d6000602084013e565b606090565b90816020910312610b8357518015158103610b83579056fea2646970667358221220bb95148e1ba348ce0048aed0050584f237002f5fe2a4ce7221e553f21a03d67464736f6c63430008130033",
    "linkReferences": {}
  },
  "methodIdentifiers": {
    "DAI()": "e0bab4c4",
    "USDC()": "89a30271",
    "acceptOwnership()": "79ba5097",
    "ccipReceive((bytes32,uint64,bytes,bytes,(address,uint256)[]))": "85572ffb",
    "ccipReceiveTest(string)": "7880c07d",
    "getLatestMessageDetails()": "3394e6f4",
    "getRouter()": "b0f479a1",
    "owner()": "8da5cb5b",
    "poolFee()": "089fe6aa",
    "stringToUint(string)": "1bd95155",
    "supportsInterface(bytes4)": "01ffc9a7",
    "swapRouter()": "c31c9c07",
    "tokenSwapAmount()": "78f9bbd4",
    "transferOwnership(address)": "f2fde38b",
    "withdraw(address)": "51cff8d9",
    "withdrawToken(address,address)": "3aeac4e1"
  },
  "id": 101
}